{
	"pre.sol": {
		"MedicalData": {
			"abi": [
				{
					"inputs": [],
					"stateMutability": "nonpayable",
					"type": "constructor"
				},
				{
					"inputs": [],
					"name": "AccessControlBadConfirmation",
					"type": "error"
				},
				{
					"inputs": [
						{
							"internalType": "address",
							"name": "account",
							"type": "address"
						},
						{
							"internalType": "bytes32",
							"name": "neededRole",
							"type": "bytes32"
						}
					],
					"name": "AccessControlUnauthorizedAccount",
					"type": "error"
				},
				{
					"anonymous": false,
					"inputs": [
						{
							"indexed": true,
							"internalType": "uint256",
							"name": "patientId",
							"type": "uint256"
						},
						{
							"indexed": true,
							"internalType": "address",
							"name": "user",
							"type": "address"
						}
					],
					"name": "AccessGranted",
					"type": "event"
				},
				{
					"anonymous": false,
					"inputs": [
						{
							"indexed": true,
							"internalType": "uint256",
							"name": "patientId",
							"type": "uint256"
						},
						{
							"indexed": true,
							"internalType": "address",
							"name": "user",
							"type": "address"
						}
					],
					"name": "AccessRevoked",
					"type": "event"
				},
				{
					"anonymous": false,
					"inputs": [
						{
							"indexed": true,
							"internalType": "uint256",
							"name": "patientId",
							"type": "uint256"
						}
					],
					"name": "DataUpdated",
					"type": "event"
				},
				{
					"anonymous": false,
					"inputs": [
						{
							"indexed": true,
							"internalType": "bytes32",
							"name": "role",
							"type": "bytes32"
						},
						{
							"indexed": true,
							"internalType": "bytes32",
							"name": "previousAdminRole",
							"type": "bytes32"
						},
						{
							"indexed": true,
							"internalType": "bytes32",
							"name": "newAdminRole",
							"type": "bytes32"
						}
					],
					"name": "RoleAdminChanged",
					"type": "event"
				},
				{
					"anonymous": false,
					"inputs": [
						{
							"indexed": true,
							"internalType": "bytes32",
							"name": "role",
							"type": "bytes32"
						},
						{
							"indexed": true,
							"internalType": "address",
							"name": "account",
							"type": "address"
						},
						{
							"indexed": true,
							"internalType": "address",
							"name": "sender",
							"type": "address"
						}
					],
					"name": "RoleGranted",
					"type": "event"
				},
				{
					"anonymous": false,
					"inputs": [
						{
							"indexed": true,
							"internalType": "bytes32",
							"name": "role",
							"type": "bytes32"
						},
						{
							"indexed": true,
							"internalType": "address",
							"name": "account",
							"type": "address"
						},
						{
							"indexed": true,
							"internalType": "address",
							"name": "sender",
							"type": "address"
						}
					],
					"name": "RoleRevoked",
					"type": "event"
				},
				{
					"inputs": [],
					"name": "DEFAULT_ADMIN_ROLE",
					"outputs": [
						{
							"internalType": "bytes32",
							"name": "",
							"type": "bytes32"
						}
					],
					"stateMutability": "view",
					"type": "function"
				},
				{
					"inputs": [
						{
							"internalType": "uint256",
							"name": "patientId",
							"type": "uint256"
						},
						{
							"internalType": "address",
							"name": "user",
							"type": "address"
						}
					],
					"name": "authorizeAccess",
					"outputs": [],
					"stateMutability": "nonpayable",
					"type": "function"
				},
				{
					"inputs": [
						{
							"internalType": "uint256",
							"name": "patientId",
							"type": "uint256"
						}
					],
					"name": "getPatientData",
					"outputs": [
						{
							"internalType": "string",
							"name": "",
							"type": "string"
						},
						{
							"internalType": "uint256",
							"name": "",
							"type": "uint256"
						},
						{
							"internalType": "string",
							"name": "",
							"type": "string"
						},
						{
							"internalType": "string",
							"name": "",
							"type": "string"
						}
					],
					"stateMutability": "view",
					"type": "function"
				},
				{
					"inputs": [
						{
							"internalType": "bytes32",
							"name": "role",
							"type": "bytes32"
						}
					],
					"name": "getRoleAdmin",
					"outputs": [
						{
							"internalType": "bytes32",
							"name": "",
							"type": "bytes32"
						}
					],
					"stateMutability": "view",
					"type": "function"
				},
				{
					"inputs": [
						{
							"internalType": "bytes32",
							"name": "role",
							"type": "bytes32"
						},
						{
							"internalType": "address",
							"name": "account",
							"type": "address"
						}
					],
					"name": "grantRole",
					"outputs": [],
					"stateMutability": "nonpayable",
					"type": "function"
				},
				{
					"inputs": [
						{
							"internalType": "bytes32",
							"name": "role",
							"type": "bytes32"
						},
						{
							"internalType": "address",
							"name": "account",
							"type": "address"
						}
					],
					"name": "hasRole",
					"outputs": [
						{
							"internalType": "bool",
							"name": "",
							"type": "bool"
						}
					],
					"stateMutability": "view",
					"type": "function"
				},
				{
					"inputs": [
						{
							"internalType": "uint256",
							"name": "",
							"type": "uint256"
						}
					],
					"name": "patientRecords",
					"outputs": [
						{
							"internalType": "string",
							"name": "name",
							"type": "string"
						},
						{
							"internalType": "uint256",
							"name": "age",
							"type": "uint256"
						},
						{
							"internalType": "string",
							"name": "condition",
							"type": "string"
						},
						{
							"internalType": "string",
							"name": "encryptedData",
							"type": "string"
						},
						{
							"internalType": "address",
							"name": "owner",
							"type": "address"
						},
						{
							"internalType": "bytes32",
							"name": "dataHash",
							"type": "bytes32"
						}
					],
					"stateMutability": "view",
					"type": "function"
				},
				{
					"inputs": [
						{
							"internalType": "bytes32",
							"name": "role",
							"type": "bytes32"
						},
						{
							"internalType": "address",
							"name": "callerConfirmation",
							"type": "address"
						}
					],
					"name": "renounceRole",
					"outputs": [],
					"stateMutability": "nonpayable",
					"type": "function"
				},
				{
					"inputs": [
						{
							"internalType": "uint256",
							"name": "patientId",
							"type": "uint256"
						},
						{
							"internalType": "address",
							"name": "user",
							"type": "address"
						}
					],
					"name": "revokeAccess",
					"outputs": [],
					"stateMutability": "nonpayable",
					"type": "function"
				},
				{
					"inputs": [
						{
							"internalType": "bytes32",
							"name": "role",
							"type": "bytes32"
						},
						{
							"internalType": "address",
							"name": "account",
							"type": "address"
						}
					],
					"name": "revokeRole",
					"outputs": [],
					"stateMutability": "nonpayable",
					"type": "function"
				},
				{
					"inputs": [
						{
							"internalType": "uint256",
							"name": "patientId",
							"type": "uint256"
						},
						{
							"internalType": "string",
							"name": "name",
							"type": "string"
						},
						{
							"internalType": "uint256",
							"name": "age",
							"type": "uint256"
						},
						{
							"internalType": "string",
							"name": "condition",
							"type": "string"
						},
						{
							"internalType": "string",
							"name": "encryptedData",
							"type": "string"
						},
						{
							"internalType": "bytes32",
							"name": "dataHash",
							"type": "bytes32"
						}
					],
					"name": "setPatientData",
					"outputs": [],
					"stateMutability": "nonpayable",
					"type": "function"
				},
				{
					"inputs": [
						{
							"internalType": "bytes4",
							"name": "interfaceId",
							"type": "bytes4"
						}
					],
					"name": "supportsInterface",
					"outputs": [
						{
							"internalType": "bool",
							"name": "",
							"type": "bool"
						}
					],
					"stateMutability": "view",
					"type": "function"
				}
			],
			"devdoc": {
				"errors": {
					"AccessControlBadConfirmation()": [
						{
							"details": "The caller of a function is not the expected one. NOTE: Don't confuse with {AccessControlUnauthorizedAccount}."
						}
					],
					"AccessControlUnauthorizedAccount(address,bytes32)": [
						{
							"details": "The `account` is missing a role."
						}
					]
				},
				"events": {
					"RoleAdminChanged(bytes32,bytes32,bytes32)": {
						"details": "Emitted when `newAdminRole` is set as ``role``'s admin role, replacing `previousAdminRole` `DEFAULT_ADMIN_ROLE` is the starting admin for all roles, despite {RoleAdminChanged} not being emitted signaling this."
					},
					"RoleGranted(bytes32,address,address)": {
						"details": "Emitted when `account` is granted `role`. `sender` is the account that originated the contract call, an admin role bearer except when using {AccessControl-_setupRole}."
					},
					"RoleRevoked(bytes32,address,address)": {
						"details": "Emitted when `account` is revoked `role`. `sender` is the account that originated the contract call:   - if using `revokeRole`, it is the admin role bearer   - if using `renounceRole`, it is the role bearer (i.e. `account`)"
					}
				},
				"kind": "dev",
				"methods": {
					"getRoleAdmin(bytes32)": {
						"details": "Returns the admin role that controls `role`. See {grantRole} and {revokeRole}. To change a role's admin, use {_setRoleAdmin}."
					},
					"grantRole(bytes32,address)": {
						"details": "Grants `role` to `account`. If `account` had not been already granted `role`, emits a {RoleGranted} event. Requirements: - the caller must have ``role``'s admin role. May emit a {RoleGranted} event."
					},
					"hasRole(bytes32,address)": {
						"details": "Returns `true` if `account` has been granted `role`."
					},
					"renounceRole(bytes32,address)": {
						"details": "Revokes `role` from the calling account. Roles are often managed via {grantRole} and {revokeRole}: this function's purpose is to provide a mechanism for accounts to lose their privileges if they are compromised (such as when a trusted device is misplaced). If the calling account had been revoked `role`, emits a {RoleRevoked} event. Requirements: - the caller must be `callerConfirmation`. May emit a {RoleRevoked} event."
					},
					"revokeRole(bytes32,address)": {
						"details": "Revokes `role` from `account`. If `account` had been granted `role`, emits a {RoleRevoked} event. Requirements: - the caller must have ``role``'s admin role. May emit a {RoleRevoked} event."
					},
					"supportsInterface(bytes4)": {
						"details": "See {IERC165-supportsInterface}."
					}
				},
				"version": 1
			},
			"evm": {
				"assembly": "    /* \"pre.sol\":117:2787  contract MedicalData is AccessControl {... */\n  mstore(0x40, 0x80)\n    /* \"pre.sol\":771:844  constructor() {... */\n  callvalue\n  dup1\n  iszero\n  tag_1\n  jumpi\n  0x00\n  dup1\n  revert\ntag_1:\n  pop\n    /* \"pre.sol\":795:837  _grantRole(DEFAULT_ADMIN_ROLE, msg.sender) */\n  tag_4\n    /* \"@openzeppelin/contracts/access/AccessControl.sol\":2232:2236  0x00 */\n  0x00\n    /* \"pre.sol\":806:824  DEFAULT_ADMIN_ROLE */\n  dup1\n  shl\n    /* \"pre.sol\":826:836  msg.sender */\n  caller\n    /* \"pre.sol\":795:805  _grantRole */\n  shl(0x20, tag_5)\n    /* \"pre.sol\":795:837  _grantRole(DEFAULT_ADMIN_ROLE, msg.sender) */\n  0x20\n  shr\n  jump\t// in\ntag_4:\n  pop\n    /* \"pre.sol\":117:2787  contract MedicalData is AccessControl {... */\n  jump(tag_6)\n    /* \"@openzeppelin/contracts/access/AccessControl.sol\":6179:6495  function _grantRole(bytes32 role, address account) internal virtual returns (bool) {... */\ntag_5:\n    /* \"@openzeppelin/contracts/access/AccessControl.sol\":6256:6260  bool */\n  0x00\n    /* \"@openzeppelin/contracts/access/AccessControl.sol\":6277:6299  hasRole(role, account) */\n  tag_8\n    /* \"@openzeppelin/contracts/access/AccessControl.sol\":6285:6289  role */\n  dup4\n    /* \"@openzeppelin/contracts/access/AccessControl.sol\":6291:6298  account */\n  dup4\n    /* \"@openzeppelin/contracts/access/AccessControl.sol\":6277:6284  hasRole */\n  shl(0x20, tag_9)\n    /* \"@openzeppelin/contracts/access/AccessControl.sol\":6277:6299  hasRole(role, account) */\n  0x20\n  shr\n  jump\t// in\ntag_8:\n    /* \"@openzeppelin/contracts/access/AccessControl.sol\":6272:6489  if (!hasRole(role, account)) {... */\n  tag_10\n  jumpi\n    /* \"@openzeppelin/contracts/access/AccessControl.sol\":6347:6351  true */\n  0x01\n    /* \"@openzeppelin/contracts/access/AccessControl.sol\":6315:6321  _roles */\n  0x00\n    /* \"@openzeppelin/contracts/access/AccessControl.sol\":6315:6327  _roles[role] */\n  dup1\n    /* \"@openzeppelin/contracts/access/AccessControl.sol\":6322:6326  role */\n  dup6\n    /* \"@openzeppelin/contracts/access/AccessControl.sol\":6315:6327  _roles[role] */\n  dup2\n  mstore\n  0x20\n  add\n  swap1\n  dup2\n  mstore\n  0x20\n  add\n  0x00\n  keccak256\n    /* \"@openzeppelin/contracts/access/AccessControl.sol\":6315:6335  _roles[role].hasRole */\n  0x00\n  add\n    /* \"@openzeppelin/contracts/access/AccessControl.sol\":6315:6344  _roles[role].hasRole[account] */\n  0x00\n    /* \"@openzeppelin/contracts/access/AccessControl.sol\":6336:6343  account */\n  dup5\n    /* \"@openzeppelin/contracts/access/AccessControl.sol\":6315:6344  _roles[role].hasRole[account] */\n  0xffffffffffffffffffffffffffffffffffffffff\n  and\n  0xffffffffffffffffffffffffffffffffffffffff\n  and\n  dup2\n  mstore\n  0x20\n  add\n  swap1\n  dup2\n  mstore\n  0x20\n  add\n  0x00\n  keccak256\n  0x00\n    /* \"@openzeppelin/contracts/access/AccessControl.sol\":6315:6351  _roles[role].hasRole[account] = true */\n  0x0100\n  exp\n  dup2\n  sload\n  dup2\n  0xff\n  mul\n  not\n  and\n  swap1\n  dup4\n  iszero\n  iszero\n  mul\n  or\n  swap1\n  sstore\n  pop\n    /* \"@openzeppelin/contracts/access/AccessControl.sol\":6397:6409  _msgSender() */\n  tag_11\n    /* \"@openzeppelin/contracts/access/AccessControl.sol\":6397:6407  _msgSender */\n  shl(0x20, tag_12)\n    /* \"@openzeppelin/contracts/access/AccessControl.sol\":6397:6409  _msgSender() */\n  0x20\n  shr\n  jump\t// in\ntag_11:\n    /* \"@openzeppelin/contracts/access/AccessControl.sol\":6370:6410  RoleGranted(role, account, _msgSender()) */\n  0xffffffffffffffffffffffffffffffffffffffff\n  and\n    /* \"@openzeppelin/contracts/access/AccessControl.sol\":6388:6395  account */\n  dup3\n    /* \"@openzeppelin/contracts/access/AccessControl.sol\":6370:6410  RoleGranted(role, account, _msgSender()) */\n  0xffffffffffffffffffffffffffffffffffffffff\n  and\n    /* \"@openzeppelin/contracts/access/AccessControl.sol\":6382:6386  role */\n  dup5\n    /* \"@openzeppelin/contracts/access/AccessControl.sol\":6370:6410  RoleGranted(role, account, _msgSender()) */\n  0x2f8788117e7eff1d82e926ec794901d17c78024a50270940304540a733656f0d\n  mload(0x40)\n  mload(0x40)\n  dup1\n  swap2\n  sub\n  swap1\n  log4\n    /* \"@openzeppelin/contracts/access/AccessControl.sol\":6431:6435  true */\n  0x01\n    /* \"@openzeppelin/contracts/access/AccessControl.sol\":6424:6435  return true */\n  swap1\n  pop\n  jump(tag_7)\n    /* \"@openzeppelin/contracts/access/AccessControl.sol\":6272:6489  if (!hasRole(role, account)) {... */\ntag_10:\n    /* \"@openzeppelin/contracts/access/AccessControl.sol\":6473:6478  false */\n  0x00\n    /* \"@openzeppelin/contracts/access/AccessControl.sol\":6466:6478  return false */\n  swap1\n  pop\n    /* \"@openzeppelin/contracts/access/AccessControl.sol\":6179:6495  function _grantRole(bytes32 role, address account) internal virtual returns (bool) {... */\ntag_7:\n  swap3\n  swap2\n  pop\n  pop\n  jump\t// out\n    /* \"@openzeppelin/contracts/access/AccessControl.sol\":2854:2990  function hasRole(bytes32 role, address account) public view virtual returns (bool) {... */\ntag_9:\n    /* \"@openzeppelin/contracts/access/AccessControl.sol\":2931:2935  bool */\n  0x00\n    /* \"@openzeppelin/contracts/access/AccessControl.sol\":2954:2960  _roles */\n  dup1\n    /* \"@openzeppelin/contracts/access/AccessControl.sol\":2954:2966  _roles[role] */\n  0x00\n    /* \"@openzeppelin/contracts/access/AccessControl.sol\":2961:2965  role */\n  dup5\n    /* \"@openzeppelin/contracts/access/AccessControl.sol\":2954:2966  _roles[role] */\n  dup2\n  mstore\n  0x20\n  add\n  swap1\n  dup2\n  mstore\n  0x20\n  add\n  0x00\n  keccak256\n    /* \"@openzeppelin/contracts/access/AccessControl.sol\":2954:2974  _roles[role].hasRole */\n  0x00\n  add\n    /* \"@openzeppelin/contracts/access/AccessControl.sol\":2954:2983  _roles[role].hasRole[account] */\n  0x00\n    /* \"@openzeppelin/contracts/access/AccessControl.sol\":2975:2982  account */\n  dup4\n    /* \"@openzeppelin/contracts/access/AccessControl.sol\":2954:2983  _roles[role].hasRole[account] */\n  0xffffffffffffffffffffffffffffffffffffffff\n  and\n  0xffffffffffffffffffffffffffffffffffffffff\n  and\n  dup2\n  mstore\n  0x20\n  add\n  swap1\n  dup2\n  mstore\n  0x20\n  add\n  0x00\n  keccak256\n  0x00\n  swap1\n  sload\n  swap1\n  0x0100\n  exp\n  swap1\n  div\n  0xff\n  and\n    /* \"@openzeppelin/contracts/access/AccessControl.sol\":2947:2983  return _roles[role].hasRole[account] */\n  swap1\n  pop\n    /* \"@openzeppelin/contracts/access/AccessControl.sol\":2854:2990  function hasRole(bytes32 role, address account) public view virtual returns (bool) {... */\n  swap3\n  swap2\n  pop\n  pop\n  jump\t// out\n    /* \"@openzeppelin/contracts/utils/Context.sol\":656:752  function _msgSender() internal view virtual returns (address) {... */\ntag_12:\n    /* \"@openzeppelin/contracts/utils/Context.sol\":709:716  address */\n  0x00\n    /* \"@openzeppelin/contracts/utils/Context.sol\":735:745  msg.sender */\n  caller\n    /* \"@openzeppelin/contracts/utils/Context.sol\":728:745  return msg.sender */\n  swap1\n  pop\n    /* \"@openzeppelin/contracts/utils/Context.sol\":656:752  function _msgSender() internal view virtual returns (address) {... */\n  swap1\n  jump\t// out\n    /* \"pre.sol\":117:2787  contract MedicalData is AccessControl {... */\ntag_6:\n  dataSize(sub_0)\n  dup1\n  dataOffset(sub_0)\n  0x00\n  codecopy\n  0x00\n  return\nstop\n\nsub_0: assembly {\n        /* \"pre.sol\":117:2787  contract MedicalData is AccessControl {... */\n      mstore(0x40, 0x80)\n      callvalue\n      dup1\n      iszero\n      tag_1\n      jumpi\n      0x00\n      dup1\n      revert\n    tag_1:\n      pop\n      jumpi(tag_2, lt(calldatasize, 0x04))\n      shr(0xe0, calldataload(0x00))\n      dup1\n      0x91d14854\n      gt\n      tag_15\n      jumpi\n      dup1\n      0x91d14854\n      eq\n      tag_9\n      jumpi\n      dup1\n      0xa217fddf\n      eq\n      tag_10\n      jumpi\n      dup1\n      0xd3d188a1\n      eq\n      tag_11\n      jumpi\n      dup1\n      0xd547741f\n      eq\n      tag_12\n      jumpi\n      dup1\n      0xd9a5ec1b\n      eq\n      tag_13\n      jumpi\n      dup1\n      0xf78cb684\n      eq\n      tag_14\n      jumpi\n      jump(tag_2)\n    tag_15:\n      dup1\n      0x01ffc9a7\n      eq\n      tag_3\n      jumpi\n      dup1\n      0x0b72ac6d\n      eq\n      tag_4\n      jumpi\n      dup1\n      0x248a9ca3\n      eq\n      tag_5\n      jumpi\n      dup1\n      0x2f2ff15d\n      eq\n      tag_6\n      jumpi\n      dup1\n      0x36568abe\n      eq\n      tag_7\n      jumpi\n      dup1\n      0x7d8e34f3\n      eq\n      tag_8\n      jumpi\n    tag_2:\n      0x00\n      dup1\n      revert\n        /* \"@openzeppelin/contracts/access/AccessControl.sol\":2565:2767  function supportsInterface(bytes4 interfaceId) public view virtual override returns (bool) {... */\n    tag_3:\n      tag_16\n      0x04\n      dup1\n      calldatasize\n      sub\n      dup2\n      add\n      swap1\n      tag_17\n      swap2\n      swap1\n      tag_18\n      jump\t// in\n    tag_17:\n      tag_19\n      jump\t// in\n    tag_16:\n      mload(0x40)\n      tag_20\n      swap2\n      swap1\n      tag_21\n      jump\t// in\n    tag_20:\n      mload(0x40)\n      dup1\n      swap2\n      sub\n      swap1\n      return\n        /* \"pre.sol\":1643:1926  function authorizeAccess(uint256 patientId, address user) public {... */\n    tag_4:\n      tag_22\n      0x04\n      dup1\n      calldatasize\n      sub\n      dup2\n      add\n      swap1\n      tag_23\n      swap2\n      swap1\n      tag_24\n      jump\t// in\n    tag_23:\n      tag_25\n      jump\t// in\n    tag_22:\n      stop\n        /* \"@openzeppelin/contracts/access/AccessControl.sol\":3810:3930  function getRoleAdmin(bytes32 role) public view virtual returns (bytes32) {... */\n    tag_5:\n      tag_26\n      0x04\n      dup1\n      calldatasize\n      sub\n      dup2\n      add\n      swap1\n      tag_27\n      swap2\n      swap1\n      tag_28\n      jump\t// in\n    tag_27:\n      tag_29\n      jump\t// in\n    tag_26:\n      mload(0x40)\n      tag_30\n      swap2\n      swap1\n      tag_31\n      jump\t// in\n    tag_30:\n      mload(0x40)\n      dup1\n      swap2\n      sub\n      swap1\n      return\n        /* \"@openzeppelin/contracts/access/AccessControl.sol\":4226:4362  function grantRole(bytes32 role, address account) public virtual onlyRole(getRoleAdmin(role)) {... */\n    tag_6:\n      tag_32\n      0x04\n      dup1\n      calldatasize\n      sub\n      dup2\n      add\n      swap1\n      tag_33\n      swap2\n      swap1\n      tag_34\n      jump\t// in\n    tag_33:\n      tag_35\n      jump\t// in\n    tag_32:\n      stop\n        /* \"@openzeppelin/contracts/access/AccessControl.sol\":5328:5573  function renounceRole(bytes32 role, address callerConfirmation) public virtual {... */\n    tag_7:\n      tag_36\n      0x04\n      dup1\n      calldatasize\n      sub\n      dup2\n      add\n      swap1\n      tag_37\n      swap2\n      swap1\n      tag_34\n      jump\t// in\n    tag_37:\n      tag_38\n      jump\t// in\n    tag_36:\n      stop\n        /* \"pre.sol\":2374:2785  function getPatientData(uint256 patientId) public view returns (string memory, uint, string memory, string memory) {... */\n    tag_8:\n      tag_39\n      0x04\n      dup1\n      calldatasize\n      sub\n      dup2\n      add\n      swap1\n      tag_40\n      swap2\n      swap1\n      tag_41\n      jump\t// in\n    tag_40:\n      tag_42\n      jump\t// in\n    tag_39:\n      mload(0x40)\n      tag_43\n      swap5\n      swap4\n      swap3\n      swap2\n      swap1\n      tag_44\n      jump\t// in\n    tag_43:\n      mload(0x40)\n      dup1\n      swap2\n      sub\n      swap1\n      return\n        /* \"@openzeppelin/contracts/access/AccessControl.sol\":2854:2990  function hasRole(bytes32 role, address account) public view virtual returns (bool) {... */\n    tag_9:\n      tag_45\n      0x04\n      dup1\n      calldatasize\n      sub\n      dup2\n      add\n      swap1\n      tag_46\n      swap2\n      swap1\n      tag_34\n      jump\t// in\n    tag_46:\n      tag_47\n      jump\t// in\n    tag_45:\n      mload(0x40)\n      tag_48\n      swap2\n      swap1\n      tag_21\n      jump\t// in\n    tag_48:\n      mload(0x40)\n      dup1\n      swap2\n      sub\n      swap1\n      return\n        /* \"@openzeppelin/contracts/access/AccessControl.sol\":2187:2236  bytes32 public constant DEFAULT_ADMIN_ROLE = 0x00 */\n    tag_10:\n      tag_49\n      tag_50\n      jump\t// in\n    tag_49:\n      mload(0x40)\n      tag_51\n      swap2\n      swap1\n      tag_31\n      jump\t// in\n    tag_51:\n      mload(0x40)\n      dup1\n      swap2\n      sub\n      swap1\n      return\n        /* \"pre.sol\":510:565  mapping(uint256 => PatientRecord) public patientRecords */\n    tag_11:\n      tag_52\n      0x04\n      dup1\n      calldatasize\n      sub\n      dup2\n      add\n      swap1\n      tag_53\n      swap2\n      swap1\n      tag_41\n      jump\t// in\n    tag_53:\n      tag_54\n      jump\t// in\n    tag_52:\n      mload(0x40)\n      tag_55\n      swap7\n      swap6\n      swap5\n      swap4\n      swap3\n      swap2\n      swap1\n      tag_56\n      jump\t// in\n    tag_55:\n      mload(0x40)\n      dup1\n      swap2\n      sub\n      swap1\n      return\n        /* \"@openzeppelin/contracts/access/AccessControl.sol\":4642:4780  function revokeRole(bytes32 role, address account) public virtual onlyRole(getRoleAdmin(role)) {... */\n    tag_12:\n      tag_57\n      0x04\n      dup1\n      calldatasize\n      sub\n      dup2\n      add\n      swap1\n      tag_58\n      swap2\n      swap1\n      tag_34\n      jump\t// in\n    tag_58:\n      tag_59\n      jump\t// in\n    tag_57:\n      stop\n        /* \"pre.sol\":2021:2303  function revokeAccess(uint256 patientId, address user) public {... */\n    tag_13:\n      tag_60\n      0x04\n      dup1\n      calldatasize\n      sub\n      dup2\n      add\n      swap1\n      tag_61\n      swap2\n      swap1\n      tag_24\n      jump\t// in\n    tag_61:\n      tag_62\n      jump\t// in\n    tag_60:\n      stop\n        /* \"pre.sol\":910:1560  function setPatientData(uint256 patientId, string memory name, uint age, string memory condition, string memory encryptedData, bytes32 dataHash) public {... */\n    tag_14:\n      tag_63\n      0x04\n      dup1\n      calldatasize\n      sub\n      dup2\n      add\n      swap1\n      tag_64\n      swap2\n      swap1\n      tag_65\n      jump\t// in\n    tag_64:\n      tag_66\n      jump\t// in\n    tag_63:\n      stop\n        /* \"@openzeppelin/contracts/access/AccessControl.sol\":2565:2767  function supportsInterface(bytes4 interfaceId) public view virtual override returns (bool) {... */\n    tag_19:\n        /* \"@openzeppelin/contracts/access/AccessControl.sol\":2650:2654  bool */\n      0x00\n        /* \"@openzeppelin/contracts/access/AccessControl.sol\":2688:2720  type(IAccessControl).interfaceId */\n      0x7965db0b00000000000000000000000000000000000000000000000000000000\n        /* \"@openzeppelin/contracts/access/AccessControl.sol\":2673:2720  interfaceId == type(IAccessControl).interfaceId */\n      not(0xffffffffffffffffffffffffffffffffffffffffffffffffffffffff)\n      and\n        /* \"@openzeppelin/contracts/access/AccessControl.sol\":2673:2684  interfaceId */\n      dup3\n        /* \"@openzeppelin/contracts/access/AccessControl.sol\":2673:2720  interfaceId == type(IAccessControl).interfaceId */\n      not(0xffffffffffffffffffffffffffffffffffffffffffffffffffffffff)\n      and\n      eq\n        /* \"@openzeppelin/contracts/access/AccessControl.sol\":2673:2760  interfaceId == type(IAccessControl).interfaceId || super.supportsInterface(interfaceId) */\n      dup1\n      tag_68\n      jumpi\n      pop\n        /* \"@openzeppelin/contracts/access/AccessControl.sol\":2724:2760  super.supportsInterface(interfaceId) */\n      tag_69\n        /* \"@openzeppelin/contracts/access/AccessControl.sol\":2748:2759  interfaceId */\n      dup3\n        /* \"@openzeppelin/contracts/access/AccessControl.sol\":2724:2747  super.supportsInterface */\n      tag_70\n        /* \"@openzeppelin/contracts/access/AccessControl.sol\":2724:2760  super.supportsInterface(interfaceId) */\n      jump\t// in\n    tag_69:\n        /* \"@openzeppelin/contracts/access/AccessControl.sol\":2673:2760  interfaceId == type(IAccessControl).interfaceId || super.supportsInterface(interfaceId) */\n    tag_68:\n        /* \"@openzeppelin/contracts/access/AccessControl.sol\":2666:2760  return interfaceId == type(IAccessControl).interfaceId || super.supportsInterface(interfaceId) */\n      swap1\n      pop\n        /* \"@openzeppelin/contracts/access/AccessControl.sol\":2565:2767  function supportsInterface(bytes4 interfaceId) public view virtual override returns (bool) {... */\n      swap2\n      swap1\n      pop\n      jump\t// out\n        /* \"pre.sol\":1643:1926  function authorizeAccess(uint256 patientId, address user) public {... */\n    tag_25:\n        /* \"pre.sol\":1761:1771  msg.sender */\n      caller\n        /* \"pre.sol\":1726:1771  patientRecords[patientId].owner == msg.sender */\n      0xffffffffffffffffffffffffffffffffffffffff\n      and\n        /* \"pre.sol\":1726:1740  patientRecords */\n      0x01\n        /* \"pre.sol\":1726:1751  patientRecords[patientId] */\n      0x00\n        /* \"pre.sol\":1741:1750  patientId */\n      dup5\n        /* \"pre.sol\":1726:1751  patientRecords[patientId] */\n      dup2\n      mstore\n      0x20\n      add\n      swap1\n      dup2\n      mstore\n      0x20\n      add\n      0x00\n      keccak256\n        /* \"pre.sol\":1726:1757  patientRecords[patientId].owner */\n      0x05\n      add\n      0x00\n      swap1\n      sload\n      swap1\n      0x0100\n      exp\n      swap1\n      div\n      0xffffffffffffffffffffffffffffffffffffffff\n      and\n        /* \"pre.sol\":1726:1771  patientRecords[patientId].owner == msg.sender */\n      0xffffffffffffffffffffffffffffffffffffffff\n      and\n      eq\n        /* \"pre.sol\":1718:1808  require(patientRecords[patientId].owner == msg.sender, \"Only the owner can grant access.\") */\n      tag_72\n      jumpi\n      mload(0x40)\n      0x08c379a000000000000000000000000000000000000000000000000000000000\n      dup2\n      mstore\n      0x04\n      add\n      tag_73\n      swap1\n      tag_74\n      jump\t// in\n    tag_73:\n      mload(0x40)\n      dup1\n      swap2\n      sub\n      swap1\n      revert\n    tag_72:\n        /* \"pre.sol\":1870:1874  true */\n      0x01\n        /* \"pre.sol\":1818:1832  patientRecords */\n      dup1\n        /* \"pre.sol\":1818:1843  patientRecords[patientId] */\n      0x00\n        /* \"pre.sol\":1833:1842  patientId */\n      dup5\n        /* \"pre.sol\":1818:1843  patientRecords[patientId] */\n      dup2\n      mstore\n      0x20\n      add\n      swap1\n      dup2\n      mstore\n      0x20\n      add\n      0x00\n      keccak256\n        /* \"pre.sol\":1818:1861  patientRecords[patientId].accessPermissions */\n      0x04\n      add\n        /* \"pre.sol\":1818:1867  patientRecords[patientId].accessPermissions[user] */\n      0x00\n        /* \"pre.sol\":1862:1866  user */\n      dup4\n        /* \"pre.sol\":1818:1867  patientRecords[patientId].accessPermissions[user] */\n      0xffffffffffffffffffffffffffffffffffffffff\n      and\n      0xffffffffffffffffffffffffffffffffffffffff\n      and\n      dup2\n      mstore\n      0x20\n      add\n      swap1\n      dup2\n      mstore\n      0x20\n      add\n      0x00\n      keccak256\n      0x00\n        /* \"pre.sol\":1818:1874  patientRecords[patientId].accessPermissions[user] = true */\n      0x0100\n      exp\n      dup2\n      sload\n      dup2\n      0xff\n      mul\n      not\n      and\n      swap1\n      dup4\n      iszero\n      iszero\n      mul\n      or\n      swap1\n      sstore\n      pop\n        /* \"pre.sol\":1914:1918  user */\n      dup1\n        /* \"pre.sol\":1889:1919  AccessGranted(patientId, user) */\n      0xffffffffffffffffffffffffffffffffffffffff\n      and\n        /* \"pre.sol\":1903:1912  patientId */\n      dup3\n        /* \"pre.sol\":1889:1919  AccessGranted(patientId, user) */\n      0x3c3a9147a1fc73dd51a32f4d10c43d457e8cb826eb6f35cac6349eb965ba82b4\n      mload(0x40)\n      mload(0x40)\n      dup1\n      swap2\n      sub\n      swap1\n      log3\n        /* \"pre.sol\":1643:1926  function authorizeAccess(uint256 patientId, address user) public {... */\n      pop\n      pop\n      jump\t// out\n        /* \"@openzeppelin/contracts/access/AccessControl.sol\":3810:3930  function getRoleAdmin(bytes32 role) public view virtual returns (bytes32) {... */\n    tag_29:\n        /* \"@openzeppelin/contracts/access/AccessControl.sol\":3875:3882  bytes32 */\n      0x00\n        /* \"@openzeppelin/contracts/access/AccessControl.sol\":3901:3907  _roles */\n      dup1\n        /* \"@openzeppelin/contracts/access/AccessControl.sol\":3901:3913  _roles[role] */\n      0x00\n        /* \"@openzeppelin/contracts/access/AccessControl.sol\":3908:3912  role */\n      dup4\n        /* \"@openzeppelin/contracts/access/AccessControl.sol\":3901:3913  _roles[role] */\n      dup2\n      mstore\n      0x20\n      add\n      swap1\n      dup2\n      mstore\n      0x20\n      add\n      0x00\n      keccak256\n        /* \"@openzeppelin/contracts/access/AccessControl.sol\":3901:3923  _roles[role].adminRole */\n      0x01\n      add\n      sload\n        /* \"@openzeppelin/contracts/access/AccessControl.sol\":3894:3923  return _roles[role].adminRole */\n      swap1\n      pop\n        /* \"@openzeppelin/contracts/access/AccessControl.sol\":3810:3930  function getRoleAdmin(bytes32 role) public view virtual returns (bytes32) {... */\n      swap2\n      swap1\n      pop\n      jump\t// out\n        /* \"@openzeppelin/contracts/access/AccessControl.sol\":4226:4362  function grantRole(bytes32 role, address account) public virtual onlyRole(getRoleAdmin(role)) {... */\n    tag_35:\n        /* \"@openzeppelin/contracts/access/AccessControl.sol\":4300:4318  getRoleAdmin(role) */\n      tag_76\n        /* \"@openzeppelin/contracts/access/AccessControl.sol\":4313:4317  role */\n      dup3\n        /* \"@openzeppelin/contracts/access/AccessControl.sol\":4300:4312  getRoleAdmin */\n      tag_29\n        /* \"@openzeppelin/contracts/access/AccessControl.sol\":4300:4318  getRoleAdmin(role) */\n      jump\t// in\n    tag_76:\n        /* \"@openzeppelin/contracts/access/AccessControl.sol\":2464:2480  _checkRole(role) */\n      tag_78\n        /* \"@openzeppelin/contracts/access/AccessControl.sol\":2475:2479  role */\n      dup2\n        /* \"@openzeppelin/contracts/access/AccessControl.sol\":2464:2474  _checkRole */\n      tag_79\n        /* \"@openzeppelin/contracts/access/AccessControl.sol\":2464:2480  _checkRole(role) */\n      jump\t// in\n    tag_78:\n        /* \"@openzeppelin/contracts/access/AccessControl.sol\":4330:4355  _grantRole(role, account) */\n      tag_81\n        /* \"@openzeppelin/contracts/access/AccessControl.sol\":4341:4345  role */\n      dup4\n        /* \"@openzeppelin/contracts/access/AccessControl.sol\":4347:4354  account */\n      dup4\n        /* \"@openzeppelin/contracts/access/AccessControl.sol\":4330:4340  _grantRole */\n      tag_82\n        /* \"@openzeppelin/contracts/access/AccessControl.sol\":4330:4355  _grantRole(role, account) */\n      jump\t// in\n    tag_81:\n      pop\n        /* \"@openzeppelin/contracts/access/AccessControl.sol\":4226:4362  function grantRole(bytes32 role, address account) public virtual onlyRole(getRoleAdmin(role)) {... */\n      pop\n      pop\n      pop\n      jump\t// out\n        /* \"@openzeppelin/contracts/access/AccessControl.sol\":5328:5573  function renounceRole(bytes32 role, address callerConfirmation) public virtual {... */\n    tag_38:\n        /* \"@openzeppelin/contracts/access/AccessControl.sol\":5443:5455  _msgSender() */\n      tag_84\n        /* \"@openzeppelin/contracts/access/AccessControl.sol\":5443:5453  _msgSender */\n      tag_85\n        /* \"@openzeppelin/contracts/access/AccessControl.sol\":5443:5455  _msgSender() */\n      jump\t// in\n    tag_84:\n        /* \"@openzeppelin/contracts/access/AccessControl.sol\":5421:5455  callerConfirmation != _msgSender() */\n      0xffffffffffffffffffffffffffffffffffffffff\n      and\n        /* \"@openzeppelin/contracts/access/AccessControl.sol\":5421:5439  callerConfirmation */\n      dup2\n        /* \"@openzeppelin/contracts/access/AccessControl.sol\":5421:5455  callerConfirmation != _msgSender() */\n      0xffffffffffffffffffffffffffffffffffffffff\n      and\n      eq\n        /* \"@openzeppelin/contracts/access/AccessControl.sol\":5417:5519  if (callerConfirmation != _msgSender()) {... */\n      tag_86\n      jumpi\n        /* \"@openzeppelin/contracts/access/AccessControl.sol\":5478:5508  AccessControlBadConfirmation() */\n      mload(0x40)\n      0x6697b23200000000000000000000000000000000000000000000000000000000\n      dup2\n      mstore\n      0x04\n      add\n      mload(0x40)\n      dup1\n      swap2\n      sub\n      swap1\n      revert\n        /* \"@openzeppelin/contracts/access/AccessControl.sol\":5417:5519  if (callerConfirmation != _msgSender()) {... */\n    tag_86:\n        /* \"@openzeppelin/contracts/access/AccessControl.sol\":5529:5566  _revokeRole(role, callerConfirmation) */\n      tag_87\n        /* \"@openzeppelin/contracts/access/AccessControl.sol\":5541:5545  role */\n      dup3\n        /* \"@openzeppelin/contracts/access/AccessControl.sol\":5547:5565  callerConfirmation */\n      dup3\n        /* \"@openzeppelin/contracts/access/AccessControl.sol\":5529:5540  _revokeRole */\n      tag_88\n        /* \"@openzeppelin/contracts/access/AccessControl.sol\":5529:5566  _revokeRole(role, callerConfirmation) */\n      jump\t// in\n    tag_87:\n      pop\n        /* \"@openzeppelin/contracts/access/AccessControl.sol\":5328:5573  function renounceRole(bytes32 role, address callerConfirmation) public virtual {... */\n      pop\n      pop\n      jump\t// out\n        /* \"pre.sol\":2374:2785  function getPatientData(uint256 patientId) public view returns (string memory, uint, string memory, string memory) {... */\n    tag_42:\n        /* \"pre.sol\":2438:2451  string memory */\n      0x60\n        /* \"pre.sol\":2453:2457  uint */\n      0x00\n        /* \"pre.sol\":2459:2472  string memory */\n      0x60\n        /* \"pre.sol\":2474:2487  string memory */\n      dup1\n        /* \"pre.sol\":2507:2521  patientRecords */\n      0x01\n        /* \"pre.sol\":2507:2532  patientRecords[patientId] */\n      0x00\n        /* \"pre.sol\":2522:2531  patientId */\n      dup7\n        /* \"pre.sol\":2507:2532  patientRecords[patientId] */\n      dup2\n      mstore\n      0x20\n      add\n      swap1\n      dup2\n      mstore\n      0x20\n      add\n      0x00\n      keccak256\n        /* \"pre.sol\":2507:2550  patientRecords[patientId].accessPermissions */\n      0x04\n      add\n        /* \"pre.sol\":2507:2562  patientRecords[patientId].accessPermissions[msg.sender] */\n      0x00\n        /* \"pre.sol\":2551:2561  msg.sender */\n      caller\n        /* \"pre.sol\":2507:2562  patientRecords[patientId].accessPermissions[msg.sender] */\n      0xffffffffffffffffffffffffffffffffffffffff\n      and\n      0xffffffffffffffffffffffffffffffffffffffff\n      and\n      dup2\n      mstore\n      0x20\n      add\n      swap1\n      dup2\n      mstore\n      0x20\n      add\n      0x00\n      keccak256\n      0x00\n      swap1\n      sload\n      swap1\n      0x0100\n      exp\n      swap1\n      div\n      0xff\n      and\n        /* \"pre.sol\":2507:2611  patientRecords[patientId].accessPermissions[msg.sender] || patientRecords[patientId].owner == msg.sender */\n      dup1\n      tag_90\n      jumpi\n      pop\n        /* \"pre.sol\":2601:2611  msg.sender */\n      caller\n        /* \"pre.sol\":2566:2611  patientRecords[patientId].owner == msg.sender */\n      0xffffffffffffffffffffffffffffffffffffffff\n      and\n        /* \"pre.sol\":2566:2580  patientRecords */\n      0x01\n        /* \"pre.sol\":2566:2591  patientRecords[patientId] */\n      0x00\n        /* \"pre.sol\":2581:2590  patientId */\n      dup8\n        /* \"pre.sol\":2566:2591  patientRecords[patientId] */\n      dup2\n      mstore\n      0x20\n      add\n      swap1\n      dup2\n      mstore\n      0x20\n      add\n      0x00\n      keccak256\n        /* \"pre.sol\":2566:2597  patientRecords[patientId].owner */\n      0x05\n      add\n      0x00\n      swap1\n      sload\n      swap1\n      0x0100\n      exp\n      swap1\n      div\n      0xffffffffffffffffffffffffffffffffffffffff\n      and\n        /* \"pre.sol\":2566:2611  patientRecords[patientId].owner == msg.sender */\n      0xffffffffffffffffffffffffffffffffffffffff\n      and\n      eq\n        /* \"pre.sol\":2507:2611  patientRecords[patientId].accessPermissions[msg.sender] || patientRecords[patientId].owner == msg.sender */\n    tag_90:\n        /* \"pre.sol\":2499:2630  require(patientRecords[patientId].accessPermissions[msg.sender] || patientRecords[patientId].owner == msg.sender, \"Access denied.\") */\n      tag_91\n      jumpi\n      mload(0x40)\n      0x08c379a000000000000000000000000000000000000000000000000000000000\n      dup2\n      mstore\n      0x04\n      add\n      tag_92\n      swap1\n      tag_93\n      jump\t// in\n    tag_92:\n      mload(0x40)\n      dup1\n      swap2\n      sub\n      swap1\n      revert\n    tag_91:\n        /* \"pre.sol\":2640:2668  PatientRecord storage record */\n      0x00\n        /* \"pre.sol\":2671:2685  patientRecords */\n      0x01\n        /* \"pre.sol\":2671:2696  patientRecords[patientId] */\n      0x00\n        /* \"pre.sol\":2686:2695  patientId */\n      dup8\n        /* \"pre.sol\":2671:2696  patientRecords[patientId] */\n      dup2\n      mstore\n      0x20\n      add\n      swap1\n      dup2\n      mstore\n      0x20\n      add\n      0x00\n      keccak256\n        /* \"pre.sol\":2640:2696  PatientRecord storage record = patientRecords[patientId] */\n      swap1\n      pop\n        /* \"pre.sol\":2714:2720  record */\n      dup1\n        /* \"pre.sol\":2714:2725  record.name */\n      0x00\n      add\n        /* \"pre.sol\":2727:2733  record */\n      dup2\n        /* \"pre.sol\":2727:2737  record.age */\n      0x01\n      add\n      sload\n        /* \"pre.sol\":2739:2745  record */\n      dup3\n        /* \"pre.sol\":2739:2755  record.condition */\n      0x02\n      add\n        /* \"pre.sol\":2757:2763  record */\n      dup4\n        /* \"pre.sol\":2757:2777  record.encryptedData */\n      0x03\n      add\n        /* \"pre.sol\":2706:2778  return (record.name, record.age, record.condition, record.encryptedData) */\n      dup4\n      dup1\n      sload\n      tag_94\n      swap1\n      tag_95\n      jump\t// in\n    tag_94:\n      dup1\n      0x1f\n      add\n      0x20\n      dup1\n      swap2\n      div\n      mul\n      0x20\n      add\n      mload(0x40)\n      swap1\n      dup2\n      add\n      0x40\n      mstore\n      dup1\n      swap3\n      swap2\n      swap1\n      dup2\n      dup2\n      mstore\n      0x20\n      add\n      dup3\n      dup1\n      sload\n      tag_96\n      swap1\n      tag_95\n      jump\t// in\n    tag_96:\n      dup1\n      iszero\n      tag_97\n      jumpi\n      dup1\n      0x1f\n      lt\n      tag_98\n      jumpi\n      0x0100\n      dup1\n      dup4\n      sload\n      div\n      mul\n      dup4\n      mstore\n      swap2\n      0x20\n      add\n      swap2\n      jump(tag_97)\n    tag_98:\n      dup3\n      add\n      swap2\n      swap1\n      0x00\n      mstore\n      keccak256(0x00, 0x20)\n      swap1\n    tag_99:\n      dup2\n      sload\n      dup2\n      mstore\n      swap1\n      0x01\n      add\n      swap1\n      0x20\n      add\n      dup1\n      dup4\n      gt\n      tag_99\n      jumpi\n      dup3\n      swap1\n      sub\n      0x1f\n      and\n      dup3\n      add\n      swap2\n    tag_97:\n      pop\n      pop\n      pop\n      pop\n      pop\n      swap4\n      pop\n      dup2\n      dup1\n      sload\n      tag_100\n      swap1\n      tag_95\n      jump\t// in\n    tag_100:\n      dup1\n      0x1f\n      add\n      0x20\n      dup1\n      swap2\n      div\n      mul\n      0x20\n      add\n      mload(0x40)\n      swap1\n      dup2\n      add\n      0x40\n      mstore\n      dup1\n      swap3\n      swap2\n      swap1\n      dup2\n      dup2\n      mstore\n      0x20\n      add\n      dup3\n      dup1\n      sload\n      tag_101\n      swap1\n      tag_95\n      jump\t// in\n    tag_101:\n      dup1\n      iszero\n      tag_102\n      jumpi\n      dup1\n      0x1f\n      lt\n      tag_103\n      jumpi\n      0x0100\n      dup1\n      dup4\n      sload\n      div\n      mul\n      dup4\n      mstore\n      swap2\n      0x20\n      add\n      swap2\n      jump(tag_102)\n    tag_103:\n      dup3\n      add\n      swap2\n      swap1\n      0x00\n      mstore\n      keccak256(0x00, 0x20)\n      swap1\n    tag_104:\n      dup2\n      sload\n      dup2\n      mstore\n      swap1\n      0x01\n      add\n      swap1\n      0x20\n      add\n      dup1\n      dup4\n      gt\n      tag_104\n      jumpi\n      dup3\n      swap1\n      sub\n      0x1f\n      and\n      dup3\n      add\n      swap2\n    tag_102:\n      pop\n      pop\n      pop\n      pop\n      pop\n      swap2\n      pop\n      dup1\n      dup1\n      sload\n      tag_105\n      swap1\n      tag_95\n      jump\t// in\n    tag_105:\n      dup1\n      0x1f\n      add\n      0x20\n      dup1\n      swap2\n      div\n      mul\n      0x20\n      add\n      mload(0x40)\n      swap1\n      dup2\n      add\n      0x40\n      mstore\n      dup1\n      swap3\n      swap2\n      swap1\n      dup2\n      dup2\n      mstore\n      0x20\n      add\n      dup3\n      dup1\n      sload\n      tag_106\n      swap1\n      tag_95\n      jump\t// in\n    tag_106:\n      dup1\n      iszero\n      tag_107\n      jumpi\n      dup1\n      0x1f\n      lt\n      tag_108\n      jumpi\n      0x0100\n      dup1\n      dup4\n      sload\n      div\n      mul\n      dup4\n      mstore\n      swap2\n      0x20\n      add\n      swap2\n      jump(tag_107)\n    tag_108:\n      dup3\n      add\n      swap2\n      swap1\n      0x00\n      mstore\n      keccak256(0x00, 0x20)\n      swap1\n    tag_109:\n      dup2\n      sload\n      dup2\n      mstore\n      swap1\n      0x01\n      add\n      swap1\n      0x20\n      add\n      dup1\n      dup4\n      gt\n      tag_109\n      jumpi\n      dup3\n      swap1\n      sub\n      0x1f\n      and\n      dup3\n      add\n      swap2\n    tag_107:\n      pop\n      pop\n      pop\n      pop\n      pop\n      swap1\n      pop\n      swap5\n      pop\n      swap5\n      pop\n      swap5\n      pop\n      swap5\n      pop\n      pop\n        /* \"pre.sol\":2374:2785  function getPatientData(uint256 patientId) public view returns (string memory, uint, string memory, string memory) {... */\n      swap2\n      swap4\n      pop\n      swap2\n      swap4\n      jump\t// out\n        /* \"@openzeppelin/contracts/access/AccessControl.sol\":2854:2990  function hasRole(bytes32 role, address account) public view virtual returns (bool) {... */\n    tag_47:\n        /* \"@openzeppelin/contracts/access/AccessControl.sol\":2931:2935  bool */\n      0x00\n        /* \"@openzeppelin/contracts/access/AccessControl.sol\":2954:2960  _roles */\n      dup1\n        /* \"@openzeppelin/contracts/access/AccessControl.sol\":2954:2966  _roles[role] */\n      0x00\n        /* \"@openzeppelin/contracts/access/AccessControl.sol\":2961:2965  role */\n      dup5\n        /* \"@openzeppelin/contracts/access/AccessControl.sol\":2954:2966  _roles[role] */\n      dup2\n      mstore\n      0x20\n      add\n      swap1\n      dup2\n      mstore\n      0x20\n      add\n      0x00\n      keccak256\n        /* \"@openzeppelin/contracts/access/AccessControl.sol\":2954:2974  _roles[role].hasRole */\n      0x00\n      add\n        /* \"@openzeppelin/contracts/access/AccessControl.sol\":2954:2983  _roles[role].hasRole[account] */\n      0x00\n        /* \"@openzeppelin/contracts/access/AccessControl.sol\":2975:2982  account */\n      dup4\n        /* \"@openzeppelin/contracts/access/AccessControl.sol\":2954:2983  _roles[role].hasRole[account] */\n      0xffffffffffffffffffffffffffffffffffffffff\n      and\n      0xffffffffffffffffffffffffffffffffffffffff\n      and\n      dup2\n      mstore\n      0x20\n      add\n      swap1\n      dup2\n      mstore\n      0x20\n      add\n      0x00\n      keccak256\n      0x00\n      swap1\n      sload\n      swap1\n      0x0100\n      exp\n      swap1\n      div\n      0xff\n      and\n        /* \"@openzeppelin/contracts/access/AccessControl.sol\":2947:2983  return _roles[role].hasRole[account] */\n      swap1\n      pop\n        /* \"@openzeppelin/contracts/access/AccessControl.sol\":2854:2990  function hasRole(bytes32 role, address account) public view virtual returns (bool) {... */\n      swap3\n      swap2\n      pop\n      pop\n      jump\t// out\n        /* \"@openzeppelin/contracts/access/AccessControl.sol\":2187:2236  bytes32 public constant DEFAULT_ADMIN_ROLE = 0x00 */\n    tag_50:\n        /* \"@openzeppelin/contracts/access/AccessControl.sol\":2232:2236  0x00 */\n      0x00\n        /* \"@openzeppelin/contracts/access/AccessControl.sol\":2187:2236  bytes32 public constant DEFAULT_ADMIN_ROLE = 0x00 */\n      dup1\n      shl\n      dup2\n      jump\t// out\n        /* \"pre.sol\":510:565  mapping(uint256 => PatientRecord) public patientRecords */\n    tag_54:\n      mstore(0x20, 0x01)\n      dup1\n      0x00\n      mstore\n      keccak256(0x00, 0x40)\n      0x00\n      swap2\n      pop\n      swap1\n      pop\n      dup1\n      0x00\n      add\n      dup1\n      sload\n      tag_111\n      swap1\n      tag_95\n      jump\t// in\n    tag_111:\n      dup1\n      0x1f\n      add\n      0x20\n      dup1\n      swap2\n      div\n      mul\n      0x20\n      add\n      mload(0x40)\n      swap1\n      dup2\n      add\n      0x40\n      mstore\n      dup1\n      swap3\n      swap2\n      swap1\n      dup2\n      dup2\n      mstore\n      0x20\n      add\n      dup3\n      dup1\n      sload\n      tag_112\n      swap1\n      tag_95\n      jump\t// in\n    tag_112:\n      dup1\n      iszero\n      tag_113\n      jumpi\n      dup1\n      0x1f\n      lt\n      tag_114\n      jumpi\n      0x0100\n      dup1\n      dup4\n      sload\n      div\n      mul\n      dup4\n      mstore\n      swap2\n      0x20\n      add\n      swap2\n      jump(tag_113)\n    tag_114:\n      dup3\n      add\n      swap2\n      swap1\n      0x00\n      mstore\n      keccak256(0x00, 0x20)\n      swap1\n    tag_115:\n      dup2\n      sload\n      dup2\n      mstore\n      swap1\n      0x01\n      add\n      swap1\n      0x20\n      add\n      dup1\n      dup4\n      gt\n      tag_115\n      jumpi\n      dup3\n      swap1\n      sub\n      0x1f\n      and\n      dup3\n      add\n      swap2\n    tag_113:\n      pop\n      pop\n      pop\n      pop\n      pop\n      swap1\n      dup1\n      0x01\n      add\n      sload\n      swap1\n      dup1\n      0x02\n      add\n      dup1\n      sload\n      tag_116\n      swap1\n      tag_95\n      jump\t// in\n    tag_116:\n      dup1\n      0x1f\n      add\n      0x20\n      dup1\n      swap2\n      div\n      mul\n      0x20\n      add\n      mload(0x40)\n      swap1\n      dup2\n      add\n      0x40\n      mstore\n      dup1\n      swap3\n      swap2\n      swap1\n      dup2\n      dup2\n      mstore\n      0x20\n      add\n      dup3\n      dup1\n      sload\n      tag_117\n      swap1\n      tag_95\n      jump\t// in\n    tag_117:\n      dup1\n      iszero\n      tag_118\n      jumpi\n      dup1\n      0x1f\n      lt\n      tag_119\n      jumpi\n      0x0100\n      dup1\n      dup4\n      sload\n      div\n      mul\n      dup4\n      mstore\n      swap2\n      0x20\n      add\n      swap2\n      jump(tag_118)\n    tag_119:\n      dup3\n      add\n      swap2\n      swap1\n      0x00\n      mstore\n      keccak256(0x00, 0x20)\n      swap1\n    tag_120:\n      dup2\n      sload\n      dup2\n      mstore\n      swap1\n      0x01\n      add\n      swap1\n      0x20\n      add\n      dup1\n      dup4\n      gt\n      tag_120\n      jumpi\n      dup3\n      swap1\n      sub\n      0x1f\n      and\n      dup3\n      add\n      swap2\n    tag_118:\n      pop\n      pop\n      pop\n      pop\n      pop\n      swap1\n      dup1\n      0x03\n      add\n      dup1\n      sload\n      tag_121\n      swap1\n      tag_95\n      jump\t// in\n    tag_121:\n      dup1\n      0x1f\n      add\n      0x20\n      dup1\n      swap2\n      div\n      mul\n      0x20\n      add\n      mload(0x40)\n      swap1\n      dup2\n      add\n      0x40\n      mstore\n      dup1\n      swap3\n      swap2\n      swap1\n      dup2\n      dup2\n      mstore\n      0x20\n      add\n      dup3\n      dup1\n      sload\n      tag_122\n      swap1\n      tag_95\n      jump\t// in\n    tag_122:\n      dup1\n      iszero\n      tag_123\n      jumpi\n      dup1\n      0x1f\n      lt\n      tag_124\n      jumpi\n      0x0100\n      dup1\n      dup4\n      sload\n      div\n      mul\n      dup4\n      mstore\n      swap2\n      0x20\n      add\n      swap2\n      jump(tag_123)\n    tag_124:\n      dup3\n      add\n      swap2\n      swap1\n      0x00\n      mstore\n      keccak256(0x00, 0x20)\n      swap1\n    tag_125:\n      dup2\n      sload\n      dup2\n      mstore\n      swap1\n      0x01\n      add\n      swap1\n      0x20\n      add\n      dup1\n      dup4\n      gt\n      tag_125\n      jumpi\n      dup3\n      swap1\n      sub\n      0x1f\n      and\n      dup3\n      add\n      swap2\n    tag_123:\n      pop\n      pop\n      pop\n      pop\n      pop\n      swap1\n      dup1\n      0x05\n      add\n      0x00\n      swap1\n      sload\n      swap1\n      0x0100\n      exp\n      swap1\n      div\n      0xffffffffffffffffffffffffffffffffffffffff\n      and\n      swap1\n      dup1\n      0x06\n      add\n      sload\n      swap1\n      pop\n      dup7\n      jump\t// out\n        /* \"@openzeppelin/contracts/access/AccessControl.sol\":4642:4780  function revokeRole(bytes32 role, address account) public virtual onlyRole(getRoleAdmin(role)) {... */\n    tag_59:\n        /* \"@openzeppelin/contracts/access/AccessControl.sol\":4717:4735  getRoleAdmin(role) */\n      tag_126\n        /* \"@openzeppelin/contracts/access/AccessControl.sol\":4730:4734  role */\n      dup3\n        /* \"@openzeppelin/contracts/access/AccessControl.sol\":4717:4729  getRoleAdmin */\n      tag_29\n        /* \"@openzeppelin/contracts/access/AccessControl.sol\":4717:4735  getRoleAdmin(role) */\n      jump\t// in\n    tag_126:\n        /* \"@openzeppelin/contracts/access/AccessControl.sol\":2464:2480  _checkRole(role) */\n      tag_128\n        /* \"@openzeppelin/contracts/access/AccessControl.sol\":2475:2479  role */\n      dup2\n        /* \"@openzeppelin/contracts/access/AccessControl.sol\":2464:2474  _checkRole */\n      tag_79\n        /* \"@openzeppelin/contracts/access/AccessControl.sol\":2464:2480  _checkRole(role) */\n      jump\t// in\n    tag_128:\n        /* \"@openzeppelin/contracts/access/AccessControl.sol\":4747:4773  _revokeRole(role, account) */\n      tag_130\n        /* \"@openzeppelin/contracts/access/AccessControl.sol\":4759:4763  role */\n      dup4\n        /* \"@openzeppelin/contracts/access/AccessControl.sol\":4765:4772  account */\n      dup4\n        /* \"@openzeppelin/contracts/access/AccessControl.sol\":4747:4758  _revokeRole */\n      tag_88\n        /* \"@openzeppelin/contracts/access/AccessControl.sol\":4747:4773  _revokeRole(role, account) */\n      jump\t// in\n    tag_130:\n      pop\n        /* \"@openzeppelin/contracts/access/AccessControl.sol\":4642:4780  function revokeRole(bytes32 role, address account) public virtual onlyRole(getRoleAdmin(role)) {... */\n      pop\n      pop\n      pop\n      jump\t// out\n        /* \"pre.sol\":2021:2303  function revokeAccess(uint256 patientId, address user) public {... */\n    tag_62:\n        /* \"pre.sol\":2136:2146  msg.sender */\n      caller\n        /* \"pre.sol\":2101:2146  patientRecords[patientId].owner == msg.sender */\n      0xffffffffffffffffffffffffffffffffffffffff\n      and\n        /* \"pre.sol\":2101:2115  patientRecords */\n      0x01\n        /* \"pre.sol\":2101:2126  patientRecords[patientId] */\n      0x00\n        /* \"pre.sol\":2116:2125  patientId */\n      dup5\n        /* \"pre.sol\":2101:2126  patientRecords[patientId] */\n      dup2\n      mstore\n      0x20\n      add\n      swap1\n      dup2\n      mstore\n      0x20\n      add\n      0x00\n      keccak256\n        /* \"pre.sol\":2101:2132  patientRecords[patientId].owner */\n      0x05\n      add\n      0x00\n      swap1\n      sload\n      swap1\n      0x0100\n      exp\n      swap1\n      div\n      0xffffffffffffffffffffffffffffffffffffffff\n      and\n        /* \"pre.sol\":2101:2146  patientRecords[patientId].owner == msg.sender */\n      0xffffffffffffffffffffffffffffffffffffffff\n      and\n      eq\n        /* \"pre.sol\":2093:2184  require(patientRecords[patientId].owner == msg.sender, \"Only the owner can revoke access.\") */\n      tag_132\n      jumpi\n      mload(0x40)\n      0x08c379a000000000000000000000000000000000000000000000000000000000\n      dup2\n      mstore\n      0x04\n      add\n      tag_133\n      swap1\n      tag_134\n      jump\t// in\n    tag_133:\n      mload(0x40)\n      dup1\n      swap2\n      sub\n      swap1\n      revert\n    tag_132:\n        /* \"pre.sol\":2246:2251  false */\n      0x00\n        /* \"pre.sol\":2194:2208  patientRecords */\n      0x01\n        /* \"pre.sol\":2194:2219  patientRecords[patientId] */\n      0x00\n        /* \"pre.sol\":2209:2218  patientId */\n      dup5\n        /* \"pre.sol\":2194:2219  patientRecords[patientId] */\n      dup2\n      mstore\n      0x20\n      add\n      swap1\n      dup2\n      mstore\n      0x20\n      add\n      0x00\n      keccak256\n        /* \"pre.sol\":2194:2237  patientRecords[patientId].accessPermissions */\n      0x04\n      add\n        /* \"pre.sol\":2194:2243  patientRecords[patientId].accessPermissions[user] */\n      0x00\n        /* \"pre.sol\":2238:2242  user */\n      dup4\n        /* \"pre.sol\":2194:2243  patientRecords[patientId].accessPermissions[user] */\n      0xffffffffffffffffffffffffffffffffffffffff\n      and\n      0xffffffffffffffffffffffffffffffffffffffff\n      and\n      dup2\n      mstore\n      0x20\n      add\n      swap1\n      dup2\n      mstore\n      0x20\n      add\n      0x00\n      keccak256\n      0x00\n        /* \"pre.sol\":2194:2251  patientRecords[patientId].accessPermissions[user] = false */\n      0x0100\n      exp\n      dup2\n      sload\n      dup2\n      0xff\n      mul\n      not\n      and\n      swap1\n      dup4\n      iszero\n      iszero\n      mul\n      or\n      swap1\n      sstore\n      pop\n        /* \"pre.sol\":2291:2295  user */\n      dup1\n        /* \"pre.sol\":2266:2296  AccessRevoked(patientId, user) */\n      0xffffffffffffffffffffffffffffffffffffffff\n      and\n        /* \"pre.sol\":2280:2289  patientId */\n      dup3\n        /* \"pre.sol\":2266:2296  AccessRevoked(patientId, user) */\n      0x125883b94692baebecad9f111ed97ffa626523bbbadc6b0ef85ee1b56b9e52d5\n      mload(0x40)\n      mload(0x40)\n      dup1\n      swap2\n      sub\n      swap1\n      log3\n        /* \"pre.sol\":2021:2303  function revokeAccess(uint256 patientId, address user) public {... */\n      pop\n      pop\n      jump\t// out\n        /* \"pre.sol\":910:1560  function setPatientData(uint256 patientId, string memory name, uint age, string memory condition, string memory encryptedData, bytes32 dataHash) public {... */\n    tag_66:\n        /* \"pre.sol\":1086:1087  0 */\n      0x00\n        /* \"pre.sol\":1080:1083  age */\n      dup5\n        /* \"pre.sol\":1080:1087  age > 0 */\n      gt\n        /* \"pre.sol\":1072:1112  require(age > 0, \"Age must be positive\") */\n      tag_136\n      jumpi\n      mload(0x40)\n      0x08c379a000000000000000000000000000000000000000000000000000000000\n      dup2\n      mstore\n      0x04\n      add\n      tag_137\n      swap1\n      tag_138\n      jump\t// in\n    tag_137:\n      mload(0x40)\n      dup1\n      swap2\n      sub\n      swap1\n      revert\n    tag_136:\n        /* \"pre.sol\":1151:1179  PatientRecord storage record */\n      0x00\n        /* \"pre.sol\":1182:1196  patientRecords */\n      0x01\n        /* \"pre.sol\":1182:1207  patientRecords[patientId] */\n      0x00\n        /* \"pre.sol\":1197:1206  patientId */\n      dup9\n        /* \"pre.sol\":1182:1207  patientRecords[patientId] */\n      dup2\n      mstore\n      0x20\n      add\n      swap1\n      dup2\n      mstore\n      0x20\n      add\n      0x00\n      keccak256\n        /* \"pre.sol\":1151:1207  PatientRecord storage record = patientRecords[patientId] */\n      swap1\n      pop\n        /* \"pre.sol\":1231:1235  name */\n      dup6\n        /* \"pre.sol\":1217:1223  record */\n      dup2\n        /* \"pre.sol\":1217:1228  record.name */\n      0x00\n      add\n        /* \"pre.sol\":1217:1235  record.name = name */\n      swap1\n      dup2\n      tag_139\n      swap2\n      swap1\n      tag_140\n      jump\t// in\n    tag_139:\n      pop\n        /* \"pre.sol\":1258:1261  age */\n      dup5\n        /* \"pre.sol\":1245:1251  record */\n      dup2\n        /* \"pre.sol\":1245:1255  record.age */\n      0x01\n      add\n        /* \"pre.sol\":1245:1261  record.age = age */\n      dup2\n      swap1\n      sstore\n      pop\n        /* \"pre.sol\":1290:1299  condition */\n      dup4\n        /* \"pre.sol\":1271:1277  record */\n      dup2\n        /* \"pre.sol\":1271:1287  record.condition */\n      0x02\n      add\n        /* \"pre.sol\":1271:1299  record.condition = condition */\n      swap1\n      dup2\n      tag_141\n      swap2\n      swap1\n      tag_140\n      jump\t// in\n    tag_141:\n      pop\n        /* \"pre.sol\":1332:1345  encryptedData */\n      dup3\n        /* \"pre.sol\":1309:1315  record */\n      dup2\n        /* \"pre.sol\":1309:1329  record.encryptedData */\n      0x03\n      add\n        /* \"pre.sol\":1309:1345  record.encryptedData = encryptedData */\n      swap1\n      dup2\n      tag_142\n      swap2\n      swap1\n      tag_140\n      jump\t// in\n    tag_142:\n      pop\n        /* \"pre.sol\":1373:1381  dataHash */\n      dup2\n        /* \"pre.sol\":1355:1361  record */\n      dup2\n        /* \"pre.sol\":1355:1370  record.dataHash */\n      0x06\n      add\n        /* \"pre.sol\":1355:1381  record.dataHash = dataHash */\n      dup2\n      swap1\n      sstore\n      pop\n        /* \"pre.sol\":1406:1416  msg.sender */\n      caller\n        /* \"pre.sol\":1391:1397  record */\n      dup2\n        /* \"pre.sol\":1391:1403  record.owner */\n      0x05\n      add\n      0x00\n        /* \"pre.sol\":1391:1416  record.owner = msg.sender */\n      0x0100\n      exp\n      dup2\n      sload\n      dup2\n      0xffffffffffffffffffffffffffffffffffffffff\n      mul\n      not\n      and\n      swap1\n      dup4\n      0xffffffffffffffffffffffffffffffffffffffff\n      and\n      mul\n      or\n      swap1\n      sstore\n      pop\n        /* \"pre.sol\":1465:1469  true */\n      0x01\n        /* \"pre.sol\":1426:1432  record */\n      dup2\n        /* \"pre.sol\":1426:1450  record.accessPermissions */\n      0x04\n      add\n        /* \"pre.sol\":1426:1462  record.accessPermissions[msg.sender] */\n      0x00\n        /* \"pre.sol\":1451:1461  msg.sender */\n      caller\n        /* \"pre.sol\":1426:1462  record.accessPermissions[msg.sender] */\n      0xffffffffffffffffffffffffffffffffffffffff\n      and\n      0xffffffffffffffffffffffffffffffffffffffff\n      and\n      dup2\n      mstore\n      0x20\n      add\n      swap1\n      dup2\n      mstore\n      0x20\n      add\n      0x00\n      keccak256\n      0x00\n        /* \"pre.sol\":1426:1469  record.accessPermissions[msg.sender] = true */\n      0x0100\n      exp\n      dup2\n      sload\n      dup2\n      0xff\n      mul\n      not\n      and\n      swap1\n      dup4\n      iszero\n      iszero\n      mul\n      or\n      swap1\n      sstore\n      pop\n        /* \"pre.sol\":1543:1552  patientId */\n      dup7\n        /* \"pre.sol\":1531:1553  DataUpdated(patientId) */\n      0x7f7c53560eed5d6aab9db16abd65f6a8b3ed69d910c5e8e8842215596ffc6d78\n      mload(0x40)\n      mload(0x40)\n      dup1\n      swap2\n      sub\n      swap1\n      log2\n        /* \"pre.sol\":1062:1560  {... */\n      pop\n        /* \"pre.sol\":910:1560  function setPatientData(uint256 patientId, string memory name, uint age, string memory condition, string memory encryptedData, bytes32 dataHash) public {... */\n      pop\n      pop\n      pop\n      pop\n      pop\n      pop\n      jump\t// out\n        /* \"@openzeppelin/contracts/utils/introspection/ERC165.sol\":762:908  function supportsInterface(bytes4 interfaceId) public view virtual returns (bool) {... */\n    tag_70:\n        /* \"@openzeppelin/contracts/utils/introspection/ERC165.sol\":838:842  bool */\n      0x00\n        /* \"@openzeppelin/contracts/utils/introspection/ERC165.sol\":876:901  type(IERC165).interfaceId */\n      0x01ffc9a700000000000000000000000000000000000000000000000000000000\n        /* \"@openzeppelin/contracts/utils/introspection/ERC165.sol\":861:901  interfaceId == type(IERC165).interfaceId */\n      not(0xffffffffffffffffffffffffffffffffffffffffffffffffffffffff)\n      and\n        /* \"@openzeppelin/contracts/utils/introspection/ERC165.sol\":861:872  interfaceId */\n      dup3\n        /* \"@openzeppelin/contracts/utils/introspection/ERC165.sol\":861:901  interfaceId == type(IERC165).interfaceId */\n      not(0xffffffffffffffffffffffffffffffffffffffffffffffffffffffff)\n      and\n      eq\n        /* \"@openzeppelin/contracts/utils/introspection/ERC165.sol\":854:901  return interfaceId == type(IERC165).interfaceId */\n      swap1\n      pop\n        /* \"@openzeppelin/contracts/utils/introspection/ERC165.sol\":762:908  function supportsInterface(bytes4 interfaceId) public view virtual returns (bool) {... */\n      swap2\n      swap1\n      pop\n      jump\t// out\n        /* \"@openzeppelin/contracts/access/AccessControl.sol\":3199:3302  function _checkRole(bytes32 role) internal view virtual {... */\n    tag_79:\n        /* \"@openzeppelin/contracts/access/AccessControl.sol\":3265:3295  _checkRole(role, _msgSender()) */\n      tag_145\n        /* \"@openzeppelin/contracts/access/AccessControl.sol\":3276:3280  role */\n      dup2\n        /* \"@openzeppelin/contracts/access/AccessControl.sol\":3282:3294  _msgSender() */\n      tag_146\n        /* \"@openzeppelin/contracts/access/AccessControl.sol\":3282:3292  _msgSender */\n      tag_85\n        /* \"@openzeppelin/contracts/access/AccessControl.sol\":3282:3294  _msgSender() */\n      jump\t// in\n    tag_146:\n        /* \"@openzeppelin/contracts/access/AccessControl.sol\":3265:3275  _checkRole */\n      tag_147\n        /* \"@openzeppelin/contracts/access/AccessControl.sol\":3265:3295  _checkRole(role, _msgSender()) */\n      jump\t// in\n    tag_145:\n        /* \"@openzeppelin/contracts/access/AccessControl.sol\":3199:3302  function _checkRole(bytes32 role) internal view virtual {... */\n      pop\n      jump\t// out\n        /* \"@openzeppelin/contracts/access/AccessControl.sol\":6179:6495  function _grantRole(bytes32 role, address account) internal virtual returns (bool) {... */\n    tag_82:\n        /* \"@openzeppelin/contracts/access/AccessControl.sol\":6256:6260  bool */\n      0x00\n        /* \"@openzeppelin/contracts/access/AccessControl.sol\":6277:6299  hasRole(role, account) */\n      tag_149\n        /* \"@openzeppelin/contracts/access/AccessControl.sol\":6285:6289  role */\n      dup4\n        /* \"@openzeppelin/contracts/access/AccessControl.sol\":6291:6298  account */\n      dup4\n        /* \"@openzeppelin/contracts/access/AccessControl.sol\":6277:6284  hasRole */\n      tag_47\n        /* \"@openzeppelin/contracts/access/AccessControl.sol\":6277:6299  hasRole(role, account) */\n      jump\t// in\n    tag_149:\n        /* \"@openzeppelin/contracts/access/AccessControl.sol\":6272:6489  if (!hasRole(role, account)) {... */\n      tag_150\n      jumpi\n        /* \"@openzeppelin/contracts/access/AccessControl.sol\":6347:6351  true */\n      0x01\n        /* \"@openzeppelin/contracts/access/AccessControl.sol\":6315:6321  _roles */\n      0x00\n        /* \"@openzeppelin/contracts/access/AccessControl.sol\":6315:6327  _roles[role] */\n      dup1\n        /* \"@openzeppelin/contracts/access/AccessControl.sol\":6322:6326  role */\n      dup6\n        /* \"@openzeppelin/contracts/access/AccessControl.sol\":6315:6327  _roles[role] */\n      dup2\n      mstore\n      0x20\n      add\n      swap1\n      dup2\n      mstore\n      0x20\n      add\n      0x00\n      keccak256\n        /* \"@openzeppelin/contracts/access/AccessControl.sol\":6315:6335  _roles[role].hasRole */\n      0x00\n      add\n        /* \"@openzeppelin/contracts/access/AccessControl.sol\":6315:6344  _roles[role].hasRole[account] */\n      0x00\n        /* \"@openzeppelin/contracts/access/AccessControl.sol\":6336:6343  account */\n      dup5\n        /* \"@openzeppelin/contracts/access/AccessControl.sol\":6315:6344  _roles[role].hasRole[account] */\n      0xffffffffffffffffffffffffffffffffffffffff\n      and\n      0xffffffffffffffffffffffffffffffffffffffff\n      and\n      dup2\n      mstore\n      0x20\n      add\n      swap1\n      dup2\n      mstore\n      0x20\n      add\n      0x00\n      keccak256\n      0x00\n        /* \"@openzeppelin/contracts/access/AccessControl.sol\":6315:6351  _roles[role].hasRole[account] = true */\n      0x0100\n      exp\n      dup2\n      sload\n      dup2\n      0xff\n      mul\n      not\n      and\n      swap1\n      dup4\n      iszero\n      iszero\n      mul\n      or\n      swap1\n      sstore\n      pop\n        /* \"@openzeppelin/contracts/access/AccessControl.sol\":6397:6409  _msgSender() */\n      tag_151\n        /* \"@openzeppelin/contracts/access/AccessControl.sol\":6397:6407  _msgSender */\n      tag_85\n        /* \"@openzeppelin/contracts/access/AccessControl.sol\":6397:6409  _msgSender() */\n      jump\t// in\n    tag_151:\n        /* \"@openzeppelin/contracts/access/AccessControl.sol\":6370:6410  RoleGranted(role, account, _msgSender()) */\n      0xffffffffffffffffffffffffffffffffffffffff\n      and\n        /* \"@openzeppelin/contracts/access/AccessControl.sol\":6388:6395  account */\n      dup3\n        /* \"@openzeppelin/contracts/access/AccessControl.sol\":6370:6410  RoleGranted(role, account, _msgSender()) */\n      0xffffffffffffffffffffffffffffffffffffffff\n      and\n        /* \"@openzeppelin/contracts/access/AccessControl.sol\":6382:6386  role */\n      dup5\n        /* \"@openzeppelin/contracts/access/AccessControl.sol\":6370:6410  RoleGranted(role, account, _msgSender()) */\n      0x2f8788117e7eff1d82e926ec794901d17c78024a50270940304540a733656f0d\n      mload(0x40)\n      mload(0x40)\n      dup1\n      swap2\n      sub\n      swap1\n      log4\n        /* \"@openzeppelin/contracts/access/AccessControl.sol\":6431:6435  true */\n      0x01\n        /* \"@openzeppelin/contracts/access/AccessControl.sol\":6424:6435  return true */\n      swap1\n      pop\n      jump(tag_148)\n        /* \"@openzeppelin/contracts/access/AccessControl.sol\":6272:6489  if (!hasRole(role, account)) {... */\n    tag_150:\n        /* \"@openzeppelin/contracts/access/AccessControl.sol\":6473:6478  false */\n      0x00\n        /* \"@openzeppelin/contracts/access/AccessControl.sol\":6466:6478  return false */\n      swap1\n      pop\n        /* \"@openzeppelin/contracts/access/AccessControl.sol\":6179:6495  function _grantRole(bytes32 role, address account) internal virtual returns (bool) {... */\n    tag_148:\n      swap3\n      swap2\n      pop\n      pop\n      jump\t// out\n        /* \"@openzeppelin/contracts/utils/Context.sol\":656:752  function _msgSender() internal view virtual returns (address) {... */\n    tag_85:\n        /* \"@openzeppelin/contracts/utils/Context.sol\":709:716  address */\n      0x00\n        /* \"@openzeppelin/contracts/utils/Context.sol\":735:745  msg.sender */\n      caller\n        /* \"@openzeppelin/contracts/utils/Context.sol\":728:745  return msg.sender */\n      swap1\n      pop\n        /* \"@openzeppelin/contracts/utils/Context.sol\":656:752  function _msgSender() internal view virtual returns (address) {... */\n      swap1\n      jump\t// out\n        /* \"@openzeppelin/contracts/access/AccessControl.sol\":6730:7047  function _revokeRole(bytes32 role, address account) internal virtual returns (bool) {... */\n    tag_88:\n        /* \"@openzeppelin/contracts/access/AccessControl.sol\":6808:6812  bool */\n      0x00\n        /* \"@openzeppelin/contracts/access/AccessControl.sol\":6828:6850  hasRole(role, account) */\n      tag_155\n        /* \"@openzeppelin/contracts/access/AccessControl.sol\":6836:6840  role */\n      dup4\n        /* \"@openzeppelin/contracts/access/AccessControl.sol\":6842:6849  account */\n      dup4\n        /* \"@openzeppelin/contracts/access/AccessControl.sol\":6828:6835  hasRole */\n      tag_47\n        /* \"@openzeppelin/contracts/access/AccessControl.sol\":6828:6850  hasRole(role, account) */\n      jump\t// in\n    tag_155:\n        /* \"@openzeppelin/contracts/access/AccessControl.sol\":6824:7041  if (hasRole(role, account)) {... */\n      iszero\n      tag_156\n      jumpi\n        /* \"@openzeppelin/contracts/access/AccessControl.sol\":6898:6903  false */\n      0x00\n        /* \"@openzeppelin/contracts/access/AccessControl.sol\":6866:6872  _roles */\n      dup1\n        /* \"@openzeppelin/contracts/access/AccessControl.sol\":6866:6878  _roles[role] */\n      0x00\n        /* \"@openzeppelin/contracts/access/AccessControl.sol\":6873:6877  role */\n      dup6\n        /* \"@openzeppelin/contracts/access/AccessControl.sol\":6866:6878  _roles[role] */\n      dup2\n      mstore\n      0x20\n      add\n      swap1\n      dup2\n      mstore\n      0x20\n      add\n      0x00\n      keccak256\n        /* \"@openzeppelin/contracts/access/AccessControl.sol\":6866:6886  _roles[role].hasRole */\n      0x00\n      add\n        /* \"@openzeppelin/contracts/access/AccessControl.sol\":6866:6895  _roles[role].hasRole[account] */\n      0x00\n        /* \"@openzeppelin/contracts/access/AccessControl.sol\":6887:6894  account */\n      dup5\n        /* \"@openzeppelin/contracts/access/AccessControl.sol\":6866:6895  _roles[role].hasRole[account] */\n      0xffffffffffffffffffffffffffffffffffffffff\n      and\n      0xffffffffffffffffffffffffffffffffffffffff\n      and\n      dup2\n      mstore\n      0x20\n      add\n      swap1\n      dup2\n      mstore\n      0x20\n      add\n      0x00\n      keccak256\n      0x00\n        /* \"@openzeppelin/contracts/access/AccessControl.sol\":6866:6903  _roles[role].hasRole[account] = false */\n      0x0100\n      exp\n      dup2\n      sload\n      dup2\n      0xff\n      mul\n      not\n      and\n      swap1\n      dup4\n      iszero\n      iszero\n      mul\n      or\n      swap1\n      sstore\n      pop\n        /* \"@openzeppelin/contracts/access/AccessControl.sol\":6949:6961  _msgSender() */\n      tag_157\n        /* \"@openzeppelin/contracts/access/AccessControl.sol\":6949:6959  _msgSender */\n      tag_85\n        /* \"@openzeppelin/contracts/access/AccessControl.sol\":6949:6961  _msgSender() */\n      jump\t// in\n    tag_157:\n        /* \"@openzeppelin/contracts/access/AccessControl.sol\":6922:6962  RoleRevoked(role, account, _msgSender()) */\n      0xffffffffffffffffffffffffffffffffffffffff\n      and\n        /* \"@openzeppelin/contracts/access/AccessControl.sol\":6940:6947  account */\n      dup3\n        /* \"@openzeppelin/contracts/access/AccessControl.sol\":6922:6962  RoleRevoked(role, account, _msgSender()) */\n      0xffffffffffffffffffffffffffffffffffffffff\n      and\n        /* \"@openzeppelin/contracts/access/AccessControl.sol\":6934:6938  role */\n      dup5\n        /* \"@openzeppelin/contracts/access/AccessControl.sol\":6922:6962  RoleRevoked(role, account, _msgSender()) */\n      0xf6391f5c32d9c69d2a47ea670b442974b53935d1edc7fd64eb21e047a839171b\n      mload(0x40)\n      mload(0x40)\n      dup1\n      swap2\n      sub\n      swap1\n      log4\n        /* \"@openzeppelin/contracts/access/AccessControl.sol\":6983:6987  true */\n      0x01\n        /* \"@openzeppelin/contracts/access/AccessControl.sol\":6976:6987  return true */\n      swap1\n      pop\n      jump(tag_154)\n        /* \"@openzeppelin/contracts/access/AccessControl.sol\":6824:7041  if (hasRole(role, account)) {... */\n    tag_156:\n        /* \"@openzeppelin/contracts/access/AccessControl.sol\":7025:7030  false */\n      0x00\n        /* \"@openzeppelin/contracts/access/AccessControl.sol\":7018:7030  return false */\n      swap1\n      pop\n        /* \"@openzeppelin/contracts/access/AccessControl.sol\":6730:7047  function _revokeRole(bytes32 role, address account) internal virtual returns (bool) {... */\n    tag_154:\n      swap3\n      swap2\n      pop\n      pop\n      jump\t// out\n        /* \"@openzeppelin/contracts/access/AccessControl.sol\":3432:3629  function _checkRole(bytes32 role, address account) internal view virtual {... */\n    tag_147:\n        /* \"@openzeppelin/contracts/access/AccessControl.sol\":3520:3542  hasRole(role, account) */\n      tag_160\n        /* \"@openzeppelin/contracts/access/AccessControl.sol\":3528:3532  role */\n      dup3\n        /* \"@openzeppelin/contracts/access/AccessControl.sol\":3534:3541  account */\n      dup3\n        /* \"@openzeppelin/contracts/access/AccessControl.sol\":3520:3527  hasRole */\n      tag_47\n        /* \"@openzeppelin/contracts/access/AccessControl.sol\":3520:3542  hasRole(role, account) */\n      jump\t// in\n    tag_160:\n        /* \"@openzeppelin/contracts/access/AccessControl.sol\":3515:3623  if (!hasRole(role, account)) {... */\n      tag_161\n      jumpi\n        /* \"@openzeppelin/contracts/access/AccessControl.sol\":3598:3605  account */\n      dup1\n        /* \"@openzeppelin/contracts/access/AccessControl.sol\":3607:3611  role */\n      dup3\n        /* \"@openzeppelin/contracts/access/AccessControl.sol\":3565:3612  AccessControlUnauthorizedAccount(account, role) */\n      mload(0x40)\n      0xe2517d3f00000000000000000000000000000000000000000000000000000000\n      dup2\n      mstore\n      0x04\n      add\n      tag_162\n      swap3\n      swap2\n      swap1\n      tag_163\n      jump\t// in\n    tag_162:\n      mload(0x40)\n      dup1\n      swap2\n      sub\n      swap1\n      revert\n        /* \"@openzeppelin/contracts/access/AccessControl.sol\":3515:3623  if (!hasRole(role, account)) {... */\n    tag_161:\n        /* \"@openzeppelin/contracts/access/AccessControl.sol\":3432:3629  function _checkRole(bytes32 role, address account) internal view virtual {... */\n      pop\n      pop\n      jump\t// out\n        /* \"#utility.yul\":7:82   */\n    tag_164:\n        /* \"#utility.yul\":40:46   */\n      0x00\n        /* \"#utility.yul\":73:75   */\n      0x40\n        /* \"#utility.yul\":67:76   */\n      mload\n        /* \"#utility.yul\":57:76   */\n      swap1\n      pop\n        /* \"#utility.yul\":7:82   */\n      swap1\n      jump\t// out\n        /* \"#utility.yul\":88:205   */\n    tag_165:\n        /* \"#utility.yul\":197:198   */\n      0x00\n        /* \"#utility.yul\":194:195   */\n      dup1\n        /* \"#utility.yul\":187:199   */\n      revert\n        /* \"#utility.yul\":211:328   */\n    tag_166:\n        /* \"#utility.yul\":320:321   */\n      0x00\n        /* \"#utility.yul\":317:318   */\n      dup1\n        /* \"#utility.yul\":310:322   */\n      revert\n        /* \"#utility.yul\":334:483   */\n    tag_167:\n        /* \"#utility.yul\":370:377   */\n      0x00\n        /* \"#utility.yul\":410:476   */\n      0xffffffff00000000000000000000000000000000000000000000000000000000\n        /* \"#utility.yul\":403:408   */\n      dup3\n        /* \"#utility.yul\":399:477   */\n      and\n        /* \"#utility.yul\":388:477   */\n      swap1\n      pop\n        /* \"#utility.yul\":334:483   */\n      swap2\n      swap1\n      pop\n      jump\t// out\n        /* \"#utility.yul\":489:609   */\n    tag_168:\n        /* \"#utility.yul\":561:584   */\n      tag_229\n        /* \"#utility.yul\":578:583   */\n      dup2\n        /* \"#utility.yul\":561:584   */\n      tag_167\n      jump\t// in\n    tag_229:\n        /* \"#utility.yul\":554:559   */\n      dup2\n        /* \"#utility.yul\":551:585   */\n      eq\n        /* \"#utility.yul\":541:603   */\n      tag_230\n      jumpi\n        /* \"#utility.yul\":599:600   */\n      0x00\n        /* \"#utility.yul\":596:597   */\n      dup1\n        /* \"#utility.yul\":589:601   */\n      revert\n        /* \"#utility.yul\":541:603   */\n    tag_230:\n        /* \"#utility.yul\":489:609   */\n      pop\n      jump\t// out\n        /* \"#utility.yul\":615:752   */\n    tag_169:\n        /* \"#utility.yul\":660:665   */\n      0x00\n        /* \"#utility.yul\":698:704   */\n      dup2\n        /* \"#utility.yul\":685:705   */\n      calldataload\n        /* \"#utility.yul\":676:705   */\n      swap1\n      pop\n        /* \"#utility.yul\":714:746   */\n      tag_232\n        /* \"#utility.yul\":740:745   */\n      dup2\n        /* \"#utility.yul\":714:746   */\n      tag_168\n      jump\t// in\n    tag_232:\n        /* \"#utility.yul\":615:752   */\n      swap3\n      swap2\n      pop\n      pop\n      jump\t// out\n        /* \"#utility.yul\":758:1085   */\n    tag_18:\n        /* \"#utility.yul\":816:822   */\n      0x00\n        /* \"#utility.yul\":865:867   */\n      0x20\n        /* \"#utility.yul\":853:862   */\n      dup3\n        /* \"#utility.yul\":844:851   */\n      dup5\n        /* \"#utility.yul\":840:863   */\n      sub\n        /* \"#utility.yul\":836:868   */\n      slt\n        /* \"#utility.yul\":833:952   */\n      iszero\n      tag_234\n      jumpi\n        /* \"#utility.yul\":871:950   */\n      tag_235\n      tag_165\n      jump\t// in\n    tag_235:\n        /* \"#utility.yul\":833:952   */\n    tag_234:\n        /* \"#utility.yul\":991:992   */\n      0x00\n        /* \"#utility.yul\":1016:1068   */\n      tag_236\n        /* \"#utility.yul\":1060:1067   */\n      dup5\n        /* \"#utility.yul\":1051:1057   */\n      dup3\n        /* \"#utility.yul\":1040:1049   */\n      dup6\n        /* \"#utility.yul\":1036:1058   */\n      add\n        /* \"#utility.yul\":1016:1068   */\n      tag_169\n      jump\t// in\n    tag_236:\n        /* \"#utility.yul\":1006:1068   */\n      swap2\n      pop\n        /* \"#utility.yul\":962:1078   */\n      pop\n        /* \"#utility.yul\":758:1085   */\n      swap3\n      swap2\n      pop\n      pop\n      jump\t// out\n        /* \"#utility.yul\":1091:1181   */\n    tag_170:\n        /* \"#utility.yul\":1125:1132   */\n      0x00\n        /* \"#utility.yul\":1168:1173   */\n      dup2\n        /* \"#utility.yul\":1161:1174   */\n      iszero\n        /* \"#utility.yul\":1154:1175   */\n      iszero\n        /* \"#utility.yul\":1143:1175   */\n      swap1\n      pop\n        /* \"#utility.yul\":1091:1181   */\n      swap2\n      swap1\n      pop\n      jump\t// out\n        /* \"#utility.yul\":1187:1296   */\n    tag_171:\n        /* \"#utility.yul\":1268:1289   */\n      tag_239\n        /* \"#utility.yul\":1283:1288   */\n      dup2\n        /* \"#utility.yul\":1268:1289   */\n      tag_170\n      jump\t// in\n    tag_239:\n        /* \"#utility.yul\":1263:1266   */\n      dup3\n        /* \"#utility.yul\":1256:1290   */\n      mstore\n        /* \"#utility.yul\":1187:1296   */\n      pop\n      pop\n      jump\t// out\n        /* \"#utility.yul\":1302:1512   */\n    tag_21:\n        /* \"#utility.yul\":1389:1393   */\n      0x00\n        /* \"#utility.yul\":1427:1429   */\n      0x20\n        /* \"#utility.yul\":1416:1425   */\n      dup3\n        /* \"#utility.yul\":1412:1430   */\n      add\n        /* \"#utility.yul\":1404:1430   */\n      swap1\n      pop\n        /* \"#utility.yul\":1440:1505   */\n      tag_241\n        /* \"#utility.yul\":1502:1503   */\n      0x00\n        /* \"#utility.yul\":1491:1500   */\n      dup4\n        /* \"#utility.yul\":1487:1504   */\n      add\n        /* \"#utility.yul\":1478:1484   */\n      dup5\n        /* \"#utility.yul\":1440:1505   */\n      tag_171\n      jump\t// in\n    tag_241:\n        /* \"#utility.yul\":1302:1512   */\n      swap3\n      swap2\n      pop\n      pop\n      jump\t// out\n        /* \"#utility.yul\":1518:1595   */\n    tag_172:\n        /* \"#utility.yul\":1555:1562   */\n      0x00\n        /* \"#utility.yul\":1584:1589   */\n      dup2\n        /* \"#utility.yul\":1573:1589   */\n      swap1\n      pop\n        /* \"#utility.yul\":1518:1595   */\n      swap2\n      swap1\n      pop\n      jump\t// out\n        /* \"#utility.yul\":1601:1723   */\n    tag_173:\n        /* \"#utility.yul\":1674:1698   */\n      tag_244\n        /* \"#utility.yul\":1692:1697   */\n      dup2\n        /* \"#utility.yul\":1674:1698   */\n      tag_172\n      jump\t// in\n    tag_244:\n        /* \"#utility.yul\":1667:1672   */\n      dup2\n        /* \"#utility.yul\":1664:1699   */\n      eq\n        /* \"#utility.yul\":1654:1717   */\n      tag_245\n      jumpi\n        /* \"#utility.yul\":1713:1714   */\n      0x00\n        /* \"#utility.yul\":1710:1711   */\n      dup1\n        /* \"#utility.yul\":1703:1715   */\n      revert\n        /* \"#utility.yul\":1654:1717   */\n    tag_245:\n        /* \"#utility.yul\":1601:1723   */\n      pop\n      jump\t// out\n        /* \"#utility.yul\":1729:1868   */\n    tag_174:\n        /* \"#utility.yul\":1775:1780   */\n      0x00\n        /* \"#utility.yul\":1813:1819   */\n      dup2\n        /* \"#utility.yul\":1800:1820   */\n      calldataload\n        /* \"#utility.yul\":1791:1820   */\n      swap1\n      pop\n        /* \"#utility.yul\":1829:1862   */\n      tag_247\n        /* \"#utility.yul\":1856:1861   */\n      dup2\n        /* \"#utility.yul\":1829:1862   */\n      tag_173\n      jump\t// in\n    tag_247:\n        /* \"#utility.yul\":1729:1868   */\n      swap3\n      swap2\n      pop\n      pop\n      jump\t// out\n        /* \"#utility.yul\":1874:2000   */\n    tag_175:\n        /* \"#utility.yul\":1911:1918   */\n      0x00\n        /* \"#utility.yul\":1951:1993   */\n      0xffffffffffffffffffffffffffffffffffffffff\n        /* \"#utility.yul\":1944:1949   */\n      dup3\n        /* \"#utility.yul\":1940:1994   */\n      and\n        /* \"#utility.yul\":1929:1994   */\n      swap1\n      pop\n        /* \"#utility.yul\":1874:2000   */\n      swap2\n      swap1\n      pop\n      jump\t// out\n        /* \"#utility.yul\":2006:2102   */\n    tag_176:\n        /* \"#utility.yul\":2043:2050   */\n      0x00\n        /* \"#utility.yul\":2072:2096   */\n      tag_250\n        /* \"#utility.yul\":2090:2095   */\n      dup3\n        /* \"#utility.yul\":2072:2096   */\n      tag_175\n      jump\t// in\n    tag_250:\n        /* \"#utility.yul\":2061:2096   */\n      swap1\n      pop\n        /* \"#utility.yul\":2006:2102   */\n      swap2\n      swap1\n      pop\n      jump\t// out\n        /* \"#utility.yul\":2108:2230   */\n    tag_177:\n        /* \"#utility.yul\":2181:2205   */\n      tag_252\n        /* \"#utility.yul\":2199:2204   */\n      dup2\n        /* \"#utility.yul\":2181:2205   */\n      tag_176\n      jump\t// in\n    tag_252:\n        /* \"#utility.yul\":2174:2179   */\n      dup2\n        /* \"#utility.yul\":2171:2206   */\n      eq\n        /* \"#utility.yul\":2161:2224   */\n      tag_253\n      jumpi\n        /* \"#utility.yul\":2220:2221   */\n      0x00\n        /* \"#utility.yul\":2217:2218   */\n      dup1\n        /* \"#utility.yul\":2210:2222   */\n      revert\n        /* \"#utility.yul\":2161:2224   */\n    tag_253:\n        /* \"#utility.yul\":2108:2230   */\n      pop\n      jump\t// out\n        /* \"#utility.yul\":2236:2375   */\n    tag_178:\n        /* \"#utility.yul\":2282:2287   */\n      0x00\n        /* \"#utility.yul\":2320:2326   */\n      dup2\n        /* \"#utility.yul\":2307:2327   */\n      calldataload\n        /* \"#utility.yul\":2298:2327   */\n      swap1\n      pop\n        /* \"#utility.yul\":2336:2369   */\n      tag_255\n        /* \"#utility.yul\":2363:2368   */\n      dup2\n        /* \"#utility.yul\":2336:2369   */\n      tag_177\n      jump\t// in\n    tag_255:\n        /* \"#utility.yul\":2236:2375   */\n      swap3\n      swap2\n      pop\n      pop\n      jump\t// out\n        /* \"#utility.yul\":2381:2855   */\n    tag_24:\n        /* \"#utility.yul\":2449:2455   */\n      0x00\n        /* \"#utility.yul\":2457:2463   */\n      dup1\n        /* \"#utility.yul\":2506:2508   */\n      0x40\n        /* \"#utility.yul\":2494:2503   */\n      dup4\n        /* \"#utility.yul\":2485:2492   */\n      dup6\n        /* \"#utility.yul\":2481:2504   */\n      sub\n        /* \"#utility.yul\":2477:2509   */\n      slt\n        /* \"#utility.yul\":2474:2593   */\n      iszero\n      tag_257\n      jumpi\n        /* \"#utility.yul\":2512:2591   */\n      tag_258\n      tag_165\n      jump\t// in\n    tag_258:\n        /* \"#utility.yul\":2474:2593   */\n    tag_257:\n        /* \"#utility.yul\":2632:2633   */\n      0x00\n        /* \"#utility.yul\":2657:2710   */\n      tag_259\n        /* \"#utility.yul\":2702:2709   */\n      dup6\n        /* \"#utility.yul\":2693:2699   */\n      dup3\n        /* \"#utility.yul\":2682:2691   */\n      dup7\n        /* \"#utility.yul\":2678:2700   */\n      add\n        /* \"#utility.yul\":2657:2710   */\n      tag_174\n      jump\t// in\n    tag_259:\n        /* \"#utility.yul\":2647:2710   */\n      swap3\n      pop\n        /* \"#utility.yul\":2603:2720   */\n      pop\n        /* \"#utility.yul\":2759:2761   */\n      0x20\n        /* \"#utility.yul\":2785:2838   */\n      tag_260\n        /* \"#utility.yul\":2830:2837   */\n      dup6\n        /* \"#utility.yul\":2821:2827   */\n      dup3\n        /* \"#utility.yul\":2810:2819   */\n      dup7\n        /* \"#utility.yul\":2806:2828   */\n      add\n        /* \"#utility.yul\":2785:2838   */\n      tag_178\n      jump\t// in\n    tag_260:\n        /* \"#utility.yul\":2775:2838   */\n      swap2\n      pop\n        /* \"#utility.yul\":2730:2848   */\n      pop\n        /* \"#utility.yul\":2381:2855   */\n      swap3\n      pop\n      swap3\n      swap1\n      pop\n      jump\t// out\n        /* \"#utility.yul\":2861:2938   */\n    tag_179:\n        /* \"#utility.yul\":2898:2905   */\n      0x00\n        /* \"#utility.yul\":2927:2932   */\n      dup2\n        /* \"#utility.yul\":2916:2932   */\n      swap1\n      pop\n        /* \"#utility.yul\":2861:2938   */\n      swap2\n      swap1\n      pop\n      jump\t// out\n        /* \"#utility.yul\":2944:3066   */\n    tag_180:\n        /* \"#utility.yul\":3017:3041   */\n      tag_263\n        /* \"#utility.yul\":3035:3040   */\n      dup2\n        /* \"#utility.yul\":3017:3041   */\n      tag_179\n      jump\t// in\n    tag_263:\n        /* \"#utility.yul\":3010:3015   */\n      dup2\n        /* \"#utility.yul\":3007:3042   */\n      eq\n        /* \"#utility.yul\":2997:3060   */\n      tag_264\n      jumpi\n        /* \"#utility.yul\":3056:3057   */\n      0x00\n        /* \"#utility.yul\":3053:3054   */\n      dup1\n        /* \"#utility.yul\":3046:3058   */\n      revert\n        /* \"#utility.yul\":2997:3060   */\n    tag_264:\n        /* \"#utility.yul\":2944:3066   */\n      pop\n      jump\t// out\n        /* \"#utility.yul\":3072:3211   */\n    tag_181:\n        /* \"#utility.yul\":3118:3123   */\n      0x00\n        /* \"#utility.yul\":3156:3162   */\n      dup2\n        /* \"#utility.yul\":3143:3163   */\n      calldataload\n        /* \"#utility.yul\":3134:3163   */\n      swap1\n      pop\n        /* \"#utility.yul\":3172:3205   */\n      tag_266\n        /* \"#utility.yul\":3199:3204   */\n      dup2\n        /* \"#utility.yul\":3172:3205   */\n      tag_180\n      jump\t// in\n    tag_266:\n        /* \"#utility.yul\":3072:3211   */\n      swap3\n      swap2\n      pop\n      pop\n      jump\t// out\n        /* \"#utility.yul\":3217:3546   */\n    tag_28:\n        /* \"#utility.yul\":3276:3282   */\n      0x00\n        /* \"#utility.yul\":3325:3327   */\n      0x20\n        /* \"#utility.yul\":3313:3322   */\n      dup3\n        /* \"#utility.yul\":3304:3311   */\n      dup5\n        /* \"#utility.yul\":3300:3323   */\n      sub\n        /* \"#utility.yul\":3296:3328   */\n      slt\n        /* \"#utility.yul\":3293:3412   */\n      iszero\n      tag_268\n      jumpi\n        /* \"#utility.yul\":3331:3410   */\n      tag_269\n      tag_165\n      jump\t// in\n    tag_269:\n        /* \"#utility.yul\":3293:3412   */\n    tag_268:\n        /* \"#utility.yul\":3451:3452   */\n      0x00\n        /* \"#utility.yul\":3476:3529   */\n      tag_270\n        /* \"#utility.yul\":3521:3528   */\n      dup5\n        /* \"#utility.yul\":3512:3518   */\n      dup3\n        /* \"#utility.yul\":3501:3510   */\n      dup6\n        /* \"#utility.yul\":3497:3519   */\n      add\n        /* \"#utility.yul\":3476:3529   */\n      tag_181\n      jump\t// in\n    tag_270:\n        /* \"#utility.yul\":3466:3529   */\n      swap2\n      pop\n        /* \"#utility.yul\":3422:3539   */\n      pop\n        /* \"#utility.yul\":3217:3546   */\n      swap3\n      swap2\n      pop\n      pop\n      jump\t// out\n        /* \"#utility.yul\":3552:3670   */\n    tag_182:\n        /* \"#utility.yul\":3639:3663   */\n      tag_272\n        /* \"#utility.yul\":3657:3662   */\n      dup2\n        /* \"#utility.yul\":3639:3663   */\n      tag_179\n      jump\t// in\n    tag_272:\n        /* \"#utility.yul\":3634:3637   */\n      dup3\n        /* \"#utility.yul\":3627:3664   */\n      mstore\n        /* \"#utility.yul\":3552:3670   */\n      pop\n      pop\n      jump\t// out\n        /* \"#utility.yul\":3676:3898   */\n    tag_31:\n        /* \"#utility.yul\":3769:3773   */\n      0x00\n        /* \"#utility.yul\":3807:3809   */\n      0x20\n        /* \"#utility.yul\":3796:3805   */\n      dup3\n        /* \"#utility.yul\":3792:3810   */\n      add\n        /* \"#utility.yul\":3784:3810   */\n      swap1\n      pop\n        /* \"#utility.yul\":3820:3891   */\n      tag_274\n        /* \"#utility.yul\":3888:3889   */\n      0x00\n        /* \"#utility.yul\":3877:3886   */\n      dup4\n        /* \"#utility.yul\":3873:3890   */\n      add\n        /* \"#utility.yul\":3864:3870   */\n      dup5\n        /* \"#utility.yul\":3820:3891   */\n      tag_182\n      jump\t// in\n    tag_274:\n        /* \"#utility.yul\":3676:3898   */\n      swap3\n      swap2\n      pop\n      pop\n      jump\t// out\n        /* \"#utility.yul\":3904:4378   */\n    tag_34:\n        /* \"#utility.yul\":3972:3978   */\n      0x00\n        /* \"#utility.yul\":3980:3986   */\n      dup1\n        /* \"#utility.yul\":4029:4031   */\n      0x40\n        /* \"#utility.yul\":4017:4026   */\n      dup4\n        /* \"#utility.yul\":4008:4015   */\n      dup6\n        /* \"#utility.yul\":4004:4027   */\n      sub\n        /* \"#utility.yul\":4000:4032   */\n      slt\n        /* \"#utility.yul\":3997:4116   */\n      iszero\n      tag_276\n      jumpi\n        /* \"#utility.yul\":4035:4114   */\n      tag_277\n      tag_165\n      jump\t// in\n    tag_277:\n        /* \"#utility.yul\":3997:4116   */\n    tag_276:\n        /* \"#utility.yul\":4155:4156   */\n      0x00\n        /* \"#utility.yul\":4180:4233   */\n      tag_278\n        /* \"#utility.yul\":4225:4232   */\n      dup6\n        /* \"#utility.yul\":4216:4222   */\n      dup3\n        /* \"#utility.yul\":4205:4214   */\n      dup7\n        /* \"#utility.yul\":4201:4223   */\n      add\n        /* \"#utility.yul\":4180:4233   */\n      tag_181\n      jump\t// in\n    tag_278:\n        /* \"#utility.yul\":4170:4233   */\n      swap3\n      pop\n        /* \"#utility.yul\":4126:4243   */\n      pop\n        /* \"#utility.yul\":4282:4284   */\n      0x20\n        /* \"#utility.yul\":4308:4361   */\n      tag_279\n        /* \"#utility.yul\":4353:4360   */\n      dup6\n        /* \"#utility.yul\":4344:4350   */\n      dup3\n        /* \"#utility.yul\":4333:4342   */\n      dup7\n        /* \"#utility.yul\":4329:4351   */\n      add\n        /* \"#utility.yul\":4308:4361   */\n      tag_178\n      jump\t// in\n    tag_279:\n        /* \"#utility.yul\":4298:4361   */\n      swap2\n      pop\n        /* \"#utility.yul\":4253:4371   */\n      pop\n        /* \"#utility.yul\":3904:4378   */\n      swap3\n      pop\n      swap3\n      swap1\n      pop\n      jump\t// out\n        /* \"#utility.yul\":4384:4713   */\n    tag_41:\n        /* \"#utility.yul\":4443:4449   */\n      0x00\n        /* \"#utility.yul\":4492:4494   */\n      0x20\n        /* \"#utility.yul\":4480:4489   */\n      dup3\n        /* \"#utility.yul\":4471:4478   */\n      dup5\n        /* \"#utility.yul\":4467:4490   */\n      sub\n        /* \"#utility.yul\":4463:4495   */\n      slt\n        /* \"#utility.yul\":4460:4579   */\n      iszero\n      tag_281\n      jumpi\n        /* \"#utility.yul\":4498:4577   */\n      tag_282\n      tag_165\n      jump\t// in\n    tag_282:\n        /* \"#utility.yul\":4460:4579   */\n    tag_281:\n        /* \"#utility.yul\":4618:4619   */\n      0x00\n        /* \"#utility.yul\":4643:4696   */\n      tag_283\n        /* \"#utility.yul\":4688:4695   */\n      dup5\n        /* \"#utility.yul\":4679:4685   */\n      dup3\n        /* \"#utility.yul\":4668:4677   */\n      dup6\n        /* \"#utility.yul\":4664:4686   */\n      add\n        /* \"#utility.yul\":4643:4696   */\n      tag_174\n      jump\t// in\n    tag_283:\n        /* \"#utility.yul\":4633:4696   */\n      swap2\n      pop\n        /* \"#utility.yul\":4589:4706   */\n      pop\n        /* \"#utility.yul\":4384:4713   */\n      swap3\n      swap2\n      pop\n      pop\n      jump\t// out\n        /* \"#utility.yul\":4719:4818   */\n    tag_183:\n        /* \"#utility.yul\":4771:4777   */\n      0x00\n        /* \"#utility.yul\":4805:4810   */\n      dup2\n        /* \"#utility.yul\":4799:4811   */\n      mload\n        /* \"#utility.yul\":4789:4811   */\n      swap1\n      pop\n        /* \"#utility.yul\":4719:4818   */\n      swap2\n      swap1\n      pop\n      jump\t// out\n        /* \"#utility.yul\":4824:4993   */\n    tag_184:\n        /* \"#utility.yul\":4908:4919   */\n      0x00\n        /* \"#utility.yul\":4942:4948   */\n      dup3\n        /* \"#utility.yul\":4937:4940   */\n      dup3\n        /* \"#utility.yul\":4930:4949   */\n      mstore\n        /* \"#utility.yul\":4982:4986   */\n      0x20\n        /* \"#utility.yul\":4977:4980   */\n      dup3\n        /* \"#utility.yul\":4973:4987   */\n      add\n        /* \"#utility.yul\":4958:4987   */\n      swap1\n      pop\n        /* \"#utility.yul\":4824:4993   */\n      swap3\n      swap2\n      pop\n      pop\n      jump\t// out\n        /* \"#utility.yul\":4999:5138   */\n    tag_185:\n        /* \"#utility.yul\":5088:5094   */\n      dup3\n        /* \"#utility.yul\":5083:5086   */\n      dup2\n        /* \"#utility.yul\":5078:5081   */\n      dup4\n        /* \"#utility.yul\":5072:5095   */\n      mcopy\n        /* \"#utility.yul\":5129:5130   */\n      0x00\n        /* \"#utility.yul\":5120:5126   */\n      dup4\n        /* \"#utility.yul\":5115:5118   */\n      dup4\n        /* \"#utility.yul\":5111:5127   */\n      add\n        /* \"#utility.yul\":5104:5131   */\n      mstore\n        /* \"#utility.yul\":4999:5138   */\n      pop\n      pop\n      pop\n      jump\t// out\n        /* \"#utility.yul\":5144:5246   */\n    tag_186:\n        /* \"#utility.yul\":5185:5191   */\n      0x00\n        /* \"#utility.yul\":5236:5238   */\n      0x1f\n        /* \"#utility.yul\":5232:5239   */\n      not\n        /* \"#utility.yul\":5227:5229   */\n      0x1f\n        /* \"#utility.yul\":5220:5225   */\n      dup4\n        /* \"#utility.yul\":5216:5230   */\n      add\n        /* \"#utility.yul\":5212:5240   */\n      and\n        /* \"#utility.yul\":5202:5240   */\n      swap1\n      pop\n        /* \"#utility.yul\":5144:5246   */\n      swap2\n      swap1\n      pop\n      jump\t// out\n        /* \"#utility.yul\":5252:5629   */\n    tag_187:\n        /* \"#utility.yul\":5340:5343   */\n      0x00\n        /* \"#utility.yul\":5368:5407   */\n      tag_289\n        /* \"#utility.yul\":5401:5406   */\n      dup3\n        /* \"#utility.yul\":5368:5407   */\n      tag_183\n      jump\t// in\n    tag_289:\n        /* \"#utility.yul\":5423:5494   */\n      tag_290\n        /* \"#utility.yul\":5487:5493   */\n      dup2\n        /* \"#utility.yul\":5482:5485   */\n      dup6\n        /* \"#utility.yul\":5423:5494   */\n      tag_184\n      jump\t// in\n    tag_290:\n        /* \"#utility.yul\":5416:5494   */\n      swap4\n      pop\n        /* \"#utility.yul\":5503:5568   */\n      tag_291\n        /* \"#utility.yul\":5561:5567   */\n      dup2\n        /* \"#utility.yul\":5556:5559   */\n      dup6\n        /* \"#utility.yul\":5549:5553   */\n      0x20\n        /* \"#utility.yul\":5542:5547   */\n      dup7\n        /* \"#utility.yul\":5538:5554   */\n      add\n        /* \"#utility.yul\":5503:5568   */\n      tag_185\n      jump\t// in\n    tag_291:\n        /* \"#utility.yul\":5593:5622   */\n      tag_292\n        /* \"#utility.yul\":5615:5621   */\n      dup2\n        /* \"#utility.yul\":5593:5622   */\n      tag_186\n      jump\t// in\n    tag_292:\n        /* \"#utility.yul\":5588:5591   */\n      dup5\n        /* \"#utility.yul\":5584:5623   */\n      add\n        /* \"#utility.yul\":5577:5623   */\n      swap2\n      pop\n        /* \"#utility.yul\":5344:5629   */\n      pop\n        /* \"#utility.yul\":5252:5629   */\n      swap3\n      swap2\n      pop\n      pop\n      jump\t// out\n        /* \"#utility.yul\":5635:5753   */\n    tag_188:\n        /* \"#utility.yul\":5722:5746   */\n      tag_294\n        /* \"#utility.yul\":5740:5745   */\n      dup2\n        /* \"#utility.yul\":5722:5746   */\n      tag_172\n      jump\t// in\n    tag_294:\n        /* \"#utility.yul\":5717:5720   */\n      dup3\n        /* \"#utility.yul\":5710:5747   */\n      mstore\n        /* \"#utility.yul\":5635:5753   */\n      pop\n      pop\n      jump\t// out\n        /* \"#utility.yul\":5759:6585   */\n    tag_44:\n        /* \"#utility.yul\":5996:6000   */\n      0x00\n        /* \"#utility.yul\":6034:6037   */\n      0x80\n        /* \"#utility.yul\":6023:6032   */\n      dup3\n        /* \"#utility.yul\":6019:6038   */\n      add\n        /* \"#utility.yul\":6011:6038   */\n      swap1\n      pop\n        /* \"#utility.yul\":6084:6093   */\n      dup2\n        /* \"#utility.yul\":6078:6082   */\n      dup2\n        /* \"#utility.yul\":6074:6094   */\n      sub\n        /* \"#utility.yul\":6070:6071   */\n      0x00\n        /* \"#utility.yul\":6059:6068   */\n      dup4\n        /* \"#utility.yul\":6055:6072   */\n      add\n        /* \"#utility.yul\":6048:6095   */\n      mstore\n        /* \"#utility.yul\":6112:6190   */\n      tag_296\n        /* \"#utility.yul\":6185:6189   */\n      dup2\n        /* \"#utility.yul\":6176:6182   */\n      dup8\n        /* \"#utility.yul\":6112:6190   */\n      tag_187\n      jump\t// in\n    tag_296:\n        /* \"#utility.yul\":6104:6190   */\n      swap1\n      pop\n        /* \"#utility.yul\":6200:6272   */\n      tag_297\n        /* \"#utility.yul\":6268:6270   */\n      0x20\n        /* \"#utility.yul\":6257:6266   */\n      dup4\n        /* \"#utility.yul\":6253:6271   */\n      add\n        /* \"#utility.yul\":6244:6250   */\n      dup7\n        /* \"#utility.yul\":6200:6272   */\n      tag_188\n      jump\t// in\n    tag_297:\n        /* \"#utility.yul\":6319:6328   */\n      dup2\n        /* \"#utility.yul\":6313:6317   */\n      dup2\n        /* \"#utility.yul\":6309:6329   */\n      sub\n        /* \"#utility.yul\":6304:6306   */\n      0x40\n        /* \"#utility.yul\":6293:6302   */\n      dup4\n        /* \"#utility.yul\":6289:6307   */\n      add\n        /* \"#utility.yul\":6282:6330   */\n      mstore\n        /* \"#utility.yul\":6347:6425   */\n      tag_298\n        /* \"#utility.yul\":6420:6424   */\n      dup2\n        /* \"#utility.yul\":6411:6417   */\n      dup6\n        /* \"#utility.yul\":6347:6425   */\n      tag_187\n      jump\t// in\n    tag_298:\n        /* \"#utility.yul\":6339:6425   */\n      swap1\n      pop\n        /* \"#utility.yul\":6472:6481   */\n      dup2\n        /* \"#utility.yul\":6466:6470   */\n      dup2\n        /* \"#utility.yul\":6462:6482   */\n      sub\n        /* \"#utility.yul\":6457:6459   */\n      0x60\n        /* \"#utility.yul\":6446:6455   */\n      dup4\n        /* \"#utility.yul\":6442:6460   */\n      add\n        /* \"#utility.yul\":6435:6483   */\n      mstore\n        /* \"#utility.yul\":6500:6578   */\n      tag_299\n        /* \"#utility.yul\":6573:6577   */\n      dup2\n        /* \"#utility.yul\":6564:6570   */\n      dup5\n        /* \"#utility.yul\":6500:6578   */\n      tag_187\n      jump\t// in\n    tag_299:\n        /* \"#utility.yul\":6492:6578   */\n      swap1\n      pop\n        /* \"#utility.yul\":5759:6585   */\n      swap6\n      swap5\n      pop\n      pop\n      pop\n      pop\n      pop\n      jump\t// out\n        /* \"#utility.yul\":6591:6709   */\n    tag_189:\n        /* \"#utility.yul\":6678:6702   */\n      tag_301\n        /* \"#utility.yul\":6696:6701   */\n      dup2\n        /* \"#utility.yul\":6678:6702   */\n      tag_176\n      jump\t// in\n    tag_301:\n        /* \"#utility.yul\":6673:6676   */\n      dup3\n        /* \"#utility.yul\":6666:6703   */\n      mstore\n        /* \"#utility.yul\":6591:6709   */\n      pop\n      pop\n      jump\t// out\n        /* \"#utility.yul\":6715:7763   */\n    tag_56:\n        /* \"#utility.yul\":7008:7012   */\n      0x00\n        /* \"#utility.yul\":7046:7049   */\n      0xc0\n        /* \"#utility.yul\":7035:7044   */\n      dup3\n        /* \"#utility.yul\":7031:7050   */\n      add\n        /* \"#utility.yul\":7023:7050   */\n      swap1\n      pop\n        /* \"#utility.yul\":7096:7105   */\n      dup2\n        /* \"#utility.yul\":7090:7094   */\n      dup2\n        /* \"#utility.yul\":7086:7106   */\n      sub\n        /* \"#utility.yul\":7082:7083   */\n      0x00\n        /* \"#utility.yul\":7071:7080   */\n      dup4\n        /* \"#utility.yul\":7067:7084   */\n      add\n        /* \"#utility.yul\":7060:7107   */\n      mstore\n        /* \"#utility.yul\":7124:7202   */\n      tag_303\n        /* \"#utility.yul\":7197:7201   */\n      dup2\n        /* \"#utility.yul\":7188:7194   */\n      dup10\n        /* \"#utility.yul\":7124:7202   */\n      tag_187\n      jump\t// in\n    tag_303:\n        /* \"#utility.yul\":7116:7202   */\n      swap1\n      pop\n        /* \"#utility.yul\":7212:7284   */\n      tag_304\n        /* \"#utility.yul\":7280:7282   */\n      0x20\n        /* \"#utility.yul\":7269:7278   */\n      dup4\n        /* \"#utility.yul\":7265:7283   */\n      add\n        /* \"#utility.yul\":7256:7262   */\n      dup9\n        /* \"#utility.yul\":7212:7284   */\n      tag_188\n      jump\t// in\n    tag_304:\n        /* \"#utility.yul\":7331:7340   */\n      dup2\n        /* \"#utility.yul\":7325:7329   */\n      dup2\n        /* \"#utility.yul\":7321:7341   */\n      sub\n        /* \"#utility.yul\":7316:7318   */\n      0x40\n        /* \"#utility.yul\":7305:7314   */\n      dup4\n        /* \"#utility.yul\":7301:7319   */\n      add\n        /* \"#utility.yul\":7294:7342   */\n      mstore\n        /* \"#utility.yul\":7359:7437   */\n      tag_305\n        /* \"#utility.yul\":7432:7436   */\n      dup2\n        /* \"#utility.yul\":7423:7429   */\n      dup8\n        /* \"#utility.yul\":7359:7437   */\n      tag_187\n      jump\t// in\n    tag_305:\n        /* \"#utility.yul\":7351:7437   */\n      swap1\n      pop\n        /* \"#utility.yul\":7484:7493   */\n      dup2\n        /* \"#utility.yul\":7478:7482   */\n      dup2\n        /* \"#utility.yul\":7474:7494   */\n      sub\n        /* \"#utility.yul\":7469:7471   */\n      0x60\n        /* \"#utility.yul\":7458:7467   */\n      dup4\n        /* \"#utility.yul\":7454:7472   */\n      add\n        /* \"#utility.yul\":7447:7495   */\n      mstore\n        /* \"#utility.yul\":7512:7590   */\n      tag_306\n        /* \"#utility.yul\":7585:7589   */\n      dup2\n        /* \"#utility.yul\":7576:7582   */\n      dup7\n        /* \"#utility.yul\":7512:7590   */\n      tag_187\n      jump\t// in\n    tag_306:\n        /* \"#utility.yul\":7504:7590   */\n      swap1\n      pop\n        /* \"#utility.yul\":7600:7673   */\n      tag_307\n        /* \"#utility.yul\":7668:7671   */\n      0x80\n        /* \"#utility.yul\":7657:7666   */\n      dup4\n        /* \"#utility.yul\":7653:7672   */\n      add\n        /* \"#utility.yul\":7644:7650   */\n      dup6\n        /* \"#utility.yul\":7600:7673   */\n      tag_189\n      jump\t// in\n    tag_307:\n        /* \"#utility.yul\":7683:7756   */\n      tag_308\n        /* \"#utility.yul\":7751:7754   */\n      0xa0\n        /* \"#utility.yul\":7740:7749   */\n      dup4\n        /* \"#utility.yul\":7736:7755   */\n      add\n        /* \"#utility.yul\":7727:7733   */\n      dup5\n        /* \"#utility.yul\":7683:7756   */\n      tag_182\n      jump\t// in\n    tag_308:\n        /* \"#utility.yul\":6715:7763   */\n      swap8\n      swap7\n      pop\n      pop\n      pop\n      pop\n      pop\n      pop\n      pop\n      jump\t// out\n        /* \"#utility.yul\":7769:7886   */\n    tag_190:\n        /* \"#utility.yul\":7878:7879   */\n      0x00\n        /* \"#utility.yul\":7875:7876   */\n      dup1\n        /* \"#utility.yul\":7868:7880   */\n      revert\n        /* \"#utility.yul\":7892:8009   */\n    tag_191:\n        /* \"#utility.yul\":8001:8002   */\n      0x00\n        /* \"#utility.yul\":7998:7999   */\n      dup1\n        /* \"#utility.yul\":7991:8003   */\n      revert\n        /* \"#utility.yul\":8015:8195   */\n    tag_192:\n        /* \"#utility.yul\":8063:8140   */\n      0x4e487b7100000000000000000000000000000000000000000000000000000000\n        /* \"#utility.yul\":8060:8061   */\n      0x00\n        /* \"#utility.yul\":8053:8141   */\n      mstore\n        /* \"#utility.yul\":8160:8164   */\n      0x41\n        /* \"#utility.yul\":8157:8158   */\n      0x04\n        /* \"#utility.yul\":8150:8165   */\n      mstore\n        /* \"#utility.yul\":8184:8188   */\n      0x24\n        /* \"#utility.yul\":8181:8182   */\n      0x00\n        /* \"#utility.yul\":8174:8189   */\n      revert\n        /* \"#utility.yul\":8201:8482   */\n    tag_193:\n        /* \"#utility.yul\":8284:8311   */\n      tag_313\n        /* \"#utility.yul\":8306:8310   */\n      dup3\n        /* \"#utility.yul\":8284:8311   */\n      tag_186\n      jump\t// in\n    tag_313:\n        /* \"#utility.yul\":8276:8282   */\n      dup2\n        /* \"#utility.yul\":8272:8312   */\n      add\n        /* \"#utility.yul\":8414:8420   */\n      dup2\n        /* \"#utility.yul\":8402:8412   */\n      dup2\n        /* \"#utility.yul\":8399:8421   */\n      lt\n        /* \"#utility.yul\":8378:8396   */\n      0xffffffffffffffff\n        /* \"#utility.yul\":8366:8376   */\n      dup3\n        /* \"#utility.yul\":8363:8397   */\n      gt\n        /* \"#utility.yul\":8360:8422   */\n      or\n        /* \"#utility.yul\":8357:8445   */\n      iszero\n      tag_314\n      jumpi\n        /* \"#utility.yul\":8425:8443   */\n      tag_315\n      tag_192\n      jump\t// in\n    tag_315:\n        /* \"#utility.yul\":8357:8445   */\n    tag_314:\n        /* \"#utility.yul\":8465:8475   */\n      dup1\n        /* \"#utility.yul\":8461:8463   */\n      0x40\n        /* \"#utility.yul\":8454:8476   */\n      mstore\n        /* \"#utility.yul\":8244:8482   */\n      pop\n        /* \"#utility.yul\":8201:8482   */\n      pop\n      pop\n      jump\t// out\n        /* \"#utility.yul\":8488:8617   */\n    tag_194:\n        /* \"#utility.yul\":8522:8528   */\n      0x00\n        /* \"#utility.yul\":8549:8569   */\n      tag_317\n      tag_164\n      jump\t// in\n    tag_317:\n        /* \"#utility.yul\":8539:8569   */\n      swap1\n      pop\n        /* \"#utility.yul\":8578:8611   */\n      tag_318\n        /* \"#utility.yul\":8606:8610   */\n      dup3\n        /* \"#utility.yul\":8598:8604   */\n      dup3\n        /* \"#utility.yul\":8578:8611   */\n      tag_193\n      jump\t// in\n    tag_318:\n        /* \"#utility.yul\":8488:8617   */\n      swap2\n      swap1\n      pop\n      jump\t// out\n        /* \"#utility.yul\":8623:8931   */\n    tag_195:\n        /* \"#utility.yul\":8685:8689   */\n      0x00\n        /* \"#utility.yul\":8775:8793   */\n      0xffffffffffffffff\n        /* \"#utility.yul\":8767:8773   */\n      dup3\n        /* \"#utility.yul\":8764:8794   */\n      gt\n        /* \"#utility.yul\":8761:8817   */\n      iszero\n      tag_320\n      jumpi\n        /* \"#utility.yul\":8797:8815   */\n      tag_321\n      tag_192\n      jump\t// in\n    tag_321:\n        /* \"#utility.yul\":8761:8817   */\n    tag_320:\n        /* \"#utility.yul\":8835:8864   */\n      tag_322\n        /* \"#utility.yul\":8857:8863   */\n      dup3\n        /* \"#utility.yul\":8835:8864   */\n      tag_186\n      jump\t// in\n    tag_322:\n        /* \"#utility.yul\":8827:8864   */\n      swap1\n      pop\n        /* \"#utility.yul\":8919:8923   */\n      0x20\n        /* \"#utility.yul\":8913:8917   */\n      dup2\n        /* \"#utility.yul\":8909:8924   */\n      add\n        /* \"#utility.yul\":8901:8924   */\n      swap1\n      pop\n        /* \"#utility.yul\":8623:8931   */\n      swap2\n      swap1\n      pop\n      jump\t// out\n        /* \"#utility.yul\":8937:9085   */\n    tag_196:\n        /* \"#utility.yul\":9035:9041   */\n      dup3\n        /* \"#utility.yul\":9030:9033   */\n      dup2\n        /* \"#utility.yul\":9025:9028   */\n      dup4\n        /* \"#utility.yul\":9012:9042   */\n      calldatacopy\n        /* \"#utility.yul\":9076:9077   */\n      0x00\n        /* \"#utility.yul\":9067:9073   */\n      dup4\n        /* \"#utility.yul\":9062:9065   */\n      dup4\n        /* \"#utility.yul\":9058:9074   */\n      add\n        /* \"#utility.yul\":9051:9078   */\n      mstore\n        /* \"#utility.yul\":8937:9085   */\n      pop\n      pop\n      pop\n      jump\t// out\n        /* \"#utility.yul\":9091:9516   */\n    tag_197:\n        /* \"#utility.yul\":9169:9174   */\n      0x00\n        /* \"#utility.yul\":9194:9260   */\n      tag_325\n        /* \"#utility.yul\":9210:9259   */\n      tag_326\n        /* \"#utility.yul\":9252:9258   */\n      dup5\n        /* \"#utility.yul\":9210:9259   */\n      tag_195\n      jump\t// in\n    tag_326:\n        /* \"#utility.yul\":9194:9260   */\n      tag_194\n      jump\t// in\n    tag_325:\n        /* \"#utility.yul\":9185:9260   */\n      swap1\n      pop\n        /* \"#utility.yul\":9283:9289   */\n      dup3\n        /* \"#utility.yul\":9276:9281   */\n      dup2\n        /* \"#utility.yul\":9269:9290   */\n      mstore\n        /* \"#utility.yul\":9321:9325   */\n      0x20\n        /* \"#utility.yul\":9314:9319   */\n      dup2\n        /* \"#utility.yul\":9310:9326   */\n      add\n        /* \"#utility.yul\":9359:9362   */\n      dup5\n        /* \"#utility.yul\":9350:9356   */\n      dup5\n        /* \"#utility.yul\":9345:9348   */\n      dup5\n        /* \"#utility.yul\":9341:9357   */\n      add\n        /* \"#utility.yul\":9338:9363   */\n      gt\n        /* \"#utility.yul\":9335:9447   */\n      iszero\n      tag_327\n      jumpi\n        /* \"#utility.yul\":9366:9445   */\n      tag_328\n      tag_191\n      jump\t// in\n    tag_328:\n        /* \"#utility.yul\":9335:9447   */\n    tag_327:\n        /* \"#utility.yul\":9456:9510   */\n      tag_329\n        /* \"#utility.yul\":9503:9509   */\n      dup5\n        /* \"#utility.yul\":9498:9501   */\n      dup3\n        /* \"#utility.yul\":9493:9496   */\n      dup6\n        /* \"#utility.yul\":9456:9510   */\n      tag_196\n      jump\t// in\n    tag_329:\n        /* \"#utility.yul\":9175:9516   */\n      pop\n        /* \"#utility.yul\":9091:9516   */\n      swap4\n      swap3\n      pop\n      pop\n      pop\n      jump\t// out\n        /* \"#utility.yul\":9536:9876   */\n    tag_198:\n        /* \"#utility.yul\":9592:9597   */\n      0x00\n        /* \"#utility.yul\":9641:9644   */\n      dup3\n        /* \"#utility.yul\":9634:9638   */\n      0x1f\n        /* \"#utility.yul\":9626:9632   */\n      dup4\n        /* \"#utility.yul\":9622:9639   */\n      add\n        /* \"#utility.yul\":9618:9645   */\n      slt\n        /* \"#utility.yul\":9608:9730   */\n      tag_331\n      jumpi\n        /* \"#utility.yul\":9649:9728   */\n      tag_332\n      tag_190\n      jump\t// in\n    tag_332:\n        /* \"#utility.yul\":9608:9730   */\n    tag_331:\n        /* \"#utility.yul\":9766:9772   */\n      dup2\n        /* \"#utility.yul\":9753:9773   */\n      calldataload\n        /* \"#utility.yul\":9791:9870   */\n      tag_333\n        /* \"#utility.yul\":9866:9869   */\n      dup5\n        /* \"#utility.yul\":9858:9864   */\n      dup3\n        /* \"#utility.yul\":9851:9855   */\n      0x20\n        /* \"#utility.yul\":9843:9849   */\n      dup7\n        /* \"#utility.yul\":9839:9856   */\n      add\n        /* \"#utility.yul\":9791:9870   */\n      tag_197\n      jump\t// in\n    tag_333:\n        /* \"#utility.yul\":9782:9870   */\n      swap2\n      pop\n        /* \"#utility.yul\":9598:9876   */\n      pop\n        /* \"#utility.yul\":9536:9876   */\n      swap3\n      swap2\n      pop\n      pop\n      jump\t// out\n        /* \"#utility.yul\":9882:11479   */\n    tag_65:\n        /* \"#utility.yul\":10016:10022   */\n      0x00\n        /* \"#utility.yul\":10024:10030   */\n      dup1\n        /* \"#utility.yul\":10032:10038   */\n      0x00\n        /* \"#utility.yul\":10040:10046   */\n      dup1\n        /* \"#utility.yul\":10048:10054   */\n      0x00\n        /* \"#utility.yul\":10056:10062   */\n      dup1\n        /* \"#utility.yul\":10105:10108   */\n      0xc0\n        /* \"#utility.yul\":10093:10102   */\n      dup8\n        /* \"#utility.yul\":10084:10091   */\n      dup10\n        /* \"#utility.yul\":10080:10103   */\n      sub\n        /* \"#utility.yul\":10076:10109   */\n      slt\n        /* \"#utility.yul\":10073:10193   */\n      iszero\n      tag_335\n      jumpi\n        /* \"#utility.yul\":10112:10191   */\n      tag_336\n      tag_165\n      jump\t// in\n    tag_336:\n        /* \"#utility.yul\":10073:10193   */\n    tag_335:\n        /* \"#utility.yul\":10232:10233   */\n      0x00\n        /* \"#utility.yul\":10257:10310   */\n      tag_337\n        /* \"#utility.yul\":10302:10309   */\n      dup10\n        /* \"#utility.yul\":10293:10299   */\n      dup3\n        /* \"#utility.yul\":10282:10291   */\n      dup11\n        /* \"#utility.yul\":10278:10300   */\n      add\n        /* \"#utility.yul\":10257:10310   */\n      tag_174\n      jump\t// in\n    tag_337:\n        /* \"#utility.yul\":10247:10310   */\n      swap7\n      pop\n        /* \"#utility.yul\":10203:10320   */\n      pop\n        /* \"#utility.yul\":10387:10389   */\n      0x20\n        /* \"#utility.yul\":10376:10385   */\n      dup8\n        /* \"#utility.yul\":10372:10390   */\n      add\n        /* \"#utility.yul\":10359:10391   */\n      calldataload\n        /* \"#utility.yul\":10418:10436   */\n      0xffffffffffffffff\n        /* \"#utility.yul\":10410:10416   */\n      dup2\n        /* \"#utility.yul\":10407:10437   */\n      gt\n        /* \"#utility.yul\":10404:10521   */\n      iszero\n      tag_338\n      jumpi\n        /* \"#utility.yul\":10440:10519   */\n      tag_339\n      tag_166\n      jump\t// in\n    tag_339:\n        /* \"#utility.yul\":10404:10521   */\n    tag_338:\n        /* \"#utility.yul\":10545:10608   */\n      tag_340\n        /* \"#utility.yul\":10600:10607   */\n      dup10\n        /* \"#utility.yul\":10591:10597   */\n      dup3\n        /* \"#utility.yul\":10580:10589   */\n      dup11\n        /* \"#utility.yul\":10576:10598   */\n      add\n        /* \"#utility.yul\":10545:10608   */\n      tag_198\n      jump\t// in\n    tag_340:\n        /* \"#utility.yul\":10535:10608   */\n      swap6\n      pop\n        /* \"#utility.yul\":10330:10618   */\n      pop\n        /* \"#utility.yul\":10657:10659   */\n      0x40\n        /* \"#utility.yul\":10683:10736   */\n      tag_341\n        /* \"#utility.yul\":10728:10735   */\n      dup10\n        /* \"#utility.yul\":10719:10725   */\n      dup3\n        /* \"#utility.yul\":10708:10717   */\n      dup11\n        /* \"#utility.yul\":10704:10726   */\n      add\n        /* \"#utility.yul\":10683:10736   */\n      tag_174\n      jump\t// in\n    tag_341:\n        /* \"#utility.yul\":10673:10736   */\n      swap5\n      pop\n        /* \"#utility.yul\":10628:10746   */\n      pop\n        /* \"#utility.yul\":10813:10815   */\n      0x60\n        /* \"#utility.yul\":10802:10811   */\n      dup8\n        /* \"#utility.yul\":10798:10816   */\n      add\n        /* \"#utility.yul\":10785:10817   */\n      calldataload\n        /* \"#utility.yul\":10844:10862   */\n      0xffffffffffffffff\n        /* \"#utility.yul\":10836:10842   */\n      dup2\n        /* \"#utility.yul\":10833:10863   */\n      gt\n        /* \"#utility.yul\":10830:10947   */\n      iszero\n      tag_342\n      jumpi\n        /* \"#utility.yul\":10866:10945   */\n      tag_343\n      tag_166\n      jump\t// in\n    tag_343:\n        /* \"#utility.yul\":10830:10947   */\n    tag_342:\n        /* \"#utility.yul\":10971:11034   */\n      tag_344\n        /* \"#utility.yul\":11026:11033   */\n      dup10\n        /* \"#utility.yul\":11017:11023   */\n      dup3\n        /* \"#utility.yul\":11006:11015   */\n      dup11\n        /* \"#utility.yul\":11002:11024   */\n      add\n        /* \"#utility.yul\":10971:11034   */\n      tag_198\n      jump\t// in\n    tag_344:\n        /* \"#utility.yul\":10961:11034   */\n      swap4\n      pop\n        /* \"#utility.yul\":10756:11044   */\n      pop\n        /* \"#utility.yul\":11111:11114   */\n      0x80\n        /* \"#utility.yul\":11100:11109   */\n      dup8\n        /* \"#utility.yul\":11096:11115   */\n      add\n        /* \"#utility.yul\":11083:11116   */\n      calldataload\n        /* \"#utility.yul\":11143:11161   */\n      0xffffffffffffffff\n        /* \"#utility.yul\":11135:11141   */\n      dup2\n        /* \"#utility.yul\":11132:11162   */\n      gt\n        /* \"#utility.yul\":11129:11246   */\n      iszero\n      tag_345\n      jumpi\n        /* \"#utility.yul\":11165:11244   */\n      tag_346\n      tag_166\n      jump\t// in\n    tag_346:\n        /* \"#utility.yul\":11129:11246   */\n    tag_345:\n        /* \"#utility.yul\":11270:11333   */\n      tag_347\n        /* \"#utility.yul\":11325:11332   */\n      dup10\n        /* \"#utility.yul\":11316:11322   */\n      dup3\n        /* \"#utility.yul\":11305:11314   */\n      dup11\n        /* \"#utility.yul\":11301:11323   */\n      add\n        /* \"#utility.yul\":11270:11333   */\n      tag_198\n      jump\t// in\n    tag_347:\n        /* \"#utility.yul\":11260:11333   */\n      swap3\n      pop\n        /* \"#utility.yul\":11054:11343   */\n      pop\n        /* \"#utility.yul\":11382:11385   */\n      0xa0\n        /* \"#utility.yul\":11409:11462   */\n      tag_348\n        /* \"#utility.yul\":11454:11461   */\n      dup10\n        /* \"#utility.yul\":11445:11451   */\n      dup3\n        /* \"#utility.yul\":11434:11443   */\n      dup11\n        /* \"#utility.yul\":11430:11452   */\n      add\n        /* \"#utility.yul\":11409:11462   */\n      tag_181\n      jump\t// in\n    tag_348:\n        /* \"#utility.yul\":11399:11462   */\n      swap2\n      pop\n        /* \"#utility.yul\":11353:11472   */\n      pop\n        /* \"#utility.yul\":9882:11479   */\n      swap3\n      swap6\n      pop\n      swap3\n      swap6\n      pop\n      swap3\n      swap6\n      jump\t// out\n        /* \"#utility.yul\":11485:11667   */\n    tag_199:\n        /* \"#utility.yul\":11625:11659   */\n      0x4f6e6c7920746865206f776e65722063616e206772616e74206163636573732e\n        /* \"#utility.yul\":11621:11622   */\n      0x00\n        /* \"#utility.yul\":11613:11619   */\n      dup3\n        /* \"#utility.yul\":11609:11623   */\n      add\n        /* \"#utility.yul\":11602:11660   */\n      mstore\n        /* \"#utility.yul\":11485:11667   */\n      pop\n      jump\t// out\n        /* \"#utility.yul\":11673:12039   */\n    tag_200:\n        /* \"#utility.yul\":11815:11818   */\n      0x00\n        /* \"#utility.yul\":11836:11903   */\n      tag_351\n        /* \"#utility.yul\":11900:11902   */\n      0x20\n        /* \"#utility.yul\":11895:11898   */\n      dup4\n        /* \"#utility.yul\":11836:11903   */\n      tag_184\n      jump\t// in\n    tag_351:\n        /* \"#utility.yul\":11829:11903   */\n      swap2\n      pop\n        /* \"#utility.yul\":11912:12005   */\n      tag_352\n        /* \"#utility.yul\":12001:12004   */\n      dup3\n        /* \"#utility.yul\":11912:12005   */\n      tag_199\n      jump\t// in\n    tag_352:\n        /* \"#utility.yul\":12030:12032   */\n      0x20\n        /* \"#utility.yul\":12025:12028   */\n      dup3\n        /* \"#utility.yul\":12021:12033   */\n      add\n        /* \"#utility.yul\":12014:12033   */\n      swap1\n      pop\n        /* \"#utility.yul\":11673:12039   */\n      swap2\n      swap1\n      pop\n      jump\t// out\n        /* \"#utility.yul\":12045:12464   */\n    tag_74:\n        /* \"#utility.yul\":12211:12215   */\n      0x00\n        /* \"#utility.yul\":12249:12251   */\n      0x20\n        /* \"#utility.yul\":12238:12247   */\n      dup3\n        /* \"#utility.yul\":12234:12252   */\n      add\n        /* \"#utility.yul\":12226:12252   */\n      swap1\n      pop\n        /* \"#utility.yul\":12298:12307   */\n      dup2\n        /* \"#utility.yul\":12292:12296   */\n      dup2\n        /* \"#utility.yul\":12288:12308   */\n      sub\n        /* \"#utility.yul\":12284:12285   */\n      0x00\n        /* \"#utility.yul\":12273:12282   */\n      dup4\n        /* \"#utility.yul\":12269:12286   */\n      add\n        /* \"#utility.yul\":12262:12309   */\n      mstore\n        /* \"#utility.yul\":12326:12457   */\n      tag_354\n        /* \"#utility.yul\":12452:12456   */\n      dup2\n        /* \"#utility.yul\":12326:12457   */\n      tag_200\n      jump\t// in\n    tag_354:\n        /* \"#utility.yul\":12318:12457   */\n      swap1\n      pop\n        /* \"#utility.yul\":12045:12464   */\n      swap2\n      swap1\n      pop\n      jump\t// out\n        /* \"#utility.yul\":12470:12634   */\n    tag_201:\n        /* \"#utility.yul\":12610:12626   */\n      0x4163636573732064656e6965642e000000000000000000000000000000000000\n        /* \"#utility.yul\":12606:12607   */\n      0x00\n        /* \"#utility.yul\":12598:12604   */\n      dup3\n        /* \"#utility.yul\":12594:12608   */\n      add\n        /* \"#utility.yul\":12587:12627   */\n      mstore\n        /* \"#utility.yul\":12470:12634   */\n      pop\n      jump\t// out\n        /* \"#utility.yul\":12640:13006   */\n    tag_202:\n        /* \"#utility.yul\":12782:12785   */\n      0x00\n        /* \"#utility.yul\":12803:12870   */\n      tag_357\n        /* \"#utility.yul\":12867:12869   */\n      0x0e\n        /* \"#utility.yul\":12862:12865   */\n      dup4\n        /* \"#utility.yul\":12803:12870   */\n      tag_184\n      jump\t// in\n    tag_357:\n        /* \"#utility.yul\":12796:12870   */\n      swap2\n      pop\n        /* \"#utility.yul\":12879:12972   */\n      tag_358\n        /* \"#utility.yul\":12968:12971   */\n      dup3\n        /* \"#utility.yul\":12879:12972   */\n      tag_201\n      jump\t// in\n    tag_358:\n        /* \"#utility.yul\":12997:12999   */\n      0x20\n        /* \"#utility.yul\":12992:12995   */\n      dup3\n        /* \"#utility.yul\":12988:13000   */\n      add\n        /* \"#utility.yul\":12981:13000   */\n      swap1\n      pop\n        /* \"#utility.yul\":12640:13006   */\n      swap2\n      swap1\n      pop\n      jump\t// out\n        /* \"#utility.yul\":13012:13431   */\n    tag_93:\n        /* \"#utility.yul\":13178:13182   */\n      0x00\n        /* \"#utility.yul\":13216:13218   */\n      0x20\n        /* \"#utility.yul\":13205:13214   */\n      dup3\n        /* \"#utility.yul\":13201:13219   */\n      add\n        /* \"#utility.yul\":13193:13219   */\n      swap1\n      pop\n        /* \"#utility.yul\":13265:13274   */\n      dup2\n        /* \"#utility.yul\":13259:13263   */\n      dup2\n        /* \"#utility.yul\":13255:13275   */\n      sub\n        /* \"#utility.yul\":13251:13252   */\n      0x00\n        /* \"#utility.yul\":13240:13249   */\n      dup4\n        /* \"#utility.yul\":13236:13253   */\n      add\n        /* \"#utility.yul\":13229:13276   */\n      mstore\n        /* \"#utility.yul\":13293:13424   */\n      tag_360\n        /* \"#utility.yul\":13419:13423   */\n      dup2\n        /* \"#utility.yul\":13293:13424   */\n      tag_202\n      jump\t// in\n    tag_360:\n        /* \"#utility.yul\":13285:13424   */\n      swap1\n      pop\n        /* \"#utility.yul\":13012:13431   */\n      swap2\n      swap1\n      pop\n      jump\t// out\n        /* \"#utility.yul\":13437:13617   */\n    tag_203:\n        /* \"#utility.yul\":13485:13562   */\n      0x4e487b7100000000000000000000000000000000000000000000000000000000\n        /* \"#utility.yul\":13482:13483   */\n      0x00\n        /* \"#utility.yul\":13475:13563   */\n      mstore\n        /* \"#utility.yul\":13582:13586   */\n      0x22\n        /* \"#utility.yul\":13579:13580   */\n      0x04\n        /* \"#utility.yul\":13572:13587   */\n      mstore\n        /* \"#utility.yul\":13606:13610   */\n      0x24\n        /* \"#utility.yul\":13603:13604   */\n      0x00\n        /* \"#utility.yul\":13596:13611   */\n      revert\n        /* \"#utility.yul\":13623:13943   */\n    tag_95:\n        /* \"#utility.yul\":13667:13673   */\n      0x00\n        /* \"#utility.yul\":13704:13705   */\n      0x02\n        /* \"#utility.yul\":13698:13702   */\n      dup3\n        /* \"#utility.yul\":13694:13706   */\n      div\n        /* \"#utility.yul\":13684:13706   */\n      swap1\n      pop\n        /* \"#utility.yul\":13751:13752   */\n      0x01\n        /* \"#utility.yul\":13745:13749   */\n      dup3\n        /* \"#utility.yul\":13741:13753   */\n      and\n        /* \"#utility.yul\":13772:13790   */\n      dup1\n        /* \"#utility.yul\":13762:13843   */\n      tag_363\n      jumpi\n        /* \"#utility.yul\":13828:13832   */\n      0x7f\n        /* \"#utility.yul\":13820:13826   */\n      dup3\n        /* \"#utility.yul\":13816:13833   */\n      and\n        /* \"#utility.yul\":13806:13833   */\n      swap2\n      pop\n        /* \"#utility.yul\":13762:13843   */\n    tag_363:\n        /* \"#utility.yul\":13890:13892   */\n      0x20\n        /* \"#utility.yul\":13882:13888   */\n      dup3\n        /* \"#utility.yul\":13879:13893   */\n      lt\n        /* \"#utility.yul\":13859:13877   */\n      dup2\n        /* \"#utility.yul\":13856:13894   */\n      sub\n        /* \"#utility.yul\":13853:13937   */\n      tag_364\n      jumpi\n        /* \"#utility.yul\":13909:13927   */\n      tag_365\n      tag_203\n      jump\t// in\n    tag_365:\n        /* \"#utility.yul\":13853:13937   */\n    tag_364:\n        /* \"#utility.yul\":13674:13943   */\n      pop\n        /* \"#utility.yul\":13623:13943   */\n      swap2\n      swap1\n      pop\n      jump\t// out\n        /* \"#utility.yul\":13949:14169   */\n    tag_204:\n        /* \"#utility.yul\":14089:14123   */\n      0x4f6e6c7920746865206f776e65722063616e207265766f6b6520616363657373\n        /* \"#utility.yul\":14085:14086   */\n      0x00\n        /* \"#utility.yul\":14077:14083   */\n      dup3\n        /* \"#utility.yul\":14073:14087   */\n      add\n        /* \"#utility.yul\":14066:14124   */\n      mstore\n        /* \"#utility.yul\":14158:14161   */\n      0x2e00000000000000000000000000000000000000000000000000000000000000\n        /* \"#utility.yul\":14153:14155   */\n      0x20\n        /* \"#utility.yul\":14145:14151   */\n      dup3\n        /* \"#utility.yul\":14141:14156   */\n      add\n        /* \"#utility.yul\":14134:14162   */\n      mstore\n        /* \"#utility.yul\":13949:14169   */\n      pop\n      jump\t// out\n        /* \"#utility.yul\":14175:14541   */\n    tag_205:\n        /* \"#utility.yul\":14317:14320   */\n      0x00\n        /* \"#utility.yul\":14338:14405   */\n      tag_368\n        /* \"#utility.yul\":14402:14404   */\n      0x21\n        /* \"#utility.yul\":14397:14400   */\n      dup4\n        /* \"#utility.yul\":14338:14405   */\n      tag_184\n      jump\t// in\n    tag_368:\n        /* \"#utility.yul\":14331:14405   */\n      swap2\n      pop\n        /* \"#utility.yul\":14414:14507   */\n      tag_369\n        /* \"#utility.yul\":14503:14506   */\n      dup3\n        /* \"#utility.yul\":14414:14507   */\n      tag_204\n      jump\t// in\n    tag_369:\n        /* \"#utility.yul\":14532:14534   */\n      0x40\n        /* \"#utility.yul\":14527:14530   */\n      dup3\n        /* \"#utility.yul\":14523:14535   */\n      add\n        /* \"#utility.yul\":14516:14535   */\n      swap1\n      pop\n        /* \"#utility.yul\":14175:14541   */\n      swap2\n      swap1\n      pop\n      jump\t// out\n        /* \"#utility.yul\":14547:14966   */\n    tag_134:\n        /* \"#utility.yul\":14713:14717   */\n      0x00\n        /* \"#utility.yul\":14751:14753   */\n      0x20\n        /* \"#utility.yul\":14740:14749   */\n      dup3\n        /* \"#utility.yul\":14736:14754   */\n      add\n        /* \"#utility.yul\":14728:14754   */\n      swap1\n      pop\n        /* \"#utility.yul\":14800:14809   */\n      dup2\n        /* \"#utility.yul\":14794:14798   */\n      dup2\n        /* \"#utility.yul\":14790:14810   */\n      sub\n        /* \"#utility.yul\":14786:14787   */\n      0x00\n        /* \"#utility.yul\":14775:14784   */\n      dup4\n        /* \"#utility.yul\":14771:14788   */\n      add\n        /* \"#utility.yul\":14764:14811   */\n      mstore\n        /* \"#utility.yul\":14828:14959   */\n      tag_371\n        /* \"#utility.yul\":14954:14958   */\n      dup2\n        /* \"#utility.yul\":14828:14959   */\n      tag_205\n      jump\t// in\n    tag_371:\n        /* \"#utility.yul\":14820:14959   */\n      swap1\n      pop\n        /* \"#utility.yul\":14547:14966   */\n      swap2\n      swap1\n      pop\n      jump\t// out\n        /* \"#utility.yul\":14972:15142   */\n    tag_206:\n        /* \"#utility.yul\":15112:15134   */\n      0x416765206d75737420626520706f736974697665000000000000000000000000\n        /* \"#utility.yul\":15108:15109   */\n      0x00\n        /* \"#utility.yul\":15100:15106   */\n      dup3\n        /* \"#utility.yul\":15096:15110   */\n      add\n        /* \"#utility.yul\":15089:15135   */\n      mstore\n        /* \"#utility.yul\":14972:15142   */\n      pop\n      jump\t// out\n        /* \"#utility.yul\":15148:15514   */\n    tag_207:\n        /* \"#utility.yul\":15290:15293   */\n      0x00\n        /* \"#utility.yul\":15311:15378   */\n      tag_374\n        /* \"#utility.yul\":15375:15377   */\n      0x14\n        /* \"#utility.yul\":15370:15373   */\n      dup4\n        /* \"#utility.yul\":15311:15378   */\n      tag_184\n      jump\t// in\n    tag_374:\n        /* \"#utility.yul\":15304:15378   */\n      swap2\n      pop\n        /* \"#utility.yul\":15387:15480   */\n      tag_375\n        /* \"#utility.yul\":15476:15479   */\n      dup3\n        /* \"#utility.yul\":15387:15480   */\n      tag_206\n      jump\t// in\n    tag_375:\n        /* \"#utility.yul\":15505:15507   */\n      0x20\n        /* \"#utility.yul\":15500:15503   */\n      dup3\n        /* \"#utility.yul\":15496:15508   */\n      add\n        /* \"#utility.yul\":15489:15508   */\n      swap1\n      pop\n        /* \"#utility.yul\":15148:15514   */\n      swap2\n      swap1\n      pop\n      jump\t// out\n        /* \"#utility.yul\":15520:15939   */\n    tag_138:\n        /* \"#utility.yul\":15686:15690   */\n      0x00\n        /* \"#utility.yul\":15724:15726   */\n      0x20\n        /* \"#utility.yul\":15713:15722   */\n      dup3\n        /* \"#utility.yul\":15709:15727   */\n      add\n        /* \"#utility.yul\":15701:15727   */\n      swap1\n      pop\n        /* \"#utility.yul\":15773:15782   */\n      dup2\n        /* \"#utility.yul\":15767:15771   */\n      dup2\n        /* \"#utility.yul\":15763:15783   */\n      sub\n        /* \"#utility.yul\":15759:15760   */\n      0x00\n        /* \"#utility.yul\":15748:15757   */\n      dup4\n        /* \"#utility.yul\":15744:15761   */\n      add\n        /* \"#utility.yul\":15737:15784   */\n      mstore\n        /* \"#utility.yul\":15801:15932   */\n      tag_377\n        /* \"#utility.yul\":15927:15931   */\n      dup2\n        /* \"#utility.yul\":15801:15932   */\n      tag_207\n      jump\t// in\n    tag_377:\n        /* \"#utility.yul\":15793:15932   */\n      swap1\n      pop\n        /* \"#utility.yul\":15520:15939   */\n      swap2\n      swap1\n      pop\n      jump\t// out\n        /* \"#utility.yul\":15945:16086   */\n    tag_208:\n        /* \"#utility.yul\":15994:15998   */\n      0x00\n        /* \"#utility.yul\":16017:16020   */\n      dup2\n        /* \"#utility.yul\":16009:16020   */\n      swap1\n      pop\n        /* \"#utility.yul\":16040:16043   */\n      dup2\n        /* \"#utility.yul\":16037:16038   */\n      0x00\n        /* \"#utility.yul\":16030:16044   */\n      mstore\n        /* \"#utility.yul\":16074:16078   */\n      0x20\n        /* \"#utility.yul\":16071:16072   */\n      0x00\n        /* \"#utility.yul\":16061:16079   */\n      keccak256\n        /* \"#utility.yul\":16053:16079   */\n      swap1\n      pop\n        /* \"#utility.yul\":15945:16086   */\n      swap2\n      swap1\n      pop\n      jump\t// out\n        /* \"#utility.yul\":16092:16185   */\n    tag_209:\n        /* \"#utility.yul\":16129:16135   */\n      0x00\n        /* \"#utility.yul\":16176:16178   */\n      0x20\n        /* \"#utility.yul\":16171:16173   */\n      0x1f\n        /* \"#utility.yul\":16164:16169   */\n      dup4\n        /* \"#utility.yul\":16160:16174   */\n      add\n        /* \"#utility.yul\":16156:16179   */\n      div\n        /* \"#utility.yul\":16146:16179   */\n      swap1\n      pop\n        /* \"#utility.yul\":16092:16185   */\n      swap2\n      swap1\n      pop\n      jump\t// out\n        /* \"#utility.yul\":16191:16298   */\n    tag_210:\n        /* \"#utility.yul\":16235:16243   */\n      0x00\n        /* \"#utility.yul\":16285:16290   */\n      dup3\n        /* \"#utility.yul\":16279:16283   */\n      dup3\n        /* \"#utility.yul\":16275:16291   */\n      shl\n        /* \"#utility.yul\":16254:16291   */\n      swap1\n      pop\n        /* \"#utility.yul\":16191:16298   */\n      swap3\n      swap2\n      pop\n      pop\n      jump\t// out\n        /* \"#utility.yul\":16304:16697   */\n    tag_211:\n        /* \"#utility.yul\":16373:16379   */\n      0x00\n        /* \"#utility.yul\":16423:16424   */\n      0x08\n        /* \"#utility.yul\":16411:16421   */\n      dup4\n        /* \"#utility.yul\":16407:16425   */\n      mul\n        /* \"#utility.yul\":16446:16543   */\n      tag_382\n        /* \"#utility.yul\":16476:16542   */\n      0xffffffffffffffffffffffffffffffffffffffffffffffffffffffffffffffff\n        /* \"#utility.yul\":16465:16474   */\n      dup3\n        /* \"#utility.yul\":16446:16543   */\n      tag_210\n      jump\t// in\n    tag_382:\n        /* \"#utility.yul\":16564:16603   */\n      tag_383\n        /* \"#utility.yul\":16594:16602   */\n      dup7\n        /* \"#utility.yul\":16583:16592   */\n      dup4\n        /* \"#utility.yul\":16564:16603   */\n      tag_210\n      jump\t// in\n    tag_383:\n        /* \"#utility.yul\":16552:16603   */\n      swap6\n      pop\n        /* \"#utility.yul\":16636:16640   */\n      dup1\n        /* \"#utility.yul\":16632:16641   */\n      not\n        /* \"#utility.yul\":16625:16630   */\n      dup5\n        /* \"#utility.yul\":16621:16642   */\n      and\n        /* \"#utility.yul\":16612:16642   */\n      swap4\n      pop\n        /* \"#utility.yul\":16685:16689   */\n      dup1\n        /* \"#utility.yul\":16675:16683   */\n      dup7\n        /* \"#utility.yul\":16671:16690   */\n      and\n        /* \"#utility.yul\":16664:16669   */\n      dup5\n        /* \"#utility.yul\":16661:16691   */\n      or\n        /* \"#utility.yul\":16651:16691   */\n      swap3\n      pop\n        /* \"#utility.yul\":16380:16697   */\n      pop\n      pop\n        /* \"#utility.yul\":16304:16697   */\n      swap4\n      swap3\n      pop\n      pop\n      pop\n      jump\t// out\n        /* \"#utility.yul\":16703:16763   */\n    tag_212:\n        /* \"#utility.yul\":16731:16734   */\n      0x00\n        /* \"#utility.yul\":16752:16757   */\n      dup2\n        /* \"#utility.yul\":16745:16757   */\n      swap1\n      pop\n        /* \"#utility.yul\":16703:16763   */\n      swap2\n      swap1\n      pop\n      jump\t// out\n        /* \"#utility.yul\":16769:16911   */\n    tag_213:\n        /* \"#utility.yul\":16819:16828   */\n      0x00\n        /* \"#utility.yul\":16852:16905   */\n      tag_386\n        /* \"#utility.yul\":16870:16904   */\n      tag_387\n        /* \"#utility.yul\":16879:16903   */\n      tag_388\n        /* \"#utility.yul\":16897:16902   */\n      dup5\n        /* \"#utility.yul\":16879:16903   */\n      tag_172\n      jump\t// in\n    tag_388:\n        /* \"#utility.yul\":16870:16904   */\n      tag_212\n      jump\t// in\n    tag_387:\n        /* \"#utility.yul\":16852:16905   */\n      tag_172\n      jump\t// in\n    tag_386:\n        /* \"#utility.yul\":16839:16905   */\n      swap1\n      pop\n        /* \"#utility.yul\":16769:16911   */\n      swap2\n      swap1\n      pop\n      jump\t// out\n        /* \"#utility.yul\":16917:16992   */\n    tag_214:\n        /* \"#utility.yul\":16960:16963   */\n      0x00\n        /* \"#utility.yul\":16981:16986   */\n      dup2\n        /* \"#utility.yul\":16974:16986   */\n      swap1\n      pop\n        /* \"#utility.yul\":16917:16992   */\n      swap2\n      swap1\n      pop\n      jump\t// out\n        /* \"#utility.yul\":16998:17267   */\n    tag_215:\n        /* \"#utility.yul\":17108:17147   */\n      tag_391\n        /* \"#utility.yul\":17139:17146   */\n      dup4\n        /* \"#utility.yul\":17108:17147   */\n      tag_213\n      jump\t// in\n    tag_391:\n        /* \"#utility.yul\":17169:17260   */\n      tag_392\n        /* \"#utility.yul\":17218:17259   */\n      tag_393\n        /* \"#utility.yul\":17242:17258   */\n      dup3\n        /* \"#utility.yul\":17218:17259   */\n      tag_214\n      jump\t// in\n    tag_393:\n        /* \"#utility.yul\":17210:17216   */\n      dup5\n        /* \"#utility.yul\":17203:17207   */\n      dup5\n        /* \"#utility.yul\":17197:17208   */\n      sload\n        /* \"#utility.yul\":17169:17260   */\n      tag_211\n      jump\t// in\n    tag_392:\n        /* \"#utility.yul\":17163:17167   */\n      dup3\n        /* \"#utility.yul\":17156:17261   */\n      sstore\n        /* \"#utility.yul\":17074:17267   */\n      pop\n        /* \"#utility.yul\":16998:17267   */\n      pop\n      pop\n      pop\n      jump\t// out\n        /* \"#utility.yul\":17273:17346   */\n    tag_216:\n        /* \"#utility.yul\":17318:17321   */\n      0x00\n        /* \"#utility.yul\":17273:17346   */\n      swap1\n      jump\t// out\n        /* \"#utility.yul\":17352:17541   */\n    tag_217:\n        /* \"#utility.yul\":17429:17461   */\n      tag_396\n      tag_216\n      jump\t// in\n    tag_396:\n        /* \"#utility.yul\":17470:17535   */\n      tag_397\n        /* \"#utility.yul\":17528:17534   */\n      dup2\n        /* \"#utility.yul\":17520:17526   */\n      dup5\n        /* \"#utility.yul\":17514:17518   */\n      dup5\n        /* \"#utility.yul\":17470:17535   */\n      tag_215\n      jump\t// in\n    tag_397:\n        /* \"#utility.yul\":17405:17541   */\n      pop\n        /* \"#utility.yul\":17352:17541   */\n      pop\n      pop\n      jump\t// out\n        /* \"#utility.yul\":17547:17733   */\n    tag_218:\n        /* \"#utility.yul\":17607:17727   */\n    tag_399:\n        /* \"#utility.yul\":17624:17627   */\n      dup2\n        /* \"#utility.yul\":17617:17622   */\n      dup2\n        /* \"#utility.yul\":17614:17628   */\n      lt\n        /* \"#utility.yul\":17607:17727   */\n      iszero\n      tag_401\n      jumpi\n        /* \"#utility.yul\":17678:17717   */\n      tag_402\n        /* \"#utility.yul\":17715:17716   */\n      0x00\n        /* \"#utility.yul\":17708:17713   */\n      dup3\n        /* \"#utility.yul\":17678:17717   */\n      tag_217\n      jump\t// in\n    tag_402:\n        /* \"#utility.yul\":17651:17652   */\n      0x01\n        /* \"#utility.yul\":17644:17649   */\n      dup2\n        /* \"#utility.yul\":17640:17653   */\n      add\n        /* \"#utility.yul\":17631:17653   */\n      swap1\n      pop\n        /* \"#utility.yul\":17607:17727   */\n      jump(tag_399)\n    tag_401:\n        /* \"#utility.yul\":17547:17733   */\n      pop\n      pop\n      jump\t// out\n        /* \"#utility.yul\":17739:18282   */\n    tag_219:\n        /* \"#utility.yul\":17840:17842   */\n      0x1f\n        /* \"#utility.yul\":17835:17838   */\n      dup3\n        /* \"#utility.yul\":17832:17843   */\n      gt\n        /* \"#utility.yul\":17829:18275   */\n      iszero\n      tag_404\n      jumpi\n        /* \"#utility.yul\":17874:17912   */\n      tag_405\n        /* \"#utility.yul\":17906:17911   */\n      dup2\n        /* \"#utility.yul\":17874:17912   */\n      tag_208\n      jump\t// in\n    tag_405:\n        /* \"#utility.yul\":17958:17987   */\n      tag_406\n        /* \"#utility.yul\":17976:17986   */\n      dup5\n        /* \"#utility.yul\":17958:17987   */\n      tag_209\n      jump\t// in\n    tag_406:\n        /* \"#utility.yul\":17948:17956   */\n      dup2\n        /* \"#utility.yul\":17944:17988   */\n      add\n        /* \"#utility.yul\":18141:18143   */\n      0x20\n        /* \"#utility.yul\":18129:18139   */\n      dup6\n        /* \"#utility.yul\":18126:18144   */\n      lt\n        /* \"#utility.yul\":18123:18172   */\n      iszero\n      tag_407\n      jumpi\n        /* \"#utility.yul\":18162:18170   */\n      dup2\n        /* \"#utility.yul\":18147:18170   */\n      swap1\n      pop\n        /* \"#utility.yul\":18123:18172   */\n    tag_407:\n        /* \"#utility.yul\":18185:18265   */\n      tag_408\n        /* \"#utility.yul\":18241:18263   */\n      tag_409\n        /* \"#utility.yul\":18259:18262   */\n      dup6\n        /* \"#utility.yul\":18241:18263   */\n      tag_209\n      jump\t// in\n    tag_409:\n        /* \"#utility.yul\":18231:18239   */\n      dup4\n        /* \"#utility.yul\":18227:18264   */\n      add\n        /* \"#utility.yul\":18214:18225   */\n      dup3\n        /* \"#utility.yul\":18185:18265   */\n      tag_218\n      jump\t// in\n    tag_408:\n        /* \"#utility.yul\":17844:18275   */\n      pop\n      pop\n        /* \"#utility.yul\":17829:18275   */\n    tag_404:\n        /* \"#utility.yul\":17739:18282   */\n      pop\n      pop\n      pop\n      jump\t// out\n        /* \"#utility.yul\":18288:18405   */\n    tag_220:\n        /* \"#utility.yul\":18342:18350   */\n      0x00\n        /* \"#utility.yul\":18392:18397   */\n      dup3\n        /* \"#utility.yul\":18386:18390   */\n      dup3\n        /* \"#utility.yul\":18382:18398   */\n      shr\n        /* \"#utility.yul\":18361:18398   */\n      swap1\n      pop\n        /* \"#utility.yul\":18288:18405   */\n      swap3\n      swap2\n      pop\n      pop\n      jump\t// out\n        /* \"#utility.yul\":18411:18580   */\n    tag_221:\n        /* \"#utility.yul\":18455:18461   */\n      0x00\n        /* \"#utility.yul\":18488:18539   */\n      tag_412\n        /* \"#utility.yul\":18536:18537   */\n      0x00\n        /* \"#utility.yul\":18532:18538   */\n      not\n        /* \"#utility.yul\":18524:18529   */\n      dup5\n        /* \"#utility.yul\":18521:18522   */\n      0x08\n        /* \"#utility.yul\":18517:18530   */\n      mul\n        /* \"#utility.yul\":18488:18539   */\n      tag_220\n      jump\t// in\n    tag_412:\n        /* \"#utility.yul\":18484:18540   */\n      not\n        /* \"#utility.yul\":18569:18573   */\n      dup1\n        /* \"#utility.yul\":18563:18567   */\n      dup4\n        /* \"#utility.yul\":18559:18574   */\n      and\n        /* \"#utility.yul\":18549:18574   */\n      swap2\n      pop\n        /* \"#utility.yul\":18462:18580   */\n      pop\n        /* \"#utility.yul\":18411:18580   */\n      swap3\n      swap2\n      pop\n      pop\n      jump\t// out\n        /* \"#utility.yul\":18585:18880   */\n    tag_222:\n        /* \"#utility.yul\":18661:18665   */\n      0x00\n        /* \"#utility.yul\":18807:18836   */\n      tag_414\n        /* \"#utility.yul\":18832:18835   */\n      dup4\n        /* \"#utility.yul\":18826:18830   */\n      dup4\n        /* \"#utility.yul\":18807:18836   */\n      tag_221\n      jump\t// in\n    tag_414:\n        /* \"#utility.yul\":18799:18836   */\n      swap2\n      pop\n        /* \"#utility.yul\":18869:18872   */\n      dup3\n        /* \"#utility.yul\":18866:18867   */\n      0x02\n        /* \"#utility.yul\":18862:18873   */\n      mul\n        /* \"#utility.yul\":18856:18860   */\n      dup3\n        /* \"#utility.yul\":18853:18874   */\n      or\n        /* \"#utility.yul\":18845:18874   */\n      swap1\n      pop\n        /* \"#utility.yul\":18585:18880   */\n      swap3\n      swap2\n      pop\n      pop\n      jump\t// out\n        /* \"#utility.yul\":18885:20280   */\n    tag_140:\n        /* \"#utility.yul\":19002:19039   */\n      tag_416\n        /* \"#utility.yul\":19035:19038   */\n      dup3\n        /* \"#utility.yul\":19002:19039   */\n      tag_183\n      jump\t// in\n    tag_416:\n        /* \"#utility.yul\":19104:19122   */\n      0xffffffffffffffff\n        /* \"#utility.yul\":19096:19102   */\n      dup2\n        /* \"#utility.yul\":19093:19123   */\n      gt\n        /* \"#utility.yul\":19090:19146   */\n      iszero\n      tag_417\n      jumpi\n        /* \"#utility.yul\":19126:19144   */\n      tag_418\n      tag_192\n      jump\t// in\n    tag_418:\n        /* \"#utility.yul\":19090:19146   */\n    tag_417:\n        /* \"#utility.yul\":19170:19208   */\n      tag_419\n        /* \"#utility.yul\":19202:19206   */\n      dup3\n        /* \"#utility.yul\":19196:19207   */\n      sload\n        /* \"#utility.yul\":19170:19208   */\n      tag_95\n      jump\t// in\n    tag_419:\n        /* \"#utility.yul\":19255:19322   */\n      tag_420\n        /* \"#utility.yul\":19315:19321   */\n      dup3\n        /* \"#utility.yul\":19307:19313   */\n      dup3\n        /* \"#utility.yul\":19301:19305   */\n      dup6\n        /* \"#utility.yul\":19255:19322   */\n      tag_219\n      jump\t// in\n    tag_420:\n        /* \"#utility.yul\":19349:19350   */\n      0x00\n        /* \"#utility.yul\":19373:19377   */\n      0x20\n        /* \"#utility.yul\":19360:19377   */\n      swap1\n      pop\n        /* \"#utility.yul\":19405:19407   */\n      0x1f\n        /* \"#utility.yul\":19397:19403   */\n      dup4\n        /* \"#utility.yul\":19394:19408   */\n      gt\n        /* \"#utility.yul\":19422:19423   */\n      0x01\n        /* \"#utility.yul\":19417:20035   */\n      dup2\n      eq\n      tag_422\n      jumpi\n        /* \"#utility.yul\":20079:20080   */\n      0x00\n        /* \"#utility.yul\":20096:20102   */\n      dup5\n        /* \"#utility.yul\":20093:20170   */\n      iszero\n      tag_423\n      jumpi\n        /* \"#utility.yul\":20145:20154   */\n      dup3\n        /* \"#utility.yul\":20140:20143   */\n      dup8\n        /* \"#utility.yul\":20136:20155   */\n      add\n        /* \"#utility.yul\":20130:20156   */\n      mload\n        /* \"#utility.yul\":20121:20156   */\n      swap1\n      pop\n        /* \"#utility.yul\":20093:20170   */\n    tag_423:\n        /* \"#utility.yul\":20196:20263   */\n      tag_424\n        /* \"#utility.yul\":20256:20262   */\n      dup6\n        /* \"#utility.yul\":20249:20254   */\n      dup3\n        /* \"#utility.yul\":20196:20263   */\n      tag_222\n      jump\t// in\n    tag_424:\n        /* \"#utility.yul\":20190:20194   */\n      dup7\n        /* \"#utility.yul\":20183:20264   */\n      sstore\n        /* \"#utility.yul\":20052:20274   */\n      pop\n        /* \"#utility.yul\":19387:20274   */\n      jump(tag_421)\n        /* \"#utility.yul\":19417:20035   */\n    tag_422:\n        /* \"#utility.yul\":19469:19473   */\n      0x1f\n        /* \"#utility.yul\":19465:19474   */\n      not\n        /* \"#utility.yul\":19457:19463   */\n      dup5\n        /* \"#utility.yul\":19453:19475   */\n      and\n        /* \"#utility.yul\":19503:19540   */\n      tag_425\n        /* \"#utility.yul\":19535:19539   */\n      dup7\n        /* \"#utility.yul\":19503:19540   */\n      tag_208\n      jump\t// in\n    tag_425:\n        /* \"#utility.yul\":19562:19563   */\n      0x00\n        /* \"#utility.yul\":19576:19784   */\n    tag_426:\n        /* \"#utility.yul\":19590:19597   */\n      dup3\n        /* \"#utility.yul\":19587:19588   */\n      dup2\n        /* \"#utility.yul\":19584:19598   */\n      lt\n        /* \"#utility.yul\":19576:19784   */\n      iszero\n      tag_428\n      jumpi\n        /* \"#utility.yul\":19669:19678   */\n      dup5\n        /* \"#utility.yul\":19664:19667   */\n      dup10\n        /* \"#utility.yul\":19660:19679   */\n      add\n        /* \"#utility.yul\":19654:19680   */\n      mload\n        /* \"#utility.yul\":19646:19652   */\n      dup3\n        /* \"#utility.yul\":19639:19681   */\n      sstore\n        /* \"#utility.yul\":19720:19721   */\n      0x01\n        /* \"#utility.yul\":19712:19718   */\n      dup3\n        /* \"#utility.yul\":19708:19722   */\n      add\n        /* \"#utility.yul\":19698:19722   */\n      swap2\n      pop\n        /* \"#utility.yul\":19767:19769   */\n      0x20\n        /* \"#utility.yul\":19756:19765   */\n      dup6\n        /* \"#utility.yul\":19752:19770   */\n      add\n        /* \"#utility.yul\":19739:19770   */\n      swap5\n      pop\n        /* \"#utility.yul\":19613:19617   */\n      0x20\n        /* \"#utility.yul\":19610:19611   */\n      dup2\n        /* \"#utility.yul\":19606:19618   */\n      add\n        /* \"#utility.yul\":19601:19618   */\n      swap1\n      pop\n        /* \"#utility.yul\":19576:19784   */\n      jump(tag_426)\n    tag_428:\n        /* \"#utility.yul\":19812:19818   */\n      dup7\n        /* \"#utility.yul\":19803:19810   */\n      dup4\n        /* \"#utility.yul\":19800:19819   */\n      lt\n        /* \"#utility.yul\":19797:19976   */\n      iszero\n      tag_429\n      jumpi\n        /* \"#utility.yul\":19870:19879   */\n      dup5\n        /* \"#utility.yul\":19865:19868   */\n      dup10\n        /* \"#utility.yul\":19861:19880   */\n      add\n        /* \"#utility.yul\":19855:19881   */\n      mload\n        /* \"#utility.yul\":19913:19961   */\n      tag_430\n        /* \"#utility.yul\":19955:19959   */\n      0x1f\n        /* \"#utility.yul\":19947:19953   */\n      dup10\n        /* \"#utility.yul\":19943:19960   */\n      and\n        /* \"#utility.yul\":19932:19941   */\n      dup3\n        /* \"#utility.yul\":19913:19961   */\n      tag_221\n      jump\t// in\n    tag_430:\n        /* \"#utility.yul\":19905:19911   */\n      dup4\n        /* \"#utility.yul\":19898:19962   */\n      sstore\n        /* \"#utility.yul\":19820:19976   */\n      pop\n        /* \"#utility.yul\":19797:19976   */\n    tag_429:\n        /* \"#utility.yul\":20022:20023   */\n      0x01\n        /* \"#utility.yul\":20018:20019   */\n      0x02\n        /* \"#utility.yul\":20010:20016   */\n      dup9\n        /* \"#utility.yul\":20006:20020   */\n      mul\n        /* \"#utility.yul\":20002:20024   */\n      add\n        /* \"#utility.yul\":19996:20000   */\n      dup9\n        /* \"#utility.yul\":19989:20025   */\n      sstore\n        /* \"#utility.yul\":19424:20035   */\n      pop\n      pop\n      pop\n        /* \"#utility.yul\":19387:20274   */\n    tag_421:\n      pop\n        /* \"#utility.yul\":18977:20280   */\n      pop\n      pop\n      pop\n        /* \"#utility.yul\":18885:20280   */\n      pop\n      pop\n      jump\t// out\n        /* \"#utility.yul\":20286:20618   */\n    tag_163:\n        /* \"#utility.yul\":20407:20411   */\n      0x00\n        /* \"#utility.yul\":20445:20447   */\n      0x40\n        /* \"#utility.yul\":20434:20443   */\n      dup3\n        /* \"#utility.yul\":20430:20448   */\n      add\n        /* \"#utility.yul\":20422:20448   */\n      swap1\n      pop\n        /* \"#utility.yul\":20458:20529   */\n      tag_432\n        /* \"#utility.yul\":20526:20527   */\n      0x00\n        /* \"#utility.yul\":20515:20524   */\n      dup4\n        /* \"#utility.yul\":20511:20528   */\n      add\n        /* \"#utility.yul\":20502:20508   */\n      dup6\n        /* \"#utility.yul\":20458:20529   */\n      tag_189\n      jump\t// in\n    tag_432:\n        /* \"#utility.yul\":20539:20611   */\n      tag_433\n        /* \"#utility.yul\":20607:20609   */\n      0x20\n        /* \"#utility.yul\":20596:20605   */\n      dup4\n        /* \"#utility.yul\":20592:20610   */\n      add\n        /* \"#utility.yul\":20583:20589   */\n      dup5\n        /* \"#utility.yul\":20539:20611   */\n      tag_182\n      jump\t// in\n    tag_433:\n        /* \"#utility.yul\":20286:20618   */\n      swap4\n      swap3\n      pop\n      pop\n      pop\n      jump\t// out\n\n    auxdata: 0xa264697066735822122025b908c085a75325042db900024e1c8f0a708d8b22afa48c8ba4f580865177ed64736f6c63430008190033\n}\n",
				"bytecode": {
					"linkReferences": {},
					"object": "608060405234801561000f575f80fd5b506100225f801b3361002860201b60201c565b50610187565b5f610039838361011d60201b60201c565b6101135760015f808581526020019081526020015f205f015f8473ffffffffffffffffffffffffffffffffffffffff1673ffffffffffffffffffffffffffffffffffffffff1681526020019081526020015f205f6101000a81548160ff0219169083151502179055506100b061018060201b60201c565b73ffffffffffffffffffffffffffffffffffffffff168273ffffffffffffffffffffffffffffffffffffffff16847f2f8788117e7eff1d82e926ec794901d17c78024a50270940304540a733656f0d60405160405180910390a460019050610117565b5f90505b92915050565b5f805f8481526020019081526020015f205f015f8373ffffffffffffffffffffffffffffffffffffffff1673ffffffffffffffffffffffffffffffffffffffff1681526020019081526020015f205f9054906101000a900460ff16905092915050565b5f33905090565b611a74806101945f395ff3fe608060405234801561000f575f80fd5b50600436106100b2575f3560e01c806391d148541161006f57806391d148541461019d578063a217fddf146101cd578063d3d188a1146101eb578063d547741f14610220578063d9a5ec1b1461023c578063f78cb68414610258576100b2565b806301ffc9a7146100b65780630b72ac6d146100e6578063248a9ca3146101025780632f2ff15d1461013257806336568abe1461014e5780637d8e34f31461016a575b5f80fd5b6100d060048036038101906100cb919061100d565b610274565b6040516100dd9190611052565b60405180910390f35b61010060048036038101906100fb91906110f8565b6102ed565b005b61011c60048036038101906101179190611169565b61043c565b60405161012991906111a3565b60405180910390f35b61014c600480360381019061014791906111bc565b610458565b005b610168600480360381019061016391906111bc565b61047a565b005b610184600480360381019061017f91906111fa565b6104f5565b60405161019494939291906112a4565b60405180910390f35b6101b760048036038101906101b291906111bc565b6107d1565b6040516101c49190611052565b60405180910390f35b6101d5610834565b6040516101e291906111a3565b60405180910390f35b610205600480360381019061020091906111fa565b61083a565b6040516102179695949392919061130b565b60405180910390f35b61023a600480360381019061023591906111bc565b610a23565b005b610256600480360381019061025191906110f8565b610a45565b005b610272600480360381019061026d91906114ab565b610b94565b005b5f7f7965db0b000000000000000000000000000000000000000000000000000000007bffffffffffffffffffffffffffffffffffffffffffffffffffffffff1916827bffffffffffffffffffffffffffffffffffffffffffffffffffffffff191614806102e657506102e582610d00565b5b9050919050565b3373ffffffffffffffffffffffffffffffffffffffff1660015f8481526020019081526020015f206005015f9054906101000a900473ffffffffffffffffffffffffffffffffffffffff1673ffffffffffffffffffffffffffffffffffffffff161461038e576040517f08c379a0000000000000000000000000000000000000000000000000000000008152600401610385906115d2565b60405180910390fd5b6001805f8481526020019081526020015f206004015f8373ffffffffffffffffffffffffffffffffffffffff1673ffffffffffffffffffffffffffffffffffffffff1681526020019081526020015f205f6101000a81548160ff0219169083151502179055508073ffffffffffffffffffffffffffffffffffffffff16827f3c3a9147a1fc73dd51a32f4d10c43d457e8cb826eb6f35cac6349eb965ba82b460405160405180910390a35050565b5f805f8381526020019081526020015f20600101549050919050565b6104618261043c565b61046a81610d69565b6104748383610d7d565b50505050565b610482610e66565b73ffffffffffffffffffffffffffffffffffffffff168173ffffffffffffffffffffffffffffffffffffffff16146104e6576040517f6697b23200000000000000000000000000000000000000000000000000000000815260040160405180910390fd5b6104f08282610e6d565b505050565b60605f60608060015f8681526020019081526020015f206004015f3373ffffffffffffffffffffffffffffffffffffffff1673ffffffffffffffffffffffffffffffffffffffff1681526020019081526020015f205f9054906101000a900460ff16806105c057503373ffffffffffffffffffffffffffffffffffffffff1660015f8781526020019081526020015f206005015f9054906101000a900473ffffffffffffffffffffffffffffffffffffffff1673ffffffffffffffffffffffffffffffffffffffff16145b6105ff576040517f08c379a00000000000000000000000000000000000000000000000000000000081526004016105f69061163a565b60405180910390fd5b5f60015f8781526020019081526020015f209050805f018160010154826002018360030183805461062f90611685565b80601f016020809104026020016040519081016040528092919081815260200182805461065b90611685565b80156106a65780601f1061067d576101008083540402835291602001916106a6565b820191905f5260205f20905b81548152906001019060200180831161068957829003601f168201915b505050505093508180546106b990611685565b80601f01602080910402602001604051908101604052809291908181526020018280546106e590611685565b80156107305780601f1061070757610100808354040283529160200191610730565b820191905f5260205f20905b81548152906001019060200180831161071357829003601f168201915b5050505050915080805461074390611685565b80601f016020809104026020016040519081016040528092919081815260200182805461076f90611685565b80156107ba5780601f10610791576101008083540402835291602001916107ba565b820191905f5260205f20905b81548152906001019060200180831161079d57829003601f168201915b505050505090509450945094509450509193509193565b5f805f8481526020019081526020015f205f015f8373ffffffffffffffffffffffffffffffffffffffff1673ffffffffffffffffffffffffffffffffffffffff1681526020019081526020015f205f9054906101000a900460ff16905092915050565b5f801b81565b6001602052805f5260405f205f91509050805f01805461085990611685565b80601f016020809104026020016040519081016040528092919081815260200182805461088590611685565b80156108d05780601f106108a7576101008083540402835291602001916108d0565b820191905f5260205f20905b8154815290600101906020018083116108b357829003601f168201915b5050505050908060010154908060020180546108eb90611685565b80601f016020809104026020016040519081016040528092919081815260200182805461091790611685565b80156109625780601f1061093957610100808354040283529160200191610962565b820191905f5260205f20905b81548152906001019060200180831161094557829003601f168201915b50505050509080600301805461097790611685565b80601f01602080910402602001604051908101604052809291908181526020018280546109a390611685565b80156109ee5780601f106109c5576101008083540402835291602001916109ee565b820191905f5260205f20905b8154815290600101906020018083116109d157829003601f168201915b505050505090806005015f9054906101000a900473ffffffffffffffffffffffffffffffffffffffff16908060060154905086565b610a2c8261043c565b610a3581610d69565b610a3f8383610e6d565b50505050565b3373ffffffffffffffffffffffffffffffffffffffff1660015f8481526020019081526020015f206005015f9054906101000a900473ffffffffffffffffffffffffffffffffffffffff1673ffffffffffffffffffffffffffffffffffffffff1614610ae6576040517f08c379a0000000000000000000000000000000000000000000000000000000008152600401610add90611725565b60405180910390fd5b5f60015f8481526020019081526020015f206004015f8373ffffffffffffffffffffffffffffffffffffffff1673ffffffffffffffffffffffffffffffffffffffff1681526020019081526020015f205f6101000a81548160ff0219169083151502179055508073ffffffffffffffffffffffffffffffffffffffff16827f125883b94692baebecad9f111ed97ffa626523bbbadc6b0ef85ee1b56b9e52d560405160405180910390a35050565b5f8411610bd6576040517f08c379a0000000000000000000000000000000000000000000000000000000008152600401610bcd9061178d565b60405180910390fd5b5f60015f8881526020019081526020015f20905085815f019081610bfa9190611948565b5084816001018190555083816002019081610c159190611948565b5082816003019081610c279190611948565b5081816006018190555033816005015f6101000a81548173ffffffffffffffffffffffffffffffffffffffff021916908373ffffffffffffffffffffffffffffffffffffffff1602179055506001816004015f3373ffffffffffffffffffffffffffffffffffffffff1673ffffffffffffffffffffffffffffffffffffffff1681526020019081526020015f205f6101000a81548160ff021916908315150217905550867f7f7c53560eed5d6aab9db16abd65f6a8b3ed69d910c5e8e8842215596ffc6d7860405160405180910390a250505050505050565b5f7f01ffc9a7000000000000000000000000000000000000000000000000000000007bffffffffffffffffffffffffffffffffffffffffffffffffffffffff1916827bffffffffffffffffffffffffffffffffffffffffffffffffffffffff1916149050919050565b610d7a81610d75610e66565b610f56565b50565b5f610d8883836107d1565b610e5c5760015f808581526020019081526020015f205f015f8473ffffffffffffffffffffffffffffffffffffffff1673ffffffffffffffffffffffffffffffffffffffff1681526020019081526020015f205f6101000a81548160ff021916908315150217905550610df9610e66565b73ffffffffffffffffffffffffffffffffffffffff168273ffffffffffffffffffffffffffffffffffffffff16847f2f8788117e7eff1d82e926ec794901d17c78024a50270940304540a733656f0d60405160405180910390a460019050610e60565b5f90505b92915050565b5f33905090565b5f610e7883836107d1565b15610f4c575f805f8581526020019081526020015f205f015f8473ffffffffffffffffffffffffffffffffffffffff1673ffffffffffffffffffffffffffffffffffffffff1681526020019081526020015f205f6101000a81548160ff021916908315150217905550610ee9610e66565b73ffffffffffffffffffffffffffffffffffffffff168273ffffffffffffffffffffffffffffffffffffffff16847ff6391f5c32d9c69d2a47ea670b442974b53935d1edc7fd64eb21e047a839171b60405160405180910390a460019050610f50565b5f90505b92915050565b610f6082826107d1565b610fa35780826040517fe2517d3f000000000000000000000000000000000000000000000000000000008152600401610f9a929190611a17565b60405180910390fd5b5050565b5f604051905090565b5f80fd5b5f80fd5b5f7fffffffff0000000000000000000000000000000000000000000000000000000082169050919050565b610fec81610fb8565b8114610ff6575f80fd5b50565b5f8135905061100781610fe3565b92915050565b5f6020828403121561102257611021610fb0565b5b5f61102f84828501610ff9565b91505092915050565b5f8115159050919050565b61104c81611038565b82525050565b5f6020820190506110655f830184611043565b92915050565b5f819050919050565b61107d8161106b565b8114611087575f80fd5b50565b5f8135905061109881611074565b92915050565b5f73ffffffffffffffffffffffffffffffffffffffff82169050919050565b5f6110c78261109e565b9050919050565b6110d7816110bd565b81146110e1575f80fd5b50565b5f813590506110f2816110ce565b92915050565b5f806040838503121561110e5761110d610fb0565b5b5f61111b8582860161108a565b925050602061112c858286016110e4565b9150509250929050565b5f819050919050565b61114881611136565b8114611152575f80fd5b50565b5f813590506111638161113f565b92915050565b5f6020828403121561117e5761117d610fb0565b5b5f61118b84828501611155565b91505092915050565b61119d81611136565b82525050565b5f6020820190506111b65f830184611194565b92915050565b5f80604083850312156111d2576111d1610fb0565b5b5f6111df85828601611155565b92505060206111f0858286016110e4565b9150509250929050565b5f6020828403121561120f5761120e610fb0565b5b5f61121c8482850161108a565b91505092915050565b5f81519050919050565b5f82825260208201905092915050565b8281835e5f83830152505050565b5f601f19601f8301169050919050565b5f61126782611225565b611271818561122f565b935061128181856020860161123f565b61128a8161124d565b840191505092915050565b61129e8161106b565b82525050565b5f6080820190508181035f8301526112bc818761125d565b90506112cb6020830186611295565b81810360408301526112dd818561125d565b905081810360608301526112f1818461125d565b905095945050505050565b611305816110bd565b82525050565b5f60c0820190508181035f830152611323818961125d565b90506113326020830188611295565b8181036040830152611344818761125d565b90508181036060830152611358818661125d565b905061136760808301856112fc565b61137460a0830184611194565b979650505050505050565b5f80fd5b5f80fd5b7f4e487b71000000000000000000000000000000000000000000000000000000005f52604160045260245ffd5b6113bd8261124d565b810181811067ffffffffffffffff821117156113dc576113db611387565b5b80604052505050565b5f6113ee610fa7565b90506113fa82826113b4565b919050565b5f67ffffffffffffffff82111561141957611418611387565b5b6114228261124d565b9050602081019050919050565b828183375f83830152505050565b5f61144f61144a846113ff565b6113e5565b90508281526020810184848401111561146b5761146a611383565b5b61147684828561142f565b509392505050565b5f82601f8301126114925761149161137f565b5b81356114a284826020860161143d565b91505092915050565b5f805f805f8060c087890312156114c5576114c4610fb0565b5b5f6114d289828a0161108a565b965050602087013567ffffffffffffffff8111156114f3576114f2610fb4565b5b6114ff89828a0161147e565b955050604061151089828a0161108a565b945050606087013567ffffffffffffffff81111561153157611530610fb4565b5b61153d89828a0161147e565b935050608087013567ffffffffffffffff81111561155e5761155d610fb4565b5b61156a89828a0161147e565b92505060a061157b89828a01611155565b9150509295509295509295565b7f4f6e6c7920746865206f776e65722063616e206772616e74206163636573732e5f82015250565b5f6115bc60208361122f565b91506115c782611588565b602082019050919050565b5f6020820190508181035f8301526115e9816115b0565b9050919050565b7f4163636573732064656e6965642e0000000000000000000000000000000000005f82015250565b5f611624600e8361122f565b915061162f826115f0565b602082019050919050565b5f6020820190508181035f83015261165181611618565b9050919050565b7f4e487b71000000000000000000000000000000000000000000000000000000005f52602260045260245ffd5b5f600282049050600182168061169c57607f821691505b6020821081036116af576116ae611658565b5b50919050565b7f4f6e6c7920746865206f776e65722063616e207265766f6b65206163636573735f8201527f2e00000000000000000000000000000000000000000000000000000000000000602082015250565b5f61170f60218361122f565b915061171a826116b5565b604082019050919050565b5f6020820190508181035f83015261173c81611703565b9050919050565b7f416765206d75737420626520706f7369746976650000000000000000000000005f82015250565b5f61177760148361122f565b915061178282611743565b602082019050919050565b5f6020820190508181035f8301526117a48161176b565b9050919050565b5f819050815f5260205f209050919050565b5f6020601f8301049050919050565b5f82821b905092915050565b5f600883026118077fffffffffffffffffffffffffffffffffffffffffffffffffffffffffffffffff826117cc565b61181186836117cc565b95508019841693508086168417925050509392505050565b5f819050919050565b5f61184c6118476118428461106b565b611829565b61106b565b9050919050565b5f819050919050565b61186583611832565b61187961187182611853565b8484546117d8565b825550505050565b5f90565b61188d611881565b61189881848461185c565b505050565b5b818110156118bb576118b05f82611885565b60018101905061189e565b5050565b601f821115611900576118d1816117ab565b6118da846117bd565b810160208510156118e9578190505b6118fd6118f5856117bd565b83018261189d565b50505b505050565b5f82821c905092915050565b5f6119205f1984600802611905565b1980831691505092915050565b5f6119388383611911565b9150826002028217905092915050565b61195182611225565b67ffffffffffffffff81111561196a57611969611387565b5b6119748254611685565b61197f8282856118bf565b5f60209050601f8311600181146119b0575f841561199e578287015190505b6119a8858261192d565b865550611a0f565b601f1984166119be866117ab565b5f5b828110156119e5578489015182556001820191506020850194506020810190506119c0565b86831015611a0257848901516119fe601f891682611911565b8355505b6001600288020188555050505b505050505050565b5f604082019050611a2a5f8301856112fc565b611a376020830184611194565b939250505056fea264697066735822122025b908c085a75325042db900024e1c8f0a708d8b22afa48c8ba4f580865177ed64736f6c63430008190033",
					"opcodes": "PUSH1 0x80 PUSH1 0x40 MSTORE CALLVALUE DUP1 ISZERO PUSH2 0xF JUMPI PUSH0 DUP1 REVERT JUMPDEST POP PUSH2 0x22 PUSH0 DUP1 SHL CALLER PUSH2 0x28 PUSH1 0x20 SHL PUSH1 0x20 SHR JUMP JUMPDEST POP PUSH2 0x187 JUMP JUMPDEST PUSH0 PUSH2 0x39 DUP4 DUP4 PUSH2 0x11D PUSH1 0x20 SHL PUSH1 0x20 SHR JUMP JUMPDEST PUSH2 0x113 JUMPI PUSH1 0x1 PUSH0 DUP1 DUP6 DUP2 MSTORE PUSH1 0x20 ADD SWAP1 DUP2 MSTORE PUSH1 0x20 ADD PUSH0 KECCAK256 PUSH0 ADD PUSH0 DUP5 PUSH20 0xFFFFFFFFFFFFFFFFFFFFFFFFFFFFFFFFFFFFFFFF AND PUSH20 0xFFFFFFFFFFFFFFFFFFFFFFFFFFFFFFFFFFFFFFFF AND DUP2 MSTORE PUSH1 0x20 ADD SWAP1 DUP2 MSTORE PUSH1 0x20 ADD PUSH0 KECCAK256 PUSH0 PUSH2 0x100 EXP DUP2 SLOAD DUP2 PUSH1 0xFF MUL NOT AND SWAP1 DUP4 ISZERO ISZERO MUL OR SWAP1 SSTORE POP PUSH2 0xB0 PUSH2 0x180 PUSH1 0x20 SHL PUSH1 0x20 SHR JUMP JUMPDEST PUSH20 0xFFFFFFFFFFFFFFFFFFFFFFFFFFFFFFFFFFFFFFFF AND DUP3 PUSH20 0xFFFFFFFFFFFFFFFFFFFFFFFFFFFFFFFFFFFFFFFF AND DUP5 PUSH32 0x2F8788117E7EFF1D82E926EC794901D17C78024A50270940304540A733656F0D PUSH1 0x40 MLOAD PUSH1 0x40 MLOAD DUP1 SWAP2 SUB SWAP1 LOG4 PUSH1 0x1 SWAP1 POP PUSH2 0x117 JUMP JUMPDEST PUSH0 SWAP1 POP JUMPDEST SWAP3 SWAP2 POP POP JUMP JUMPDEST PUSH0 DUP1 PUSH0 DUP5 DUP2 MSTORE PUSH1 0x20 ADD SWAP1 DUP2 MSTORE PUSH1 0x20 ADD PUSH0 KECCAK256 PUSH0 ADD PUSH0 DUP4 PUSH20 0xFFFFFFFFFFFFFFFFFFFFFFFFFFFFFFFFFFFFFFFF AND PUSH20 0xFFFFFFFFFFFFFFFFFFFFFFFFFFFFFFFFFFFFFFFF AND DUP2 MSTORE PUSH1 0x20 ADD SWAP1 DUP2 MSTORE PUSH1 0x20 ADD PUSH0 KECCAK256 PUSH0 SWAP1 SLOAD SWAP1 PUSH2 0x100 EXP SWAP1 DIV PUSH1 0xFF AND SWAP1 POP SWAP3 SWAP2 POP POP JUMP JUMPDEST PUSH0 CALLER SWAP1 POP SWAP1 JUMP JUMPDEST PUSH2 0x1A74 DUP1 PUSH2 0x194 PUSH0 CODECOPY PUSH0 RETURN INVALID PUSH1 0x80 PUSH1 0x40 MSTORE CALLVALUE DUP1 ISZERO PUSH2 0xF JUMPI PUSH0 DUP1 REVERT JUMPDEST POP PUSH1 0x4 CALLDATASIZE LT PUSH2 0xB2 JUMPI PUSH0 CALLDATALOAD PUSH1 0xE0 SHR DUP1 PUSH4 0x91D14854 GT PUSH2 0x6F JUMPI DUP1 PUSH4 0x91D14854 EQ PUSH2 0x19D JUMPI DUP1 PUSH4 0xA217FDDF EQ PUSH2 0x1CD JUMPI DUP1 PUSH4 0xD3D188A1 EQ PUSH2 0x1EB JUMPI DUP1 PUSH4 0xD547741F EQ PUSH2 0x220 JUMPI DUP1 PUSH4 0xD9A5EC1B EQ PUSH2 0x23C JUMPI DUP1 PUSH4 0xF78CB684 EQ PUSH2 0x258 JUMPI PUSH2 0xB2 JUMP JUMPDEST DUP1 PUSH4 0x1FFC9A7 EQ PUSH2 0xB6 JUMPI DUP1 PUSH4 0xB72AC6D EQ PUSH2 0xE6 JUMPI DUP1 PUSH4 0x248A9CA3 EQ PUSH2 0x102 JUMPI DUP1 PUSH4 0x2F2FF15D EQ PUSH2 0x132 JUMPI DUP1 PUSH4 0x36568ABE EQ PUSH2 0x14E JUMPI DUP1 PUSH4 0x7D8E34F3 EQ PUSH2 0x16A JUMPI JUMPDEST PUSH0 DUP1 REVERT JUMPDEST PUSH2 0xD0 PUSH1 0x4 DUP1 CALLDATASIZE SUB DUP2 ADD SWAP1 PUSH2 0xCB SWAP2 SWAP1 PUSH2 0x100D JUMP JUMPDEST PUSH2 0x274 JUMP JUMPDEST PUSH1 0x40 MLOAD PUSH2 0xDD SWAP2 SWAP1 PUSH2 0x1052 JUMP JUMPDEST PUSH1 0x40 MLOAD DUP1 SWAP2 SUB SWAP1 RETURN JUMPDEST PUSH2 0x100 PUSH1 0x4 DUP1 CALLDATASIZE SUB DUP2 ADD SWAP1 PUSH2 0xFB SWAP2 SWAP1 PUSH2 0x10F8 JUMP JUMPDEST PUSH2 0x2ED JUMP JUMPDEST STOP JUMPDEST PUSH2 0x11C PUSH1 0x4 DUP1 CALLDATASIZE SUB DUP2 ADD SWAP1 PUSH2 0x117 SWAP2 SWAP1 PUSH2 0x1169 JUMP JUMPDEST PUSH2 0x43C JUMP JUMPDEST PUSH1 0x40 MLOAD PUSH2 0x129 SWAP2 SWAP1 PUSH2 0x11A3 JUMP JUMPDEST PUSH1 0x40 MLOAD DUP1 SWAP2 SUB SWAP1 RETURN JUMPDEST PUSH2 0x14C PUSH1 0x4 DUP1 CALLDATASIZE SUB DUP2 ADD SWAP1 PUSH2 0x147 SWAP2 SWAP1 PUSH2 0x11BC JUMP JUMPDEST PUSH2 0x458 JUMP JUMPDEST STOP JUMPDEST PUSH2 0x168 PUSH1 0x4 DUP1 CALLDATASIZE SUB DUP2 ADD SWAP1 PUSH2 0x163 SWAP2 SWAP1 PUSH2 0x11BC JUMP JUMPDEST PUSH2 0x47A JUMP JUMPDEST STOP JUMPDEST PUSH2 0x184 PUSH1 0x4 DUP1 CALLDATASIZE SUB DUP2 ADD SWAP1 PUSH2 0x17F SWAP2 SWAP1 PUSH2 0x11FA JUMP JUMPDEST PUSH2 0x4F5 JUMP JUMPDEST PUSH1 0x40 MLOAD PUSH2 0x194 SWAP5 SWAP4 SWAP3 SWAP2 SWAP1 PUSH2 0x12A4 JUMP JUMPDEST PUSH1 0x40 MLOAD DUP1 SWAP2 SUB SWAP1 RETURN JUMPDEST PUSH2 0x1B7 PUSH1 0x4 DUP1 CALLDATASIZE SUB DUP2 ADD SWAP1 PUSH2 0x1B2 SWAP2 SWAP1 PUSH2 0x11BC JUMP JUMPDEST PUSH2 0x7D1 JUMP JUMPDEST PUSH1 0x40 MLOAD PUSH2 0x1C4 SWAP2 SWAP1 PUSH2 0x1052 JUMP JUMPDEST PUSH1 0x40 MLOAD DUP1 SWAP2 SUB SWAP1 RETURN JUMPDEST PUSH2 0x1D5 PUSH2 0x834 JUMP JUMPDEST PUSH1 0x40 MLOAD PUSH2 0x1E2 SWAP2 SWAP1 PUSH2 0x11A3 JUMP JUMPDEST PUSH1 0x40 MLOAD DUP1 SWAP2 SUB SWAP1 RETURN JUMPDEST PUSH2 0x205 PUSH1 0x4 DUP1 CALLDATASIZE SUB DUP2 ADD SWAP1 PUSH2 0x200 SWAP2 SWAP1 PUSH2 0x11FA JUMP JUMPDEST PUSH2 0x83A JUMP JUMPDEST PUSH1 0x40 MLOAD PUSH2 0x217 SWAP7 SWAP6 SWAP5 SWAP4 SWAP3 SWAP2 SWAP1 PUSH2 0x130B JUMP JUMPDEST PUSH1 0x40 MLOAD DUP1 SWAP2 SUB SWAP1 RETURN JUMPDEST PUSH2 0x23A PUSH1 0x4 DUP1 CALLDATASIZE SUB DUP2 ADD SWAP1 PUSH2 0x235 SWAP2 SWAP1 PUSH2 0x11BC JUMP JUMPDEST PUSH2 0xA23 JUMP JUMPDEST STOP JUMPDEST PUSH2 0x256 PUSH1 0x4 DUP1 CALLDATASIZE SUB DUP2 ADD SWAP1 PUSH2 0x251 SWAP2 SWAP1 PUSH2 0x10F8 JUMP JUMPDEST PUSH2 0xA45 JUMP JUMPDEST STOP JUMPDEST PUSH2 0x272 PUSH1 0x4 DUP1 CALLDATASIZE SUB DUP2 ADD SWAP1 PUSH2 0x26D SWAP2 SWAP1 PUSH2 0x14AB JUMP JUMPDEST PUSH2 0xB94 JUMP JUMPDEST STOP JUMPDEST PUSH0 PUSH32 0x7965DB0B00000000000000000000000000000000000000000000000000000000 PUSH28 0xFFFFFFFFFFFFFFFFFFFFFFFFFFFFFFFFFFFFFFFFFFFFFFFFFFFFFFFF NOT AND DUP3 PUSH28 0xFFFFFFFFFFFFFFFFFFFFFFFFFFFFFFFFFFFFFFFFFFFFFFFFFFFFFFFF NOT AND EQ DUP1 PUSH2 0x2E6 JUMPI POP PUSH2 0x2E5 DUP3 PUSH2 0xD00 JUMP JUMPDEST JUMPDEST SWAP1 POP SWAP2 SWAP1 POP JUMP JUMPDEST CALLER PUSH20 0xFFFFFFFFFFFFFFFFFFFFFFFFFFFFFFFFFFFFFFFF AND PUSH1 0x1 PUSH0 DUP5 DUP2 MSTORE PUSH1 0x20 ADD SWAP1 DUP2 MSTORE PUSH1 0x20 ADD PUSH0 KECCAK256 PUSH1 0x5 ADD PUSH0 SWAP1 SLOAD SWAP1 PUSH2 0x100 EXP SWAP1 DIV PUSH20 0xFFFFFFFFFFFFFFFFFFFFFFFFFFFFFFFFFFFFFFFF AND PUSH20 0xFFFFFFFFFFFFFFFFFFFFFFFFFFFFFFFFFFFFFFFF AND EQ PUSH2 0x38E JUMPI PUSH1 0x40 MLOAD PUSH32 0x8C379A000000000000000000000000000000000000000000000000000000000 DUP2 MSTORE PUSH1 0x4 ADD PUSH2 0x385 SWAP1 PUSH2 0x15D2 JUMP JUMPDEST PUSH1 0x40 MLOAD DUP1 SWAP2 SUB SWAP1 REVERT JUMPDEST PUSH1 0x1 DUP1 PUSH0 DUP5 DUP2 MSTORE PUSH1 0x20 ADD SWAP1 DUP2 MSTORE PUSH1 0x20 ADD PUSH0 KECCAK256 PUSH1 0x4 ADD PUSH0 DUP4 PUSH20 0xFFFFFFFFFFFFFFFFFFFFFFFFFFFFFFFFFFFFFFFF AND PUSH20 0xFFFFFFFFFFFFFFFFFFFFFFFFFFFFFFFFFFFFFFFF AND DUP2 MSTORE PUSH1 0x20 ADD SWAP1 DUP2 MSTORE PUSH1 0x20 ADD PUSH0 KECCAK256 PUSH0 PUSH2 0x100 EXP DUP2 SLOAD DUP2 PUSH1 0xFF MUL NOT AND SWAP1 DUP4 ISZERO ISZERO MUL OR SWAP1 SSTORE POP DUP1 PUSH20 0xFFFFFFFFFFFFFFFFFFFFFFFFFFFFFFFFFFFFFFFF AND DUP3 PUSH32 0x3C3A9147A1FC73DD51A32F4D10C43D457E8CB826EB6F35CAC6349EB965BA82B4 PUSH1 0x40 MLOAD PUSH1 0x40 MLOAD DUP1 SWAP2 SUB SWAP1 LOG3 POP POP JUMP JUMPDEST PUSH0 DUP1 PUSH0 DUP4 DUP2 MSTORE PUSH1 0x20 ADD SWAP1 DUP2 MSTORE PUSH1 0x20 ADD PUSH0 KECCAK256 PUSH1 0x1 ADD SLOAD SWAP1 POP SWAP2 SWAP1 POP JUMP JUMPDEST PUSH2 0x461 DUP3 PUSH2 0x43C JUMP JUMPDEST PUSH2 0x46A DUP2 PUSH2 0xD69 JUMP JUMPDEST PUSH2 0x474 DUP4 DUP4 PUSH2 0xD7D JUMP JUMPDEST POP POP POP POP JUMP JUMPDEST PUSH2 0x482 PUSH2 0xE66 JUMP JUMPDEST PUSH20 0xFFFFFFFFFFFFFFFFFFFFFFFFFFFFFFFFFFFFFFFF AND DUP2 PUSH20 0xFFFFFFFFFFFFFFFFFFFFFFFFFFFFFFFFFFFFFFFF AND EQ PUSH2 0x4E6 JUMPI PUSH1 0x40 MLOAD PUSH32 0x6697B23200000000000000000000000000000000000000000000000000000000 DUP2 MSTORE PUSH1 0x4 ADD PUSH1 0x40 MLOAD DUP1 SWAP2 SUB SWAP1 REVERT JUMPDEST PUSH2 0x4F0 DUP3 DUP3 PUSH2 0xE6D JUMP JUMPDEST POP POP POP JUMP JUMPDEST PUSH1 0x60 PUSH0 PUSH1 0x60 DUP1 PUSH1 0x1 PUSH0 DUP7 DUP2 MSTORE PUSH1 0x20 ADD SWAP1 DUP2 MSTORE PUSH1 0x20 ADD PUSH0 KECCAK256 PUSH1 0x4 ADD PUSH0 CALLER PUSH20 0xFFFFFFFFFFFFFFFFFFFFFFFFFFFFFFFFFFFFFFFF AND PUSH20 0xFFFFFFFFFFFFFFFFFFFFFFFFFFFFFFFFFFFFFFFF AND DUP2 MSTORE PUSH1 0x20 ADD SWAP1 DUP2 MSTORE PUSH1 0x20 ADD PUSH0 KECCAK256 PUSH0 SWAP1 SLOAD SWAP1 PUSH2 0x100 EXP SWAP1 DIV PUSH1 0xFF AND DUP1 PUSH2 0x5C0 JUMPI POP CALLER PUSH20 0xFFFFFFFFFFFFFFFFFFFFFFFFFFFFFFFFFFFFFFFF AND PUSH1 0x1 PUSH0 DUP8 DUP2 MSTORE PUSH1 0x20 ADD SWAP1 DUP2 MSTORE PUSH1 0x20 ADD PUSH0 KECCAK256 PUSH1 0x5 ADD PUSH0 SWAP1 SLOAD SWAP1 PUSH2 0x100 EXP SWAP1 DIV PUSH20 0xFFFFFFFFFFFFFFFFFFFFFFFFFFFFFFFFFFFFFFFF AND PUSH20 0xFFFFFFFFFFFFFFFFFFFFFFFFFFFFFFFFFFFFFFFF AND EQ JUMPDEST PUSH2 0x5FF JUMPI PUSH1 0x40 MLOAD PUSH32 0x8C379A000000000000000000000000000000000000000000000000000000000 DUP2 MSTORE PUSH1 0x4 ADD PUSH2 0x5F6 SWAP1 PUSH2 0x163A JUMP JUMPDEST PUSH1 0x40 MLOAD DUP1 SWAP2 SUB SWAP1 REVERT JUMPDEST PUSH0 PUSH1 0x1 PUSH0 DUP8 DUP2 MSTORE PUSH1 0x20 ADD SWAP1 DUP2 MSTORE PUSH1 0x20 ADD PUSH0 KECCAK256 SWAP1 POP DUP1 PUSH0 ADD DUP2 PUSH1 0x1 ADD SLOAD DUP3 PUSH1 0x2 ADD DUP4 PUSH1 0x3 ADD DUP4 DUP1 SLOAD PUSH2 0x62F SWAP1 PUSH2 0x1685 JUMP JUMPDEST DUP1 PUSH1 0x1F ADD PUSH1 0x20 DUP1 SWAP2 DIV MUL PUSH1 0x20 ADD PUSH1 0x40 MLOAD SWAP1 DUP2 ADD PUSH1 0x40 MSTORE DUP1 SWAP3 SWAP2 SWAP1 DUP2 DUP2 MSTORE PUSH1 0x20 ADD DUP3 DUP1 SLOAD PUSH2 0x65B SWAP1 PUSH2 0x1685 JUMP JUMPDEST DUP1 ISZERO PUSH2 0x6A6 JUMPI DUP1 PUSH1 0x1F LT PUSH2 0x67D JUMPI PUSH2 0x100 DUP1 DUP4 SLOAD DIV MUL DUP4 MSTORE SWAP2 PUSH1 0x20 ADD SWAP2 PUSH2 0x6A6 JUMP JUMPDEST DUP3 ADD SWAP2 SWAP1 PUSH0 MSTORE PUSH1 0x20 PUSH0 KECCAK256 SWAP1 JUMPDEST DUP2 SLOAD DUP2 MSTORE SWAP1 PUSH1 0x1 ADD SWAP1 PUSH1 0x20 ADD DUP1 DUP4 GT PUSH2 0x689 JUMPI DUP3 SWAP1 SUB PUSH1 0x1F AND DUP3 ADD SWAP2 JUMPDEST POP POP POP POP POP SWAP4 POP DUP2 DUP1 SLOAD PUSH2 0x6B9 SWAP1 PUSH2 0x1685 JUMP JUMPDEST DUP1 PUSH1 0x1F ADD PUSH1 0x20 DUP1 SWAP2 DIV MUL PUSH1 0x20 ADD PUSH1 0x40 MLOAD SWAP1 DUP2 ADD PUSH1 0x40 MSTORE DUP1 SWAP3 SWAP2 SWAP1 DUP2 DUP2 MSTORE PUSH1 0x20 ADD DUP3 DUP1 SLOAD PUSH2 0x6E5 SWAP1 PUSH2 0x1685 JUMP JUMPDEST DUP1 ISZERO PUSH2 0x730 JUMPI DUP1 PUSH1 0x1F LT PUSH2 0x707 JUMPI PUSH2 0x100 DUP1 DUP4 SLOAD DIV MUL DUP4 MSTORE SWAP2 PUSH1 0x20 ADD SWAP2 PUSH2 0x730 JUMP JUMPDEST DUP3 ADD SWAP2 SWAP1 PUSH0 MSTORE PUSH1 0x20 PUSH0 KECCAK256 SWAP1 JUMPDEST DUP2 SLOAD DUP2 MSTORE SWAP1 PUSH1 0x1 ADD SWAP1 PUSH1 0x20 ADD DUP1 DUP4 GT PUSH2 0x713 JUMPI DUP3 SWAP1 SUB PUSH1 0x1F AND DUP3 ADD SWAP2 JUMPDEST POP POP POP POP POP SWAP2 POP DUP1 DUP1 SLOAD PUSH2 0x743 SWAP1 PUSH2 0x1685 JUMP JUMPDEST DUP1 PUSH1 0x1F ADD PUSH1 0x20 DUP1 SWAP2 DIV MUL PUSH1 0x20 ADD PUSH1 0x40 MLOAD SWAP1 DUP2 ADD PUSH1 0x40 MSTORE DUP1 SWAP3 SWAP2 SWAP1 DUP2 DUP2 MSTORE PUSH1 0x20 ADD DUP3 DUP1 SLOAD PUSH2 0x76F SWAP1 PUSH2 0x1685 JUMP JUMPDEST DUP1 ISZERO PUSH2 0x7BA JUMPI DUP1 PUSH1 0x1F LT PUSH2 0x791 JUMPI PUSH2 0x100 DUP1 DUP4 SLOAD DIV MUL DUP4 MSTORE SWAP2 PUSH1 0x20 ADD SWAP2 PUSH2 0x7BA JUMP JUMPDEST DUP3 ADD SWAP2 SWAP1 PUSH0 MSTORE PUSH1 0x20 PUSH0 KECCAK256 SWAP1 JUMPDEST DUP2 SLOAD DUP2 MSTORE SWAP1 PUSH1 0x1 ADD SWAP1 PUSH1 0x20 ADD DUP1 DUP4 GT PUSH2 0x79D JUMPI DUP3 SWAP1 SUB PUSH1 0x1F AND DUP3 ADD SWAP2 JUMPDEST POP POP POP POP POP SWAP1 POP SWAP5 POP SWAP5 POP SWAP5 POP SWAP5 POP POP SWAP2 SWAP4 POP SWAP2 SWAP4 JUMP JUMPDEST PUSH0 DUP1 PUSH0 DUP5 DUP2 MSTORE PUSH1 0x20 ADD SWAP1 DUP2 MSTORE PUSH1 0x20 ADD PUSH0 KECCAK256 PUSH0 ADD PUSH0 DUP4 PUSH20 0xFFFFFFFFFFFFFFFFFFFFFFFFFFFFFFFFFFFFFFFF AND PUSH20 0xFFFFFFFFFFFFFFFFFFFFFFFFFFFFFFFFFFFFFFFF AND DUP2 MSTORE PUSH1 0x20 ADD SWAP1 DUP2 MSTORE PUSH1 0x20 ADD PUSH0 KECCAK256 PUSH0 SWAP1 SLOAD SWAP1 PUSH2 0x100 EXP SWAP1 DIV PUSH1 0xFF AND SWAP1 POP SWAP3 SWAP2 POP POP JUMP JUMPDEST PUSH0 DUP1 SHL DUP2 JUMP JUMPDEST PUSH1 0x1 PUSH1 0x20 MSTORE DUP1 PUSH0 MSTORE PUSH1 0x40 PUSH0 KECCAK256 PUSH0 SWAP2 POP SWAP1 POP DUP1 PUSH0 ADD DUP1 SLOAD PUSH2 0x859 SWAP1 PUSH2 0x1685 JUMP JUMPDEST DUP1 PUSH1 0x1F ADD PUSH1 0x20 DUP1 SWAP2 DIV MUL PUSH1 0x20 ADD PUSH1 0x40 MLOAD SWAP1 DUP2 ADD PUSH1 0x40 MSTORE DUP1 SWAP3 SWAP2 SWAP1 DUP2 DUP2 MSTORE PUSH1 0x20 ADD DUP3 DUP1 SLOAD PUSH2 0x885 SWAP1 PUSH2 0x1685 JUMP JUMPDEST DUP1 ISZERO PUSH2 0x8D0 JUMPI DUP1 PUSH1 0x1F LT PUSH2 0x8A7 JUMPI PUSH2 0x100 DUP1 DUP4 SLOAD DIV MUL DUP4 MSTORE SWAP2 PUSH1 0x20 ADD SWAP2 PUSH2 0x8D0 JUMP JUMPDEST DUP3 ADD SWAP2 SWAP1 PUSH0 MSTORE PUSH1 0x20 PUSH0 KECCAK256 SWAP1 JUMPDEST DUP2 SLOAD DUP2 MSTORE SWAP1 PUSH1 0x1 ADD SWAP1 PUSH1 0x20 ADD DUP1 DUP4 GT PUSH2 0x8B3 JUMPI DUP3 SWAP1 SUB PUSH1 0x1F AND DUP3 ADD SWAP2 JUMPDEST POP POP POP POP POP SWAP1 DUP1 PUSH1 0x1 ADD SLOAD SWAP1 DUP1 PUSH1 0x2 ADD DUP1 SLOAD PUSH2 0x8EB SWAP1 PUSH2 0x1685 JUMP JUMPDEST DUP1 PUSH1 0x1F ADD PUSH1 0x20 DUP1 SWAP2 DIV MUL PUSH1 0x20 ADD PUSH1 0x40 MLOAD SWAP1 DUP2 ADD PUSH1 0x40 MSTORE DUP1 SWAP3 SWAP2 SWAP1 DUP2 DUP2 MSTORE PUSH1 0x20 ADD DUP3 DUP1 SLOAD PUSH2 0x917 SWAP1 PUSH2 0x1685 JUMP JUMPDEST DUP1 ISZERO PUSH2 0x962 JUMPI DUP1 PUSH1 0x1F LT PUSH2 0x939 JUMPI PUSH2 0x100 DUP1 DUP4 SLOAD DIV MUL DUP4 MSTORE SWAP2 PUSH1 0x20 ADD SWAP2 PUSH2 0x962 JUMP JUMPDEST DUP3 ADD SWAP2 SWAP1 PUSH0 MSTORE PUSH1 0x20 PUSH0 KECCAK256 SWAP1 JUMPDEST DUP2 SLOAD DUP2 MSTORE SWAP1 PUSH1 0x1 ADD SWAP1 PUSH1 0x20 ADD DUP1 DUP4 GT PUSH2 0x945 JUMPI DUP3 SWAP1 SUB PUSH1 0x1F AND DUP3 ADD SWAP2 JUMPDEST POP POP POP POP POP SWAP1 DUP1 PUSH1 0x3 ADD DUP1 SLOAD PUSH2 0x977 SWAP1 PUSH2 0x1685 JUMP JUMPDEST DUP1 PUSH1 0x1F ADD PUSH1 0x20 DUP1 SWAP2 DIV MUL PUSH1 0x20 ADD PUSH1 0x40 MLOAD SWAP1 DUP2 ADD PUSH1 0x40 MSTORE DUP1 SWAP3 SWAP2 SWAP1 DUP2 DUP2 MSTORE PUSH1 0x20 ADD DUP3 DUP1 SLOAD PUSH2 0x9A3 SWAP1 PUSH2 0x1685 JUMP JUMPDEST DUP1 ISZERO PUSH2 0x9EE JUMPI DUP1 PUSH1 0x1F LT PUSH2 0x9C5 JUMPI PUSH2 0x100 DUP1 DUP4 SLOAD DIV MUL DUP4 MSTORE SWAP2 PUSH1 0x20 ADD SWAP2 PUSH2 0x9EE JUMP JUMPDEST DUP3 ADD SWAP2 SWAP1 PUSH0 MSTORE PUSH1 0x20 PUSH0 KECCAK256 SWAP1 JUMPDEST DUP2 SLOAD DUP2 MSTORE SWAP1 PUSH1 0x1 ADD SWAP1 PUSH1 0x20 ADD DUP1 DUP4 GT PUSH2 0x9D1 JUMPI DUP3 SWAP1 SUB PUSH1 0x1F AND DUP3 ADD SWAP2 JUMPDEST POP POP POP POP POP SWAP1 DUP1 PUSH1 0x5 ADD PUSH0 SWAP1 SLOAD SWAP1 PUSH2 0x100 EXP SWAP1 DIV PUSH20 0xFFFFFFFFFFFFFFFFFFFFFFFFFFFFFFFFFFFFFFFF AND SWAP1 DUP1 PUSH1 0x6 ADD SLOAD SWAP1 POP DUP7 JUMP JUMPDEST PUSH2 0xA2C DUP3 PUSH2 0x43C JUMP JUMPDEST PUSH2 0xA35 DUP2 PUSH2 0xD69 JUMP JUMPDEST PUSH2 0xA3F DUP4 DUP4 PUSH2 0xE6D JUMP JUMPDEST POP POP POP POP JUMP JUMPDEST CALLER PUSH20 0xFFFFFFFFFFFFFFFFFFFFFFFFFFFFFFFFFFFFFFFF AND PUSH1 0x1 PUSH0 DUP5 DUP2 MSTORE PUSH1 0x20 ADD SWAP1 DUP2 MSTORE PUSH1 0x20 ADD PUSH0 KECCAK256 PUSH1 0x5 ADD PUSH0 SWAP1 SLOAD SWAP1 PUSH2 0x100 EXP SWAP1 DIV PUSH20 0xFFFFFFFFFFFFFFFFFFFFFFFFFFFFFFFFFFFFFFFF AND PUSH20 0xFFFFFFFFFFFFFFFFFFFFFFFFFFFFFFFFFFFFFFFF AND EQ PUSH2 0xAE6 JUMPI PUSH1 0x40 MLOAD PUSH32 0x8C379A000000000000000000000000000000000000000000000000000000000 DUP2 MSTORE PUSH1 0x4 ADD PUSH2 0xADD SWAP1 PUSH2 0x1725 JUMP JUMPDEST PUSH1 0x40 MLOAD DUP1 SWAP2 SUB SWAP1 REVERT JUMPDEST PUSH0 PUSH1 0x1 PUSH0 DUP5 DUP2 MSTORE PUSH1 0x20 ADD SWAP1 DUP2 MSTORE PUSH1 0x20 ADD PUSH0 KECCAK256 PUSH1 0x4 ADD PUSH0 DUP4 PUSH20 0xFFFFFFFFFFFFFFFFFFFFFFFFFFFFFFFFFFFFFFFF AND PUSH20 0xFFFFFFFFFFFFFFFFFFFFFFFFFFFFFFFFFFFFFFFF AND DUP2 MSTORE PUSH1 0x20 ADD SWAP1 DUP2 MSTORE PUSH1 0x20 ADD PUSH0 KECCAK256 PUSH0 PUSH2 0x100 EXP DUP2 SLOAD DUP2 PUSH1 0xFF MUL NOT AND SWAP1 DUP4 ISZERO ISZERO MUL OR SWAP1 SSTORE POP DUP1 PUSH20 0xFFFFFFFFFFFFFFFFFFFFFFFFFFFFFFFFFFFFFFFF AND DUP3 PUSH32 0x125883B94692BAEBECAD9F111ED97FFA626523BBBADC6B0EF85EE1B56B9E52D5 PUSH1 0x40 MLOAD PUSH1 0x40 MLOAD DUP1 SWAP2 SUB SWAP1 LOG3 POP POP JUMP JUMPDEST PUSH0 DUP5 GT PUSH2 0xBD6 JUMPI PUSH1 0x40 MLOAD PUSH32 0x8C379A000000000000000000000000000000000000000000000000000000000 DUP2 MSTORE PUSH1 0x4 ADD PUSH2 0xBCD SWAP1 PUSH2 0x178D JUMP JUMPDEST PUSH1 0x40 MLOAD DUP1 SWAP2 SUB SWAP1 REVERT JUMPDEST PUSH0 PUSH1 0x1 PUSH0 DUP9 DUP2 MSTORE PUSH1 0x20 ADD SWAP1 DUP2 MSTORE PUSH1 0x20 ADD PUSH0 KECCAK256 SWAP1 POP DUP6 DUP2 PUSH0 ADD SWAP1 DUP2 PUSH2 0xBFA SWAP2 SWAP1 PUSH2 0x1948 JUMP JUMPDEST POP DUP5 DUP2 PUSH1 0x1 ADD DUP2 SWAP1 SSTORE POP DUP4 DUP2 PUSH1 0x2 ADD SWAP1 DUP2 PUSH2 0xC15 SWAP2 SWAP1 PUSH2 0x1948 JUMP JUMPDEST POP DUP3 DUP2 PUSH1 0x3 ADD SWAP1 DUP2 PUSH2 0xC27 SWAP2 SWAP1 PUSH2 0x1948 JUMP JUMPDEST POP DUP2 DUP2 PUSH1 0x6 ADD DUP2 SWAP1 SSTORE POP CALLER DUP2 PUSH1 0x5 ADD PUSH0 PUSH2 0x100 EXP DUP2 SLOAD DUP2 PUSH20 0xFFFFFFFFFFFFFFFFFFFFFFFFFFFFFFFFFFFFFFFF MUL NOT AND SWAP1 DUP4 PUSH20 0xFFFFFFFFFFFFFFFFFFFFFFFFFFFFFFFFFFFFFFFF AND MUL OR SWAP1 SSTORE POP PUSH1 0x1 DUP2 PUSH1 0x4 ADD PUSH0 CALLER PUSH20 0xFFFFFFFFFFFFFFFFFFFFFFFFFFFFFFFFFFFFFFFF AND PUSH20 0xFFFFFFFFFFFFFFFFFFFFFFFFFFFFFFFFFFFFFFFF AND DUP2 MSTORE PUSH1 0x20 ADD SWAP1 DUP2 MSTORE PUSH1 0x20 ADD PUSH0 KECCAK256 PUSH0 PUSH2 0x100 EXP DUP2 SLOAD DUP2 PUSH1 0xFF MUL NOT AND SWAP1 DUP4 ISZERO ISZERO MUL OR SWAP1 SSTORE POP DUP7 PUSH32 0x7F7C53560EED5D6AAB9DB16ABD65F6A8B3ED69D910C5E8E8842215596FFC6D78 PUSH1 0x40 MLOAD PUSH1 0x40 MLOAD DUP1 SWAP2 SUB SWAP1 LOG2 POP POP POP POP POP POP POP JUMP JUMPDEST PUSH0 PUSH32 0x1FFC9A700000000000000000000000000000000000000000000000000000000 PUSH28 0xFFFFFFFFFFFFFFFFFFFFFFFFFFFFFFFFFFFFFFFFFFFFFFFFFFFFFFFF NOT AND DUP3 PUSH28 0xFFFFFFFFFFFFFFFFFFFFFFFFFFFFFFFFFFFFFFFFFFFFFFFFFFFFFFFF NOT AND EQ SWAP1 POP SWAP2 SWAP1 POP JUMP JUMPDEST PUSH2 0xD7A DUP2 PUSH2 0xD75 PUSH2 0xE66 JUMP JUMPDEST PUSH2 0xF56 JUMP JUMPDEST POP JUMP JUMPDEST PUSH0 PUSH2 0xD88 DUP4 DUP4 PUSH2 0x7D1 JUMP JUMPDEST PUSH2 0xE5C JUMPI PUSH1 0x1 PUSH0 DUP1 DUP6 DUP2 MSTORE PUSH1 0x20 ADD SWAP1 DUP2 MSTORE PUSH1 0x20 ADD PUSH0 KECCAK256 PUSH0 ADD PUSH0 DUP5 PUSH20 0xFFFFFFFFFFFFFFFFFFFFFFFFFFFFFFFFFFFFFFFF AND PUSH20 0xFFFFFFFFFFFFFFFFFFFFFFFFFFFFFFFFFFFFFFFF AND DUP2 MSTORE PUSH1 0x20 ADD SWAP1 DUP2 MSTORE PUSH1 0x20 ADD PUSH0 KECCAK256 PUSH0 PUSH2 0x100 EXP DUP2 SLOAD DUP2 PUSH1 0xFF MUL NOT AND SWAP1 DUP4 ISZERO ISZERO MUL OR SWAP1 SSTORE POP PUSH2 0xDF9 PUSH2 0xE66 JUMP JUMPDEST PUSH20 0xFFFFFFFFFFFFFFFFFFFFFFFFFFFFFFFFFFFFFFFF AND DUP3 PUSH20 0xFFFFFFFFFFFFFFFFFFFFFFFFFFFFFFFFFFFFFFFF AND DUP5 PUSH32 0x2F8788117E7EFF1D82E926EC794901D17C78024A50270940304540A733656F0D PUSH1 0x40 MLOAD PUSH1 0x40 MLOAD DUP1 SWAP2 SUB SWAP1 LOG4 PUSH1 0x1 SWAP1 POP PUSH2 0xE60 JUMP JUMPDEST PUSH0 SWAP1 POP JUMPDEST SWAP3 SWAP2 POP POP JUMP JUMPDEST PUSH0 CALLER SWAP1 POP SWAP1 JUMP JUMPDEST PUSH0 PUSH2 0xE78 DUP4 DUP4 PUSH2 0x7D1 JUMP JUMPDEST ISZERO PUSH2 0xF4C JUMPI PUSH0 DUP1 PUSH0 DUP6 DUP2 MSTORE PUSH1 0x20 ADD SWAP1 DUP2 MSTORE PUSH1 0x20 ADD PUSH0 KECCAK256 PUSH0 ADD PUSH0 DUP5 PUSH20 0xFFFFFFFFFFFFFFFFFFFFFFFFFFFFFFFFFFFFFFFF AND PUSH20 0xFFFFFFFFFFFFFFFFFFFFFFFFFFFFFFFFFFFFFFFF AND DUP2 MSTORE PUSH1 0x20 ADD SWAP1 DUP2 MSTORE PUSH1 0x20 ADD PUSH0 KECCAK256 PUSH0 PUSH2 0x100 EXP DUP2 SLOAD DUP2 PUSH1 0xFF MUL NOT AND SWAP1 DUP4 ISZERO ISZERO MUL OR SWAP1 SSTORE POP PUSH2 0xEE9 PUSH2 0xE66 JUMP JUMPDEST PUSH20 0xFFFFFFFFFFFFFFFFFFFFFFFFFFFFFFFFFFFFFFFF AND DUP3 PUSH20 0xFFFFFFFFFFFFFFFFFFFFFFFFFFFFFFFFFFFFFFFF AND DUP5 PUSH32 0xF6391F5C32D9C69D2A47EA670B442974B53935D1EDC7FD64EB21E047A839171B PUSH1 0x40 MLOAD PUSH1 0x40 MLOAD DUP1 SWAP2 SUB SWAP1 LOG4 PUSH1 0x1 SWAP1 POP PUSH2 0xF50 JUMP JUMPDEST PUSH0 SWAP1 POP JUMPDEST SWAP3 SWAP2 POP POP JUMP JUMPDEST PUSH2 0xF60 DUP3 DUP3 PUSH2 0x7D1 JUMP JUMPDEST PUSH2 0xFA3 JUMPI DUP1 DUP3 PUSH1 0x40 MLOAD PUSH32 0xE2517D3F00000000000000000000000000000000000000000000000000000000 DUP2 MSTORE PUSH1 0x4 ADD PUSH2 0xF9A SWAP3 SWAP2 SWAP1 PUSH2 0x1A17 JUMP JUMPDEST PUSH1 0x40 MLOAD DUP1 SWAP2 SUB SWAP1 REVERT JUMPDEST POP POP JUMP JUMPDEST PUSH0 PUSH1 0x40 MLOAD SWAP1 POP SWAP1 JUMP JUMPDEST PUSH0 DUP1 REVERT JUMPDEST PUSH0 DUP1 REVERT JUMPDEST PUSH0 PUSH32 0xFFFFFFFF00000000000000000000000000000000000000000000000000000000 DUP3 AND SWAP1 POP SWAP2 SWAP1 POP JUMP JUMPDEST PUSH2 0xFEC DUP2 PUSH2 0xFB8 JUMP JUMPDEST DUP2 EQ PUSH2 0xFF6 JUMPI PUSH0 DUP1 REVERT JUMPDEST POP JUMP JUMPDEST PUSH0 DUP2 CALLDATALOAD SWAP1 POP PUSH2 0x1007 DUP2 PUSH2 0xFE3 JUMP JUMPDEST SWAP3 SWAP2 POP POP JUMP JUMPDEST PUSH0 PUSH1 0x20 DUP3 DUP5 SUB SLT ISZERO PUSH2 0x1022 JUMPI PUSH2 0x1021 PUSH2 0xFB0 JUMP JUMPDEST JUMPDEST PUSH0 PUSH2 0x102F DUP5 DUP3 DUP6 ADD PUSH2 0xFF9 JUMP JUMPDEST SWAP2 POP POP SWAP3 SWAP2 POP POP JUMP JUMPDEST PUSH0 DUP2 ISZERO ISZERO SWAP1 POP SWAP2 SWAP1 POP JUMP JUMPDEST PUSH2 0x104C DUP2 PUSH2 0x1038 JUMP JUMPDEST DUP3 MSTORE POP POP JUMP JUMPDEST PUSH0 PUSH1 0x20 DUP3 ADD SWAP1 POP PUSH2 0x1065 PUSH0 DUP4 ADD DUP5 PUSH2 0x1043 JUMP JUMPDEST SWAP3 SWAP2 POP POP JUMP JUMPDEST PUSH0 DUP2 SWAP1 POP SWAP2 SWAP1 POP JUMP JUMPDEST PUSH2 0x107D DUP2 PUSH2 0x106B JUMP JUMPDEST DUP2 EQ PUSH2 0x1087 JUMPI PUSH0 DUP1 REVERT JUMPDEST POP JUMP JUMPDEST PUSH0 DUP2 CALLDATALOAD SWAP1 POP PUSH2 0x1098 DUP2 PUSH2 0x1074 JUMP JUMPDEST SWAP3 SWAP2 POP POP JUMP JUMPDEST PUSH0 PUSH20 0xFFFFFFFFFFFFFFFFFFFFFFFFFFFFFFFFFFFFFFFF DUP3 AND SWAP1 POP SWAP2 SWAP1 POP JUMP JUMPDEST PUSH0 PUSH2 0x10C7 DUP3 PUSH2 0x109E JUMP JUMPDEST SWAP1 POP SWAP2 SWAP1 POP JUMP JUMPDEST PUSH2 0x10D7 DUP2 PUSH2 0x10BD JUMP JUMPDEST DUP2 EQ PUSH2 0x10E1 JUMPI PUSH0 DUP1 REVERT JUMPDEST POP JUMP JUMPDEST PUSH0 DUP2 CALLDATALOAD SWAP1 POP PUSH2 0x10F2 DUP2 PUSH2 0x10CE JUMP JUMPDEST SWAP3 SWAP2 POP POP JUMP JUMPDEST PUSH0 DUP1 PUSH1 0x40 DUP4 DUP6 SUB SLT ISZERO PUSH2 0x110E JUMPI PUSH2 0x110D PUSH2 0xFB0 JUMP JUMPDEST JUMPDEST PUSH0 PUSH2 0x111B DUP6 DUP3 DUP7 ADD PUSH2 0x108A JUMP JUMPDEST SWAP3 POP POP PUSH1 0x20 PUSH2 0x112C DUP6 DUP3 DUP7 ADD PUSH2 0x10E4 JUMP JUMPDEST SWAP2 POP POP SWAP3 POP SWAP3 SWAP1 POP JUMP JUMPDEST PUSH0 DUP2 SWAP1 POP SWAP2 SWAP1 POP JUMP JUMPDEST PUSH2 0x1148 DUP2 PUSH2 0x1136 JUMP JUMPDEST DUP2 EQ PUSH2 0x1152 JUMPI PUSH0 DUP1 REVERT JUMPDEST POP JUMP JUMPDEST PUSH0 DUP2 CALLDATALOAD SWAP1 POP PUSH2 0x1163 DUP2 PUSH2 0x113F JUMP JUMPDEST SWAP3 SWAP2 POP POP JUMP JUMPDEST PUSH0 PUSH1 0x20 DUP3 DUP5 SUB SLT ISZERO PUSH2 0x117E JUMPI PUSH2 0x117D PUSH2 0xFB0 JUMP JUMPDEST JUMPDEST PUSH0 PUSH2 0x118B DUP5 DUP3 DUP6 ADD PUSH2 0x1155 JUMP JUMPDEST SWAP2 POP POP SWAP3 SWAP2 POP POP JUMP JUMPDEST PUSH2 0x119D DUP2 PUSH2 0x1136 JUMP JUMPDEST DUP3 MSTORE POP POP JUMP JUMPDEST PUSH0 PUSH1 0x20 DUP3 ADD SWAP1 POP PUSH2 0x11B6 PUSH0 DUP4 ADD DUP5 PUSH2 0x1194 JUMP JUMPDEST SWAP3 SWAP2 POP POP JUMP JUMPDEST PUSH0 DUP1 PUSH1 0x40 DUP4 DUP6 SUB SLT ISZERO PUSH2 0x11D2 JUMPI PUSH2 0x11D1 PUSH2 0xFB0 JUMP JUMPDEST JUMPDEST PUSH0 PUSH2 0x11DF DUP6 DUP3 DUP7 ADD PUSH2 0x1155 JUMP JUMPDEST SWAP3 POP POP PUSH1 0x20 PUSH2 0x11F0 DUP6 DUP3 DUP7 ADD PUSH2 0x10E4 JUMP JUMPDEST SWAP2 POP POP SWAP3 POP SWAP3 SWAP1 POP JUMP JUMPDEST PUSH0 PUSH1 0x20 DUP3 DUP5 SUB SLT ISZERO PUSH2 0x120F JUMPI PUSH2 0x120E PUSH2 0xFB0 JUMP JUMPDEST JUMPDEST PUSH0 PUSH2 0x121C DUP5 DUP3 DUP6 ADD PUSH2 0x108A JUMP JUMPDEST SWAP2 POP POP SWAP3 SWAP2 POP POP JUMP JUMPDEST PUSH0 DUP2 MLOAD SWAP1 POP SWAP2 SWAP1 POP JUMP JUMPDEST PUSH0 DUP3 DUP3 MSTORE PUSH1 0x20 DUP3 ADD SWAP1 POP SWAP3 SWAP2 POP POP JUMP JUMPDEST DUP3 DUP2 DUP4 MCOPY PUSH0 DUP4 DUP4 ADD MSTORE POP POP POP JUMP JUMPDEST PUSH0 PUSH1 0x1F NOT PUSH1 0x1F DUP4 ADD AND SWAP1 POP SWAP2 SWAP1 POP JUMP JUMPDEST PUSH0 PUSH2 0x1267 DUP3 PUSH2 0x1225 JUMP JUMPDEST PUSH2 0x1271 DUP2 DUP6 PUSH2 0x122F JUMP JUMPDEST SWAP4 POP PUSH2 0x1281 DUP2 DUP6 PUSH1 0x20 DUP7 ADD PUSH2 0x123F JUMP JUMPDEST PUSH2 0x128A DUP2 PUSH2 0x124D JUMP JUMPDEST DUP5 ADD SWAP2 POP POP SWAP3 SWAP2 POP POP JUMP JUMPDEST PUSH2 0x129E DUP2 PUSH2 0x106B JUMP JUMPDEST DUP3 MSTORE POP POP JUMP JUMPDEST PUSH0 PUSH1 0x80 DUP3 ADD SWAP1 POP DUP2 DUP2 SUB PUSH0 DUP4 ADD MSTORE PUSH2 0x12BC DUP2 DUP8 PUSH2 0x125D JUMP JUMPDEST SWAP1 POP PUSH2 0x12CB PUSH1 0x20 DUP4 ADD DUP7 PUSH2 0x1295 JUMP JUMPDEST DUP2 DUP2 SUB PUSH1 0x40 DUP4 ADD MSTORE PUSH2 0x12DD DUP2 DUP6 PUSH2 0x125D JUMP JUMPDEST SWAP1 POP DUP2 DUP2 SUB PUSH1 0x60 DUP4 ADD MSTORE PUSH2 0x12F1 DUP2 DUP5 PUSH2 0x125D JUMP JUMPDEST SWAP1 POP SWAP6 SWAP5 POP POP POP POP POP JUMP JUMPDEST PUSH2 0x1305 DUP2 PUSH2 0x10BD JUMP JUMPDEST DUP3 MSTORE POP POP JUMP JUMPDEST PUSH0 PUSH1 0xC0 DUP3 ADD SWAP1 POP DUP2 DUP2 SUB PUSH0 DUP4 ADD MSTORE PUSH2 0x1323 DUP2 DUP10 PUSH2 0x125D JUMP JUMPDEST SWAP1 POP PUSH2 0x1332 PUSH1 0x20 DUP4 ADD DUP9 PUSH2 0x1295 JUMP JUMPDEST DUP2 DUP2 SUB PUSH1 0x40 DUP4 ADD MSTORE PUSH2 0x1344 DUP2 DUP8 PUSH2 0x125D JUMP JUMPDEST SWAP1 POP DUP2 DUP2 SUB PUSH1 0x60 DUP4 ADD MSTORE PUSH2 0x1358 DUP2 DUP7 PUSH2 0x125D JUMP JUMPDEST SWAP1 POP PUSH2 0x1367 PUSH1 0x80 DUP4 ADD DUP6 PUSH2 0x12FC JUMP JUMPDEST PUSH2 0x1374 PUSH1 0xA0 DUP4 ADD DUP5 PUSH2 0x1194 JUMP JUMPDEST SWAP8 SWAP7 POP POP POP POP POP POP POP JUMP JUMPDEST PUSH0 DUP1 REVERT JUMPDEST PUSH0 DUP1 REVERT JUMPDEST PUSH32 0x4E487B7100000000000000000000000000000000000000000000000000000000 PUSH0 MSTORE PUSH1 0x41 PUSH1 0x4 MSTORE PUSH1 0x24 PUSH0 REVERT JUMPDEST PUSH2 0x13BD DUP3 PUSH2 0x124D JUMP JUMPDEST DUP2 ADD DUP2 DUP2 LT PUSH8 0xFFFFFFFFFFFFFFFF DUP3 GT OR ISZERO PUSH2 0x13DC JUMPI PUSH2 0x13DB PUSH2 0x1387 JUMP JUMPDEST JUMPDEST DUP1 PUSH1 0x40 MSTORE POP POP POP JUMP JUMPDEST PUSH0 PUSH2 0x13EE PUSH2 0xFA7 JUMP JUMPDEST SWAP1 POP PUSH2 0x13FA DUP3 DUP3 PUSH2 0x13B4 JUMP JUMPDEST SWAP2 SWAP1 POP JUMP JUMPDEST PUSH0 PUSH8 0xFFFFFFFFFFFFFFFF DUP3 GT ISZERO PUSH2 0x1419 JUMPI PUSH2 0x1418 PUSH2 0x1387 JUMP JUMPDEST JUMPDEST PUSH2 0x1422 DUP3 PUSH2 0x124D JUMP JUMPDEST SWAP1 POP PUSH1 0x20 DUP2 ADD SWAP1 POP SWAP2 SWAP1 POP JUMP JUMPDEST DUP3 DUP2 DUP4 CALLDATACOPY PUSH0 DUP4 DUP4 ADD MSTORE POP POP POP JUMP JUMPDEST PUSH0 PUSH2 0x144F PUSH2 0x144A DUP5 PUSH2 0x13FF JUMP JUMPDEST PUSH2 0x13E5 JUMP JUMPDEST SWAP1 POP DUP3 DUP2 MSTORE PUSH1 0x20 DUP2 ADD DUP5 DUP5 DUP5 ADD GT ISZERO PUSH2 0x146B JUMPI PUSH2 0x146A PUSH2 0x1383 JUMP JUMPDEST JUMPDEST PUSH2 0x1476 DUP5 DUP3 DUP6 PUSH2 0x142F JUMP JUMPDEST POP SWAP4 SWAP3 POP POP POP JUMP JUMPDEST PUSH0 DUP3 PUSH1 0x1F DUP4 ADD SLT PUSH2 0x1492 JUMPI PUSH2 0x1491 PUSH2 0x137F JUMP JUMPDEST JUMPDEST DUP2 CALLDATALOAD PUSH2 0x14A2 DUP5 DUP3 PUSH1 0x20 DUP7 ADD PUSH2 0x143D JUMP JUMPDEST SWAP2 POP POP SWAP3 SWAP2 POP POP JUMP JUMPDEST PUSH0 DUP1 PUSH0 DUP1 PUSH0 DUP1 PUSH1 0xC0 DUP8 DUP10 SUB SLT ISZERO PUSH2 0x14C5 JUMPI PUSH2 0x14C4 PUSH2 0xFB0 JUMP JUMPDEST JUMPDEST PUSH0 PUSH2 0x14D2 DUP10 DUP3 DUP11 ADD PUSH2 0x108A JUMP JUMPDEST SWAP7 POP POP PUSH1 0x20 DUP8 ADD CALLDATALOAD PUSH8 0xFFFFFFFFFFFFFFFF DUP2 GT ISZERO PUSH2 0x14F3 JUMPI PUSH2 0x14F2 PUSH2 0xFB4 JUMP JUMPDEST JUMPDEST PUSH2 0x14FF DUP10 DUP3 DUP11 ADD PUSH2 0x147E JUMP JUMPDEST SWAP6 POP POP PUSH1 0x40 PUSH2 0x1510 DUP10 DUP3 DUP11 ADD PUSH2 0x108A JUMP JUMPDEST SWAP5 POP POP PUSH1 0x60 DUP8 ADD CALLDATALOAD PUSH8 0xFFFFFFFFFFFFFFFF DUP2 GT ISZERO PUSH2 0x1531 JUMPI PUSH2 0x1530 PUSH2 0xFB4 JUMP JUMPDEST JUMPDEST PUSH2 0x153D DUP10 DUP3 DUP11 ADD PUSH2 0x147E JUMP JUMPDEST SWAP4 POP POP PUSH1 0x80 DUP8 ADD CALLDATALOAD PUSH8 0xFFFFFFFFFFFFFFFF DUP2 GT ISZERO PUSH2 0x155E JUMPI PUSH2 0x155D PUSH2 0xFB4 JUMP JUMPDEST JUMPDEST PUSH2 0x156A DUP10 DUP3 DUP11 ADD PUSH2 0x147E JUMP JUMPDEST SWAP3 POP POP PUSH1 0xA0 PUSH2 0x157B DUP10 DUP3 DUP11 ADD PUSH2 0x1155 JUMP JUMPDEST SWAP2 POP POP SWAP3 SWAP6 POP SWAP3 SWAP6 POP SWAP3 SWAP6 JUMP JUMPDEST PUSH32 0x4F6E6C7920746865206F776E65722063616E206772616E74206163636573732E PUSH0 DUP3 ADD MSTORE POP JUMP JUMPDEST PUSH0 PUSH2 0x15BC PUSH1 0x20 DUP4 PUSH2 0x122F JUMP JUMPDEST SWAP2 POP PUSH2 0x15C7 DUP3 PUSH2 0x1588 JUMP JUMPDEST PUSH1 0x20 DUP3 ADD SWAP1 POP SWAP2 SWAP1 POP JUMP JUMPDEST PUSH0 PUSH1 0x20 DUP3 ADD SWAP1 POP DUP2 DUP2 SUB PUSH0 DUP4 ADD MSTORE PUSH2 0x15E9 DUP2 PUSH2 0x15B0 JUMP JUMPDEST SWAP1 POP SWAP2 SWAP1 POP JUMP JUMPDEST PUSH32 0x4163636573732064656E6965642E000000000000000000000000000000000000 PUSH0 DUP3 ADD MSTORE POP JUMP JUMPDEST PUSH0 PUSH2 0x1624 PUSH1 0xE DUP4 PUSH2 0x122F JUMP JUMPDEST SWAP2 POP PUSH2 0x162F DUP3 PUSH2 0x15F0 JUMP JUMPDEST PUSH1 0x20 DUP3 ADD SWAP1 POP SWAP2 SWAP1 POP JUMP JUMPDEST PUSH0 PUSH1 0x20 DUP3 ADD SWAP1 POP DUP2 DUP2 SUB PUSH0 DUP4 ADD MSTORE PUSH2 0x1651 DUP2 PUSH2 0x1618 JUMP JUMPDEST SWAP1 POP SWAP2 SWAP1 POP JUMP JUMPDEST PUSH32 0x4E487B7100000000000000000000000000000000000000000000000000000000 PUSH0 MSTORE PUSH1 0x22 PUSH1 0x4 MSTORE PUSH1 0x24 PUSH0 REVERT JUMPDEST PUSH0 PUSH1 0x2 DUP3 DIV SWAP1 POP PUSH1 0x1 DUP3 AND DUP1 PUSH2 0x169C JUMPI PUSH1 0x7F DUP3 AND SWAP2 POP JUMPDEST PUSH1 0x20 DUP3 LT DUP2 SUB PUSH2 0x16AF JUMPI PUSH2 0x16AE PUSH2 0x1658 JUMP JUMPDEST JUMPDEST POP SWAP2 SWAP1 POP JUMP JUMPDEST PUSH32 0x4F6E6C7920746865206F776E65722063616E207265766F6B6520616363657373 PUSH0 DUP3 ADD MSTORE PUSH32 0x2E00000000000000000000000000000000000000000000000000000000000000 PUSH1 0x20 DUP3 ADD MSTORE POP JUMP JUMPDEST PUSH0 PUSH2 0x170F PUSH1 0x21 DUP4 PUSH2 0x122F JUMP JUMPDEST SWAP2 POP PUSH2 0x171A DUP3 PUSH2 0x16B5 JUMP JUMPDEST PUSH1 0x40 DUP3 ADD SWAP1 POP SWAP2 SWAP1 POP JUMP JUMPDEST PUSH0 PUSH1 0x20 DUP3 ADD SWAP1 POP DUP2 DUP2 SUB PUSH0 DUP4 ADD MSTORE PUSH2 0x173C DUP2 PUSH2 0x1703 JUMP JUMPDEST SWAP1 POP SWAP2 SWAP1 POP JUMP JUMPDEST PUSH32 0x416765206D75737420626520706F736974697665000000000000000000000000 PUSH0 DUP3 ADD MSTORE POP JUMP JUMPDEST PUSH0 PUSH2 0x1777 PUSH1 0x14 DUP4 PUSH2 0x122F JUMP JUMPDEST SWAP2 POP PUSH2 0x1782 DUP3 PUSH2 0x1743 JUMP JUMPDEST PUSH1 0x20 DUP3 ADD SWAP1 POP SWAP2 SWAP1 POP JUMP JUMPDEST PUSH0 PUSH1 0x20 DUP3 ADD SWAP1 POP DUP2 DUP2 SUB PUSH0 DUP4 ADD MSTORE PUSH2 0x17A4 DUP2 PUSH2 0x176B JUMP JUMPDEST SWAP1 POP SWAP2 SWAP1 POP JUMP JUMPDEST PUSH0 DUP2 SWAP1 POP DUP2 PUSH0 MSTORE PUSH1 0x20 PUSH0 KECCAK256 SWAP1 POP SWAP2 SWAP1 POP JUMP JUMPDEST PUSH0 PUSH1 0x20 PUSH1 0x1F DUP4 ADD DIV SWAP1 POP SWAP2 SWAP1 POP JUMP JUMPDEST PUSH0 DUP3 DUP3 SHL SWAP1 POP SWAP3 SWAP2 POP POP JUMP JUMPDEST PUSH0 PUSH1 0x8 DUP4 MUL PUSH2 0x1807 PUSH32 0xFFFFFFFFFFFFFFFFFFFFFFFFFFFFFFFFFFFFFFFFFFFFFFFFFFFFFFFFFFFFFFFF DUP3 PUSH2 0x17CC JUMP JUMPDEST PUSH2 0x1811 DUP7 DUP4 PUSH2 0x17CC JUMP JUMPDEST SWAP6 POP DUP1 NOT DUP5 AND SWAP4 POP DUP1 DUP7 AND DUP5 OR SWAP3 POP POP POP SWAP4 SWAP3 POP POP POP JUMP JUMPDEST PUSH0 DUP2 SWAP1 POP SWAP2 SWAP1 POP JUMP JUMPDEST PUSH0 PUSH2 0x184C PUSH2 0x1847 PUSH2 0x1842 DUP5 PUSH2 0x106B JUMP JUMPDEST PUSH2 0x1829 JUMP JUMPDEST PUSH2 0x106B JUMP JUMPDEST SWAP1 POP SWAP2 SWAP1 POP JUMP JUMPDEST PUSH0 DUP2 SWAP1 POP SWAP2 SWAP1 POP JUMP JUMPDEST PUSH2 0x1865 DUP4 PUSH2 0x1832 JUMP JUMPDEST PUSH2 0x1879 PUSH2 0x1871 DUP3 PUSH2 0x1853 JUMP JUMPDEST DUP5 DUP5 SLOAD PUSH2 0x17D8 JUMP JUMPDEST DUP3 SSTORE POP POP POP POP JUMP JUMPDEST PUSH0 SWAP1 JUMP JUMPDEST PUSH2 0x188D PUSH2 0x1881 JUMP JUMPDEST PUSH2 0x1898 DUP2 DUP5 DUP5 PUSH2 0x185C JUMP JUMPDEST POP POP POP JUMP JUMPDEST JUMPDEST DUP2 DUP2 LT ISZERO PUSH2 0x18BB JUMPI PUSH2 0x18B0 PUSH0 DUP3 PUSH2 0x1885 JUMP JUMPDEST PUSH1 0x1 DUP2 ADD SWAP1 POP PUSH2 0x189E JUMP JUMPDEST POP POP JUMP JUMPDEST PUSH1 0x1F DUP3 GT ISZERO PUSH2 0x1900 JUMPI PUSH2 0x18D1 DUP2 PUSH2 0x17AB JUMP JUMPDEST PUSH2 0x18DA DUP5 PUSH2 0x17BD JUMP JUMPDEST DUP2 ADD PUSH1 0x20 DUP6 LT ISZERO PUSH2 0x18E9 JUMPI DUP2 SWAP1 POP JUMPDEST PUSH2 0x18FD PUSH2 0x18F5 DUP6 PUSH2 0x17BD JUMP JUMPDEST DUP4 ADD DUP3 PUSH2 0x189D JUMP JUMPDEST POP POP JUMPDEST POP POP POP JUMP JUMPDEST PUSH0 DUP3 DUP3 SHR SWAP1 POP SWAP3 SWAP2 POP POP JUMP JUMPDEST PUSH0 PUSH2 0x1920 PUSH0 NOT DUP5 PUSH1 0x8 MUL PUSH2 0x1905 JUMP JUMPDEST NOT DUP1 DUP4 AND SWAP2 POP POP SWAP3 SWAP2 POP POP JUMP JUMPDEST PUSH0 PUSH2 0x1938 DUP4 DUP4 PUSH2 0x1911 JUMP JUMPDEST SWAP2 POP DUP3 PUSH1 0x2 MUL DUP3 OR SWAP1 POP SWAP3 SWAP2 POP POP JUMP JUMPDEST PUSH2 0x1951 DUP3 PUSH2 0x1225 JUMP JUMPDEST PUSH8 0xFFFFFFFFFFFFFFFF DUP2 GT ISZERO PUSH2 0x196A JUMPI PUSH2 0x1969 PUSH2 0x1387 JUMP JUMPDEST JUMPDEST PUSH2 0x1974 DUP3 SLOAD PUSH2 0x1685 JUMP JUMPDEST PUSH2 0x197F DUP3 DUP3 DUP6 PUSH2 0x18BF JUMP JUMPDEST PUSH0 PUSH1 0x20 SWAP1 POP PUSH1 0x1F DUP4 GT PUSH1 0x1 DUP2 EQ PUSH2 0x19B0 JUMPI PUSH0 DUP5 ISZERO PUSH2 0x199E JUMPI DUP3 DUP8 ADD MLOAD SWAP1 POP JUMPDEST PUSH2 0x19A8 DUP6 DUP3 PUSH2 0x192D JUMP JUMPDEST DUP7 SSTORE POP PUSH2 0x1A0F JUMP JUMPDEST PUSH1 0x1F NOT DUP5 AND PUSH2 0x19BE DUP7 PUSH2 0x17AB JUMP JUMPDEST PUSH0 JUMPDEST DUP3 DUP2 LT ISZERO PUSH2 0x19E5 JUMPI DUP5 DUP10 ADD MLOAD DUP3 SSTORE PUSH1 0x1 DUP3 ADD SWAP2 POP PUSH1 0x20 DUP6 ADD SWAP5 POP PUSH1 0x20 DUP2 ADD SWAP1 POP PUSH2 0x19C0 JUMP JUMPDEST DUP7 DUP4 LT ISZERO PUSH2 0x1A02 JUMPI DUP5 DUP10 ADD MLOAD PUSH2 0x19FE PUSH1 0x1F DUP10 AND DUP3 PUSH2 0x1911 JUMP JUMPDEST DUP4 SSTORE POP JUMPDEST PUSH1 0x1 PUSH1 0x2 DUP9 MUL ADD DUP9 SSTORE POP POP POP JUMPDEST POP POP POP POP POP POP JUMP JUMPDEST PUSH0 PUSH1 0x40 DUP3 ADD SWAP1 POP PUSH2 0x1A2A PUSH0 DUP4 ADD DUP6 PUSH2 0x12FC JUMP JUMPDEST PUSH2 0x1A37 PUSH1 0x20 DUP4 ADD DUP5 PUSH2 0x1194 JUMP JUMPDEST SWAP4 SWAP3 POP POP POP JUMP INVALID LOG2 PUSH5 0x6970667358 0x22 SLT KECCAK256 0x25 0xB9 ADDMOD 0xC0 DUP6 0xA7 MSTORE8 0x25 DIV 0x2D 0xB9 STOP MUL 0x4E SHR DUP16 EXP PUSH17 0x8D8B22AFA48C8BA4F580865177ED64736F PUSH13 0x63430008190033000000000000 "
				},
				"gasEstimates": {
					"creation": {
						"codeDepositCost": "1354400",
						"executionCost": "infinite",
						"totalCost": "infinite"
					},
					"external": {
						"DEFAULT_ADMIN_ROLE()": "352",
						"authorizeAccess(uint256,address)": "28869",
						"getPatientData(uint256)": "infinite",
						"getRoleAdmin(bytes32)": "infinite",
						"grantRole(bytes32,address)": "infinite",
						"hasRole(bytes32,address)": "3122",
						"patientRecords(uint256)": "infinite",
						"renounceRole(bytes32,address)": "infinite",
						"revokeAccess(uint256,address)": "28933",
						"revokeRole(bytes32,address)": "infinite",
						"setPatientData(uint256,string,uint256,string,string,bytes32)": "infinite",
						"supportsInterface(bytes4)": "718"
					}
				},
				"methodIdentifiers": {
					"DEFAULT_ADMIN_ROLE()": "a217fddf",
					"authorizeAccess(uint256,address)": "0b72ac6d",
					"getPatientData(uint256)": "7d8e34f3",
					"getRoleAdmin(bytes32)": "248a9ca3",
					"grantRole(bytes32,address)": "2f2ff15d",
					"hasRole(bytes32,address)": "91d14854",
					"patientRecords(uint256)": "d3d188a1",
					"renounceRole(bytes32,address)": "36568abe",
					"revokeAccess(uint256,address)": "d9a5ec1b",
					"revokeRole(bytes32,address)": "d547741f",
					"setPatientData(uint256,string,uint256,string,string,bytes32)": "f78cb684",
					"supportsInterface(bytes4)": "01ffc9a7"
				}
			},
			"storageLayout": {
				"storage": [
					{
						"astId": 26,
						"contract": "pre.sol:MedicalData",
						"label": "_roles",
						"offset": 0,
						"slot": "0",
						"type": "t_mapping(t_bytes32,t_struct(RoleData)21_storage)"
					},
					{
						"astId": 471,
						"contract": "pre.sol:MedicalData",
						"label": "patientRecords",
						"offset": 0,
						"slot": "1",
						"type": "t_mapping(t_uint256,t_struct(PatientRecord)466_storage)"
					}
				],
				"types": {
					"t_address": {
						"encoding": "inplace",
						"label": "address",
						"numberOfBytes": "20"
					},
					"t_bool": {
						"encoding": "inplace",
						"label": "bool",
						"numberOfBytes": "1"
					},
					"t_bytes32": {
						"encoding": "inplace",
						"label": "bytes32",
						"numberOfBytes": "32"
					},
					"t_mapping(t_address,t_bool)": {
						"encoding": "mapping",
						"key": "t_address",
						"label": "mapping(address => bool)",
						"numberOfBytes": "32",
						"value": "t_bool"
					},
					"t_mapping(t_bytes32,t_struct(RoleData)21_storage)": {
						"encoding": "mapping",
						"key": "t_bytes32",
						"label": "mapping(bytes32 => struct AccessControl.RoleData)",
						"numberOfBytes": "32",
						"value": "t_struct(RoleData)21_storage"
					},
					"t_mapping(t_uint256,t_struct(PatientRecord)466_storage)": {
						"encoding": "mapping",
						"key": "t_uint256",
						"label": "mapping(uint256 => struct MedicalData.PatientRecord)",
						"numberOfBytes": "32",
						"value": "t_struct(PatientRecord)466_storage"
					},
					"t_string_storage": {
						"encoding": "bytes",
						"label": "string",
						"numberOfBytes": "32"
					},
					"t_struct(PatientRecord)466_storage": {
						"encoding": "inplace",
						"label": "struct MedicalData.PatientRecord",
						"members": [
							{
								"astId": 451,
								"contract": "pre.sol:MedicalData",
								"label": "name",
								"offset": 0,
								"slot": "0",
								"type": "t_string_storage"
							},
							{
								"astId": 453,
								"contract": "pre.sol:MedicalData",
								"label": "age",
								"offset": 0,
								"slot": "1",
								"type": "t_uint256"
							},
							{
								"astId": 455,
								"contract": "pre.sol:MedicalData",
								"label": "condition",
								"offset": 0,
								"slot": "2",
								"type": "t_string_storage"
							},
							{
								"astId": 457,
								"contract": "pre.sol:MedicalData",
								"label": "encryptedData",
								"offset": 0,
								"slot": "3",
								"type": "t_string_storage"
							},
							{
								"astId": 461,
								"contract": "pre.sol:MedicalData",
								"label": "accessPermissions",
								"offset": 0,
								"slot": "4",
								"type": "t_mapping(t_address,t_bool)"
							},
							{
								"astId": 463,
								"contract": "pre.sol:MedicalData",
								"label": "owner",
								"offset": 0,
								"slot": "5",
								"type": "t_address"
							},
							{
								"astId": 465,
								"contract": "pre.sol:MedicalData",
								"label": "dataHash",
								"offset": 0,
								"slot": "6",
								"type": "t_bytes32"
							}
						],
						"numberOfBytes": "224"
					},
					"t_struct(RoleData)21_storage": {
						"encoding": "inplace",
						"label": "struct AccessControl.RoleData",
						"members": [
							{
								"astId": 18,
								"contract": "pre.sol:MedicalData",
								"label": "hasRole",
								"offset": 0,
								"slot": "0",
								"type": "t_mapping(t_address,t_bool)"
							},
							{
								"astId": 20,
								"contract": "pre.sol:MedicalData",
								"label": "adminRole",
								"offset": 0,
								"slot": "1",
								"type": "t_bytes32"
							}
						],
						"numberOfBytes": "64"
					},
					"t_uint256": {
						"encoding": "inplace",
						"label": "uint256",
						"numberOfBytes": "32"
					}
				}
			},
			"userdoc": {
				"kind": "user",
				"methods": {},
				"version": 1
			}
		}
	}
}